:020000040001F9
:10800000B03C0020F58001000F81010011810100CA
:108010000000000000000000000000000000000060
:1080200000000000000000000000000013810100BB
:108030000000000000000000158101001781010010
:108040001981010019810100B18901001981010024
:1080500019810100000000007D82010019810100EA
:1080600019810100198101001981010019810100A4
:108070001981010019810100198101001981010094
:1080800019810100AD8501001981010019810100EC
:10809000398901001981010041890100198101001C
:1080A000198101001981010000000000000000009A
:1080B00000000000000000000000000000000000C0
:1080C0000348854600F09CF800480047DDC80100E1
:1080D000B03C0020401E00BF00BF00BF00BF00BF7B
:1080E00000BF00BF00BF00BF00BF00BF00BFF1D195
:1080F000704700000321094802680A4302600848EB
:1081000002680A4302600748804707480047FEE7C5
:10811000FEE7FEE7FEE7FEE7FEE70000240500407D
:108120005405004079890100C180010030B50B463B
:10813000014600202022012409E00D46D5409D4241
:1081400005D31D469540491B2546954040191546C7
:10815000521E002DF1DC30BD70B5002425460028EC
:1081600001DA01244042002901DA01254942FFF7E2
:10817000DDFFAC4200D04042002C00D0494270BD2F
:1081800010B5431A934209D28318881803E0401EA1
:1081900001785B1E1970521EF9D210BD03460B43C5
:1081A0009B0703D009E008C9121F08C0042AFAD2AD
:1081B00003E00B780370401C491C521EF9D210BD1D
:1081C000D2B201E00270401C491EFBD2704700226F
:1081D000F6E710B513460A4604461946FFF7F0FFC6
:1081E000204610BD30B504460020034600E05B1C6D
:1081F000934203D2E05CCD5C401BF8D030BD000060
:10820000064C0125064E05E0E36807CC2B430C3CE9
:1082100098471034B442F7D3FFF756FF58F30100E4
:1082200078F3010070B58C180578401C6B075B0F64
:1082300001D10378401C2A1106D10278401C03E0CA
:1082400006780E70401C491C5B1EF9D12B0705D423
:108250000023521E0DD40B70491CFAE70378401C12
:10826000CB1A921C03E01D780D70491C5B1C521E3A
:10827000F9D5A142D8D3002070BD0000F0B587B079
:10828000002600200690FF200130059001250024E3
:1082900016E0059804F0CAFF00280BD000BF56482E
:1082A00040682840002805D0059804F0B7FF304604
:1082B000284306466D000598001D80B20590641C99
:1082C000042CE6D3FF207D3004F0B0FF00280AD054
:1082D000FF207D3004F0A2FF0120C007064300BF4D
:1082E0004648006906903007000F00282AD0012573
:1082F000002425E02846304000281FD000BF404819
:10830000512109014018A10040581F2109020840CD
:10831000000A049000BF3A48512109014018A10009
:108320004058032109040840000C0390204602F045
:1083300023F9074603990498B84700BF6D00641CF1
:10834000042CD7D3F00FC007002852D000244EE0F1
:108350002C480057401C002848D02A48005D049053
:10836000C021049888430746384602F049F9029034
:1083700002F002F903900398002836D0C021049837
:108380000840801102900120B840054600BF05203A
:108390000007072109024018B900405803210904C9
:1083A0000840000C019006982840002802D001984F
:1083B000022806D006982840002815D101980328E5
:1083C00012D1029803280BD10198022801D1032071
:1083D00000E0022000903846009904F0E6FE00BF5D
:1083E0003846039A0299904700BF00BF641C042CD2
:1083F000AED307B0F0BD00000063004000050050A0
:108400000060004084270020C206D20E0121914066
:10841000014A11607047000080E200E0C206D20EFF
:1084200001219140014A11607047000000E100E025
:10843000C206D20E01219140014A1160704700002E
:1084400000E200E010B5002819DA1A4A03071B0FF2
:10845000083B9B089B00D2588307DC0EFF23A340F8
:108460009A438B071B0E8407E40EA3401A43114B5B
:108470000407240F083CA408A4001A5118E00E4A6F
:1084800003231B02D21883089B00D2588307DC0EFB
:10849000FF23A3409A438B071B0E8407E40EA340DF
:1084A0001A43054B032424021B198408A4001A5103
:1084B00010BD00001CED00E000E100E010B5002858
:1084C00019DA1A4A03071B0F083B9B089B00D25876
:1084D0008307DC0EFF23A3409A438B071B0E840700
:1084E000E40EA3401A43114B0407240F083CA408D0
:1084F000A4001A5118E00E4A03231B02D218830865
:108500009B00D2588307DC0EFF23A3409A438B07BE
:108510001B0E8407E40EA3401A43054B03242402D8
:108520001B198408A4001A5110BD00001CED00E0C6
:1085300000E100E010B5002819DA1A4A03071B0F02
:10854000083B9B089B00D2588307DC0EFF23A34007
:108550009A438B071B0E8407E40EA3401A43114B6A
:108560000407240F083CA408A4001A5118E00E4A7E
:1085700003231B02D21883089B00D2588307DC0E0A
:10858000FF23A3409A438B071B0E8407E40EA340EE
:108590001A43054B032424021B198408A4001A5112
:1085A00010BD00001CED00E000E100E010B500206F
:1085B000074908600021064841608160C1600020D1
:1085C000034940390860486006F0FCFB10BD00001C
:1085D0004011014010B500F083FA10BDF7B582B02C
:1085E0000446164600F07CFA1820604348494018BB
:1085F000007D8007800F02281ED01820604340189D
:108600000769182060434018C068381A451E002DBD
:1086100004DA18206043401880684519AE420BDD2B
:10862000182060433A494018007D8007800F0028D9
:1086300001D105B0F0BD2E46002E01D10020F8E793
:108640000020019000BF182060433149401807699D
:10865000182060434018C068381A451E002D04DAFF
:108660001820604340188068451918206043284945
:1086700040188268182060434018C068101AA84249
:1086800001DD284609E0182060432149401882682E
:10869000182060434018C068101A0546B54201DA38
:1086A000284600E03046054618216143184A8918DB
:1086B0004A6818216143164BC918C96850182A46E0
:1086C0000399FFF75DFD0198401901900398401947
:1086D0000390761B182060430D494018C06842196A
:1086E000182060434018C260182060434018C268D8
:1086F0001820604340188068824204D1002218206C
:1087000060434018C260002E9DD1019891E700009F
:108710003C2100200FB438B5044606A800906A46F4
:108720002046059900F004F838BC08BC04B018478E
:10873000F7B59AB00D46144602A815904020169041
:10874000002017901A9819900020189000BF2E78DA
:108750006D1C002E00D1DCE0252E74D1002700BF57
:108760002E78232E12D02B2E0CD02D2E02D0302E70
:1087700010D103E0012007436D1C0CE002200743E9
:108780006D1C08E0042007436D1C04E0082007432B
:108790006D1C00E001E000BFE2E70020129000BF86
:1087A0002E78302E01DB392E00DD08E06D1C0A2109
:1087B000129848433146303940181290F0E700BF14
:1087C000002013902E782E2E11D16D1C00BF2E7814
:1087D000302E01DB392E00DD08E06D1C0A211398D4
:1087E00048433146303940181390F0E700BF2E78E7
:1087F00000BF6C2E01D0682E02D12E786D1C00E0D7
:1088000000E0F6E700BF702E62D008DC252E70D0A5
:10881000582E38D0632E09D0642E6FD114E0732EF9
:1088200040D0752E1FD0782E68D12BE02168081D0E
:108830002060086814901498C0B2019015A801999E
:1088400000F066FA5AE05CE02168081D20600868C4
:1088500014901298019700900A2215A8139B14995E
:1088600000F03FF94AE02168081D20600868149074
:108870001298019700900A2215A8139B149900F0F2
:10888000B7F93BE000BF2168081D2060086814901C
:10889000129801970090102215A8139B149900F0CC
:1088A000A7F92BE02168081D20600868019000BF2F
:1088B00001980678401C0190002E00D106E0314658
:1088C00015A800F025FA18980028F1DA00BF15E085
:1088D0002168081D206008681490002008210B46BC
:1088E00010220091019015A8149900F081F905E07B
:1088F000FFE7252115A800F00BFA00BF00BF6D1C93
:1089000003E0314615A800F003FA1898002800DBB0
:108910001DE700BF189800280BDD1798002804D029
:1089200002A9179A1A98FFF759FE17991898401834
:10893000189018981DB0F0BD10B506F057F910BD8D
:1089400070B50C480068002810D00A4800688047BD
:10895000044600BF2546002D06D000BF0022114668
:10896000284600F03FFB00BF00BF01E003F068FDB8
:1089700070BD0000EC20002010B503F007FE0028B9
:1089800005D0074807494860C8130749886103F0C4
:10899000E1FD002802D001200449886010BD0000DC
:1089A000DFFF07C000050040006C004000060040EB
:1089B00043488068002823D000204149886041480E
:1089C00080694149087041480078002819D1404821
:1089D0000078002815D108460078FE2811D1012022
:1089E0003B49087005203B490870374800783A49F0
:1089F0003A4A1278885439480078401C3749087040
:108A00005CE03348007801281DD134480078022802
:108A100012D12D48007805280ED12B4801782E4818
:108A20002E4A127881542D480078401C2B4908703A
:108A300002202749087041E00120284908700020E1
:108A4000234908703AE022480078022830D11E48B5
:108A500000782149214A1278885420480078042857
:108A60000CD11C4800781849097840181949087039
:108A70001A480078401C194908701FE01748007810
:108A80001449097888420DD101201449087000204A
:108A90000F4908700F4800780F49087001200B49F2
:108AA00008700BE00D480078401C0C49087005E088
:108AB00001200A490870002005490870704700002D
:108AC000002100400025004021210020222100201B
:108AD000202100201F2100207A2800201E210020B4
:108AE0007047FFB585B007460E460F9D0E9C002EC1
:108AF00001DA704200E0304603900120049007E064
:108B000007990398FFF712FB03900498401C049008
:108B1000079903988842F3D204990898884201D9AA
:108B200008980490002C06D0002E03DB0420284077
:108B3000042800D1641E02202840002802D0089892
:108B4000002816D0E807C00F002812D1002C10D042
:108B500008E02021384600F0DBF8F868002801DA48
:108B600009B0F0BD002C04D02046641E0499884250
:108B7000EFD8002E08DA76422D21384600F0C8F8EA
:108B8000F86800280CDAEBE704202840042807D115
:108B90002B21384600F0BCF8F868002800DADFE73F
:108BA00002202840022818D1E807C00F002814D15D
:108BB0000898002811D1002C0FD007E0302138464A
:108BC00000F0A6F8F868002800DAC9E7002C04D005
:108BD0002046641E04998842F0D8019500943146DD
:108BE0003846089B079A00F003F800BFB8E700007A
:108BF000FFB585B015461E460E9C012706980390CA
:108C00000120029007E029460398FFF78FFA0390AE
:108C10000298401C02900398A842F4D2029886421F
:108C200000D902960F98C007C00F00281FD1002C52
:108C30001DD002210F980840022804D1002E02D135
:108C40003020019001E02020019009E00199059871
:108C500000F05EF80598C068002801DA09B0F0BDA0
:108C6000002C04D02046641E02998842EED802E00F
:108C700038466843074639460698FFF757FAA84230
:108C800001D3012000E000203146761E012901DDDC
:108C9000012100E0002108430028E9D100BF394646
:108CA0000698FFF743FA0490049878430699081A47
:108CB0000690164A0498115C059800F029F805986A
:108CC000C068002800DA06E029463846FFF72EFA89
:108CD0000746002FE3D100BF0F98C007C00F002840
:108CE00012D0002C10D008E02021059800F010F8D8
:108CF0000598C068002800DAB0E7002C04D02046B0
:108D0000641E02998842EFD800BFA7E73CF3010038
:108D100070B504460E46A568681C6168814206DB92
:108D200020684655681CA060E068401CE0606168EF
:108D3000A06888420DD1A26821682069FFF74EFC27
:108D4000A168884203D00020C043E06001E0002019
:108D5000A06070BD02E008C8121F08C1002AFAD145
:108D600070477047002001E001C1121F002AFBD1AB
:108D70007047F7B582B004461646002537880020B4
:108D80003080606B00280CD0616B08783B4632461F
:108D9000039905F075F90546002D02D0284605B067
:108DA000F0BD206B00280AD03B463246206B039969
:108DB00006F09CF80546002D01D02846EFE72E204E
:108DC000005D00280BD02E21085D3B4632460399FA
:108DD00003F07DFC0546002D01D02846DFE72D205D
:108DE000005D002809D03A463146039800F055FF4F
:108DF0000546002D01D02846D1E7A078002809D0EB
:108E00003A463146039800F005FA0546002D01D098
:108E10002846C4E7E07800280BD0E17848B23B460A
:108E20003246039902F022FF0546002D01D0284664
:108E3000B5E7606800280CD00020616808563B4602
:108E40003246039906F0E4F80546002D01D0284685
:108E5000A5E7208900280DDD019700960622022152
:108E600020460830039B06F087F90546002D01D007
:108E7000284694E7208A00280DDD019700960722F6
:108E8000032120461030039B06F076F90546002D9D
:108E900001D0284683E7208B00280DDD019700963E
:108EA0001522142120461830039B06F065F905466B
:108EB000002D01D0284672E7206A00280AD03B46E0
:108EC0003246206A039901F089FD0546002D01D044
:108ED000284664E7606A00280AD03B463246606A4A
:108EE000039903F003FE0546002D01D0284656E7FE
:108EF0002C20005D00280ADD3B46324620460399BF
:108F000005F060F90546002D01D0284647E7207896
:108F100000280AD03B4632462046039903F022FE41
:108F20000546002D01D0284639E7284637E7014697
:108F3000C87804221040002801D107207047002083
:108F4000FCE7000030B5A9B038211BA8FFF73FF9B6
:108F5000022118A80173002181730621C173032126
:108F600010A881871B491BA84161242101A8FFF794
:108F70002EF9012168460174FF202D300590B420A0
:108F800006905621684601850621818512490C917B
:108F90000AA8249038210DA8FFF719F9012110A87B
:108FA00081800E49129100200D4B01AA0DA900905D
:108FB0001BA800F0B7FA044600BF2546002D06D0D6
:108FC00000BF00221146284600F00CF800BF00BF89
:108FD00029B030BD12200020042000201E200020D7
:108FE00063D2010000BF00BF00BF00BF00BFBFF3DE
:108FF0004F8F00BF00BF00BF06480749C86000BFD1
:1090000000BF00BFBFF34F8F00BF00BF00BF00BF56
:1090100000BFFDE70400FA0500ED00E0F8B50446E6
:109020000D46164603480768324629462046B8478B
:10903000F8BD000020270020F8B505460C4627782B
:109040000C21A068484306490E5806480068009065
:109050002A463946204608302369B047F8BD00004B
:1090600058280020B420002010B504460648007897
:1090700014225043044A121D81182046FFF7DCFFDA
:10908000042005F055FA10BD8C27002010B50346CA
:109090000C460D480068002801D1082010BD002AA8
:1090A00001D10720FAE7002B01D10720F6E7186865
:1090B000007C002801D00820F0E71968002008741F
:1090C0004C744A6100BFE9E7CC200020FFB581B0B5
:1090D0000E4614461F4620468107890F002901D1FC
:1090E000012100E00021002902D1072005B0F0BDD8
:1090F000002C04D100201C4908600720F6E704F08A
:1091000001FF1A48076003201949087016480460D7
:10911000183400250CE0E900134A12688818002171
:109120000170417086704460182171430C196D1CE8
:10913000032DF0DB00200F4908600F4908700F492C
:1091400008701420FFF760F903211420FFF7B6F927
:109150001420FFF763F9019804F0AAFE04F0A2FEC0
:10916000074908600020C1E7CC200020E42000204F
:10917000C8200020D0200020E0200020E120002096
:10918000D4200020FEB504460D4617462646124858
:109190000068002801D10820FEBD002C01D1082064
:1091A000FAE7052D01D20720F6E77069002801D102
:1091B0000820F1E7707C012801D1284600E000205A
:1091C000029005F0AFFF009701902A463146029BBE
:1091D00005F0ACFDE0E70000CC20002070B50446AF
:1091E00025460B480068002801D1082070BD002CDE
:1091F00002D06869002801D10820F7E70020287410
:1092000005F090FF0646294605F0BCFDEEE700009C
:10921000CC200020F8B505460C4617462088001DD6
:10922000B84201D90C20F8BD684679DF0646002E09
:1092300001D03046F7E70320218868542088401C7D
:1092400020801920218868542088401C2080208894
:1092500041196846008805F0F6FE218840182080F4
:109260000020E0E770B500220121090412480068DF
:10927000FFF788FF044600BF2546002D06D000BF3B
:10928000002211462846FFF7ADFE00BF00BF0022B6
:109290000121C90309480068FFF774FF044600BFB5
:1092A0002546002D06D000BF002211462846FFF7B4
:1092B00099FE00BF00BF70BDACF20100B0F201002A
:1092C0000146880B8003002801D10120704700204F
:1092D000FCE70000F0B591B004460D46207D002863
:1092E00019D00020099000BF08A8007901090901E0
:1092F000491C08A801710079F0218843103008A9A1
:10930000087100BF697B08A84171807906218843F4
:10931000801C08A988711C210AA8FEF758FF08A81C
:10932000007A02218843811C08A80172007A10216A
:109330008843217D002901D0012100E0002109019D
:1093400010221140084308A9087200200B900D90CC
:109350000E90207D002801D009A800E000200F9089
:109360000020109000BF0121684681734949818126
:1093700000BF00200290A97B68460172E97B417220
:10938000807A06218843811C68468172807A082190
:109390008843014668468172807A102188430146DD
:1093A00068468172807A4108490068468172297B4B
:1093B0000191142104A8FEF70AFF03A8049002A853
:1093C00005900121684601830021418301218183A9
:1093D00001A80890A088A31D04AA0AA9A2DF064636
:1093E000002E02D0304611B0F0BDA86800284DD044
:1093F00000BF0121684681732749818100BF002099
:109400000290287C6946087200BF6846407A0109CC
:10941000090168464172407AF021884369464872E2
:1094200000BF6846807A06218843811C68468172A5
:10943000807A08218843014668468172807A10212B
:109440008843014668468172807A4108490068462F
:109450008172A96800F09CFD0746142104A8FEF75C
:10946000B6FE03A8049002A8059068460783002171
:109470004183018B81830890E08822460E3204A943
:10948000A3DF0646002E03D03046ACE70020E08183
:109490000020A8E7192A000008290000F3B593B0BE
:1094A0000D461F21129111911398002814D0139882
:1094B000FFF73DFD0446002C02D0204615B0F0BD5C
:1094C00012AA09A91398FFF754FC0446002C01D0F6
:1094D0002046F3E709AE02E0002600201290002D9E
:1094E00013D0284605F084F80446002C01D020460D
:1094F000E4E711AA01A92846FFF73BFC0446002C2B
:1095000001D02046DAE701AF02E0002700201190E9
:1095100010A88088C3B210A80089C1B23A4630466C
:1095200072DFCBE7F8B504460F4615461E46002C01
:1095300001D0002D01D10E20F8BD0020484908704F
:10954000484806604849069808602422294647484A
:10955000FEF716FE00F04CF94548464908604648BB
:10956000886038214548FEF732FE2078434908706C
:10957000A0788870E078C870607848706269206967
:109580004A6108610846E268A168C2608160E269D8
:10959000A169C2618161606A00281BD038483749DF
:1095A000486238498160606A00883449496A0880A5
:1095B000606A80883149496A8880002005E0616AD4
:1095C0008968095C2F4A1154401C2C49496A8988D2
:1095D0008142F4D8A06A002824D02B492B4881600E
:1095E0002649886228492548806A8160A06A808867
:1095F0002249896A8880A06A00882049896A08808F
:10960000002005E0A16A8968095C1F4A1154401CCA
:109610001A49896A89888142F4D82C20015D17484B
:1096200020300173206A00280BD0194813490862C2
:10963000206A4088096A4880206A00880F49096AC0
:1096400008806068002804D012480C4948606068AF
:10965000486039460948FFF721FF009000986BE702
:109660005C2000205420002058200020EC24002002
:10967000202500201025002040250020B4240020B3
:10968000602500206C250020982500208C250020D6
:10969000602000206420002070B504462088102837
:1096A00004D0112806D0192869D11AE0A0883549BC
:1096B000088065E0002034490870A0883149098895
:1096C00088420DD1012000F09BF80546002D07D0FF
:1096D0002E480068002803D028462C49096888478E
:1096E0004EE0A079002849D129480078012806D009
:1096F000022813D0032820D004283DD12FE00220D7
:1097000000F07EF80546002D07D0204800680028AC
:1097100003D028461D49096888472EE0032000F041
:109720006FF80546002D07D018480068002803D0C0
:1097300028461649096888471FE003201549087024
:10974000042000F05DF80546002D07D00F480068A2
:10975000002803D028460D49096888470DE00020FD
:109760000C4908700C480068002804D008460078AE
:1097700009490968884700E000BF00BF00E000BF5A
:1097800000BF70BD662000205D2000205820002012
:109790005C200020502000205420002070B504469A
:1097A0000025022C02D0032C18D100E000BF0D4888
:1097B0000078002811D000200A4908700A48007873
:1097C00000F01EF80546002D07D008480068002864
:1097D00003D0284605490968884700E000BF00BF5C
:1097E00070BD0000482000205C2000205820002090
:1097F00010B507210148FEF7EAFC10BD4920002002
:1098000030B587B00546A248057000200090684634
:1098100003F050FF0446082C02D10020009004E021
:10982000002C02D0204607B030BD0098002804D09C
:109830000120984908700020F5E7FFF7D9FF964806
:109840004078002803D092480078012807D0924839
:109850008078002812D08E48007802280ED18F48D8
:109860000068002807D001208D49087008208B4926
:109870000968884702E00020894908708448007818
:1098800001280BD184484078002804D0854803F093
:1098900093FE002802D102207D4908707C480078A0
:1098A00002280BD17C488078002804D07D4803F042
:1098B00083FE002802D10320754908707648007B9A
:1098C000002806D172480078032802D1042070498C
:1098D00008707148007E002808D16D48007804287F
:1098E00004D100206A4908706F4908706B4800680D
:1098F000002817D066480078032803D06448007811
:1099000004280FD16448007800280BD067480078FD
:10991000002807D101206649087007205F490968BF
:10992000884702E0002062490870182101A8FEF76C
:109930004EFC0021684601710020029068460173C8
:109940000020049052480078012806D0022811D047
:10995000032823D0042879D150E05248401E0290B9
:109960000121684601710021C182818201204E4996
:10997000087075E04B48401E029001216846017155
:109980004548008981B26846C1824348808881B2D7
:109990006846818202204449087061E03E48808A1E
:1099A00081B26846C1823C48008A81B268468182A1
:1099B000404805F06FFC00281CD03748007800288C
:1099C00018D03A480078002814D10220694608735C
:1099D0003848049004203849C87000213648FFF701
:1099E0005DFD0446002C01D020461CE705202E49D1
:1099F000087002E003202C49087031E02648808B73
:109A000081B2684681822448008C81B26846C18256
:109A1000284805F03FFC00281DD01F48007800288A
:109A200019D022480078002815D102206946087311
:109A30002048049004202049C87000211E48FFF7E8
:109A40002DFD0446002C02D02046ECE607E006205F
:109A50001549087002E004201349087000E000BFB7
:109A600000BF0B480078002806D001A873DF044629
:109A7000002C01D02046D6E608480068002804D013
:109A8000094800780549096888470020CBE60000AE
:109A90005C20002048200020EC24002054200020DE
:109AA0005F2000204A200020502000205D20002060
:109AB0005E20002010250020B424002033B587B09C
:109AC0000446002C02D10E2009B030BD0025207CB8
:109AD00008A90978884233D000200590069001211A
:109AE000684681820021C18208A80690E188608AC8
:109AF00005AAA4DF0546002D03D108A8007820742C
:109B000001E02846E0E7608A0E49884217D0207DB0
:109B1000002814D000200190029003900490E18866
:109B20006846818001218171C18A018105A8039065
:109B300006980490608A01A9A6DF054600E0082582
:109B40002846C1E7FFFF0000F8B504460D46002C8B
:109B500001D0002D01D10E20F8BD28682060002022
:109B6000C043608228792075FF20207400BF012146
:109B7000684681700849018000BF221D69460120A6
:109B8000A0DF0646002E01D03046E5E729462046F4
:109B9000FFF7A0FBE0E700000F18000070B50546D6
:109BA0000C46002D01D0002C00D170BD208810285B
:109BB00004D0112807D050280FD109E021462846AB
:109BC00003F0D6FB0AE02146284603F0FFFB05E040
:109BD0002146284603F058FC00E000BF00BF00BF4C
:109BE000E3E7000070B505461C2229461448FEF73D
:109BF000C7FA002013490870286800280BD00822F3
:109C000011482968FEF7BCFA0F487ADF0446002C99
:109C100008D0204670BD0C487BDF0446002C01D0E4
:109C20002046F7E70020C043084908800020084983
:109C30000870084A00210848FFF728FAEAE7000000
:109C4000B82500207C200020682000207220002001
:109C50007020002089F00100CCF2010010B504460C
:109C60002088102806D0112808D012280ED050289D
:109C700010D107E0204603F05DFB0CE0204603F026
:109C800083FB08E0204603F0D1FB04E0204603F00C
:109C900045FB00E000BF00BF10BDFEB505460C4609
:109CA000174620880930B84201D90C20FEBD68460D
:109CB00071DF0646002E01D03046F7E708202188E4
:109CC00068542088401C20801B20218868542088EC
:109CD000401C208021884819062200A90131FEF786
:109CE0004FFA2088801D208068460078002802D125
:109CF0002188685402E00120218868542088401C93
:109D000020800020D2E7000010B50446204601F074
:109D100077F92046FFF7A2FF21460B4800F086F8AE
:109D200021460A48FFF73AFF204603F0B7FA2046DB
:109D3000FFF7B2FC2146064800F0DAF82146054854
:109D400000F06AFA10BD0000C0210020A821002008
:109D50002822002010220020F0B58BB004460F46C8
:109D6000208C1549884222D006AA3946204602F0A6
:109D7000A7FA0646059600200190029003900490F1
:109D8000218968468180012181710021018105A816
:109D9000039006A80490208C01A9A6DF0546002D9B
:109DA00004D16846808AB04200D00C2500E0082526
:109DB00028460BB0F0BD0000FFFF0000F8B50446D8
:109DC0000E4630682060307960710020C0432084E6
:109DD0000021222001554C20015300BF012168467B
:109DE00081701149018000BFA21D69460120A0DFDA
:109DF0000546002D01D02846F8BD3146204602F028
:109E0000E7F90546002D01D02846F5E7B06800289F
:109E100008D03146204600F073FA0546002D01D0E7
:109E20002846E9E70020E7E70D18000070B5054671
:109E30000C462088102804D0112807D050280FD1B4
:109E400009E02146284603F096FA0AE02146284612
:109E500003F0C0FA05E02146284603F03DFB00E090
:109E600000BF00BF70BD22221154704770B586B08C
:109E700004460E461D4B0FCB01AD0FC5002C01D083
:109E8000002E02D10E2006B070BD0020C043A0827B
:109E90003068A0610020A075214601A863DF054657
:109EA000002D01D02846EEE7217868468175012112
:109EB0008182A21C05A90120A0DF0546002D01D04A
:109EC0002846E0E73146204604F048F80546002DD4
:109ED00001D02846D7E73146204605F02AF8054646
:109EE000002D01D02846CEE70020CCE704F3010086
:109EF00070B505460C46002D01D0002C00D170BD78
:109F00002088102804D0112807D050280FD109E04C
:109F10002146284603F032FA0AE02146284603F09B
:109F20005DFA05E02146284603F0E3FA00E000BFB1
:109F300000BF00BFE3E7000037B584B004460D461C
:109F4000002C02D10E2007B030BDA08A0F498842F4
:109F500002D0A07D002801D10820F4E76846008BDC
:109F6000142801DD0720EEE7002000900190029008
:109F70000390A18968460180039506A802900121FB
:109F800068468170A08A6946A6DFDCE7FFFF000013
:109F9000F8B505460E46002432782146641C6A5402
:109FA00072782146641C6A5400BF022C01D1012042
:109FB00000E000200746002F06D100BF0022114616
:109FC0001046FFF70FF800BF00BF2046F8BD0000A5
:109FD0007CB500BF002348222349092004F0C8FAB9
:109FE000054600BF2E46002E06D000BF00221146B7
:109FF0003046FEF7F7FF00BF00BF00BF0020009013
:10A000000190012069460870684660DF044600BF81
:10A010002546002D06D000BF002211462846FEF737
:10A02000E1FF00BF00BF114804F096FA044600BFEC
:10A030002546002D06D000BF002211462846FEF717
:10A04000D1FF00BF00BF0A4804F0C6FA044600BFB3
:10A050002546002D06D000BF002211462846FEF7F7
:10A06000C1FF00BF00BF7CBD4C240020099D010042
:10A0700015EB010070B586B004460D46002C02D1E8
:10A080000E2006B070BD00266878217C884231D051
:10A09000002004900590072168460182002141823A
:10A0A0000595E188608A04AAA4DF0646002E02D145
:10A0B0006878207401E03046E3E7608A0E49884200
:10A0C00017D0207D002814D000200090019002902D
:10A0D0000390E1886846018001218170418A818076
:10A0E00004A8029005980390608A6946A6DF064698
:10A0F00000E008263046C4E7FFFF00007FB50446B5
:10A100000D46002C01D0002D02D10E2004B070BDF0
:10A1100000200290286820600020C04360822879D7
:10A120002075FF20207400BF0121684681733449E7
:10A13000818100BF221D03A90120A0DF0646002E59
:10A1400001D03046E2E72F4801F0E6FF00BF2E487D
:10A15000007800090001401C2B490870084600786F
:10A16000F021884310302849087000BF00BF08461E
:10A17000407800090001487008464078F021884383
:10A180002149487000BF21480B461E4A0621019410
:10A1900000901B481E3803F0F5FD0121684601724E
:10A1A000102141722721817200BF194800780009EF
:10A1B0000001401C1649087008460078F0218843C9
:10A1C00010301349087000BF00BF084640780009EE
:10A1D0000001487008464078F02188430C494870D7
:10A1E00000BF0C480B4602AA0421019400900448C9
:10A1F000453802F0C5F82946204604F0FFFA85E705
:10A20000E7FE000004210020122100200A21002086
:10A210001C2100201421002070B505460C46002D9D
:10A2200001D0002C00D170BD2088102804D0112846
:10A2300007D050280FD109E02146284603F0A1F8A5
:10A240000AE02146284603F0CDF805E021462846DD
:10A2500003F07AF900E000BF00BF00BFE3E70000B1
:10A2600070B586B004460D46002C02D10E2006B013
:10A2700070BD0026002004900590042168460182EC
:10A280000021418205950E4A1188608A04AAA4DF44
:10A290000646002000900190029003900848018833
:10A2A0006846018002218170418A818004A8029061
:10A2B00005980390608A6946A6DF06463046D6E7D1
:10A2C0001421002001460C480078002809D10720FD
:10A2D00001228240094B9A6000BF0120064A10709B
:10A2E00009E00020044A1070072001228240034B3D
:10A2F000DA6000BF00BF7047342000200005005026
:10A3000030B58FB005460C461C2108A8FDF75FFF4D
:10A3100008A9087802218843801C08A90870002039
:10A3200009900B900C900D900E9000BF0121684693
:10A3300081721D49018100BF00200190E17B6846C8
:10A340000171217C4171807906218843811C684616
:10A35000817180790821884301466846817180793E
:10A36000102188430146684681718079410849007F
:10A3700068468171142103A8FDF729FF02A8039004
:10A3800001A804900121684681820021C182012137
:10A390000183A0680790E8882B46103303AA08A918
:10A3A000A2DF0FB030BD0000382A00007CB50446A3
:10A3B000A1786A460D4803F095F90546002D13D1A2
:10A3C00061781C2251430A4A88181C231A466946A0
:10A3D00003F0C4FA0748807A800007490A582146EA
:10A3E00068469047054600BF7CBD000080200020E5
:10A3F000D426002020270020E0F2010010B5032021
:10A4000000F07CF8044600BF002C03D0062C01D0DD
:10A41000204610BD00BF0020FBE70000F3B581B06F
:10A4200006460025002400E0641C002C04D1A00096
:10A4300029490858B042F7D1002C42D1029800288F
:10A4400025D0012802D002283AD133E0600020183C
:10A4500022490D5C600020184018407800280ED07A
:10A460001F4800680A22504301461E4A1E480068E1
:10A47000FEF788FE0746002F01D11A4806706000DB
:10A4800020181649401880781849085518E01648D1
:10A490000068FEF7A3FE1548005D610061180F4AD1
:10A4A00089188978884204D1600020181146401824
:10A4B000857805E06000201808494018457800BFFD
:10A4C00000BF002D07D00A480068002803D02846A6
:10A4D000074909688847FEBDC0F2010040200020FE
:10A4E0003820002043200020BCF20100442000203E
:10A4F0003C200020014600207047000070B5024655
:10A50000002021E08400124D2C59A400114D641943
:10A510002168012484401440002C01D0032400E071
:10A520000024234603252D040C46AC4321461C047D
:10A5300021430524240707252D0264198500044EB4
:10A540007559AD006151401C0028DBD0002070BD62
:10A55000C0F20100000700500021C9438200054BF2
:10A560009950042804DB0B46011F024A4032535421
:10A57000704700004427002001468800014A105817
:10A580007047000044270020F7B585B00B46002037
:10A59000C0430490002A01D0002000E00420039072
:10A5A000002A01D0042000E00820029003991EE058
:10A5B0008800124C2058401C002817D10846059CE2
:10A5C0000093019246B20D4D20352E5585000B4E5D
:10A5D000009B7351019A002A04D166B2051F074FF0
:10A5E00040377E5500BF48B2049003E0491C0298F2
:10A5F0008142DDD300BF049808B0F0BD442700209D
:10A6000001460148405670476427002010B50246B5
:10A610000023002003E0145CE418E3B2401C8842ED
:10A62000F9DB184610BD0000F0B587B03E48007851
:10A63000142148433C49091D4418E7680C21A068CF
:10A6400048433A494018008906900C21A0684843C5
:10A6500036494018408905900C21A0684843334989
:10A6600040184068049003F02FF9014602903846E4
:10A67000FDF75CFD002901D1012000E000200390DE
:10A68000059906984843049946186088C019A1881E
:10A6900045180020264908600398002804D003F0DC
:10A6A00013F9618888420AD00398002804D0B54283
:10A6B00002D1A088002802D0A06803280CD103F0A2
:10A6C00003F9014602903846FDF730FD194908604C
:10A6D000032003F02DFF24E003F0F6F80190A18899
:10A6E000C8190199FDF722FD88081349086003F095
:10A6F000EBF8014601902846FDF718FD002901D12D
:10A70000012000E000200290B54206D00298002807
:10A7100003D1B1B2A8B204F017FA022003F008FF87
:10A7200000BF07B0F0BD00008C2700205828002093
:10A73000A4200020A8200020A020002010B5084858
:10A740000078142148430649091D4418207804283C
:10A7500002D000F0A5F801E004F06AF910BD000095
:10A760008C27002010B50F480078142148430D496C
:10A77000091D441860880C4908602078012804D01D
:10A78000032805D0042809D105E004F051F906E0BA
:10A79000FFF74AFF03E004F068FC00E000BF00BFE1
:10A7A00010BD00008C270020B420002010B5034805
:10A7B0004078002801D0FFF7D5FF10BD8C2700207E
:10A7C0000023142141430C4A535414214143891856
:10A7D0004B8002231421414389188B6000231421EC
:10A7E00041438918CB601421414389180B6114211E
:10A7F000414389188B80704790270020FFB581B0B6
:10A80000064617461C4840780A2830D01A48007877
:10A810001949497844180A2C00D30A3C1420604393
:10A820001549091D0E541420604340180761142077
:10A8300060434118029805C8CA60886014216143CA
:10A840000D4A121D89180498488014216143891803
:10A850000A988880101F4078401C111F48700748D4
:10A860000078002801D1FFF77DFF002500E00425D6
:10A87000284605B0F0BD00008C2700209C20002059
:10A8800010B50020054908704870002403E02046F8
:10A89000FFF796FF641C0A2CF9D310BD8C2700200B
:10A8A00010B50848007814225043064A121D81183A
:10A8B0000020FEF7C1FB00F007F8002003F038FE8F
:10A8C00010BD00008C27002010B509490878FFF75B
:10A8D00077FF07484078401E0549487008460078D1
:10A8E000401CC0B208700A2801D10020087010BDB9
:10A8F0008C270020FEB51F480068002836D01D4870
:10A900000068056803F0CEFA01901B4804682146F0
:10A91000019804F045F9C61C18480078002801D1B8
:10A9200003F0D2FAAE4201D2284600E030460419C4
:10A930002402240A204603F0AFFA03F0B3FA009091
:10A940000199009804F02CF9C71C2046019904F0E5
:10A9500027F9874209D903F0A5FA074603F09CFAC4
:10A960002F20FDF7B7FB04F077FA01E003F0CAFAF5
:10A97000FEBD0000D0200020D4200020E8200020D0
:10A9800001460888062808DB08881922D20190426F
:10A9900005DD0888104A904201D00720704748889A
:10A9A000062808DB48881922D201904205DD488834
:10A9B000094A904201D00720F0E70888064A9042F1
:10A9C00008D04888904205D008884A88904201DD26
:10A9D0000720E3E70020E1E7FFFF0000FFB581B0BB
:10A9E00006460D4614462088801D0499884202D9E7
:10A9F0000C2005B0F0BD3046FFF7C2FF0746002F20
:10AA000001D03846F5E70520218868542088401C8D
:10AA100020801220218868542088401C20802288B1
:10AA20005119308804F00FFB2188401820802288BB
:10AA30005119708804F007FB2188401820800020FD
:10AA4000D7E710B5044600BF002211462046FEF7A6
:10AA5000C9FA00BF10BD000030B587B01C216846A0
:10AA6000FDF7B5FB002000900520C00301900F20EA
:10AA7000000402900321684601730E4881896846EC
:10AA8000C181002101740C4805900C48069068466D
:10AA9000FFF7A8F8044600BF2546002D06D000BFEA
:10AAA000002211462846FEF79DFA00BF00BF07B0FE
:10AAB00030BD0000C0210020E9D2010043AA0100FE
:10AAC00038B51F4801F034FD002829D11D48007811
:10AAD00000280AD01C484069002820D0002000909F
:10AAE000194841696846884719E0184800780028E5
:10AAF00002D11548456801E01348856800222946BF
:10AB000013480068FEF73EFB0446002C07D00E48B1
:10AB10008069002803D00C488169204688470AE0F4
:10AB200009484069002806D0012000900648416984
:10AB30006846884700BF00200249087038BD000001
:10AB4000742000207C200020B825002070200020E8
:10AB5000CCF2010070B503460C460820002115E038
:10AB60000C254D430B4EAD19AD7A2540002D0CD070
:10AB7000094DAB4205D00C254D43AD192D899D42A1
:10AB800002D11160002003E00520491C0029E7D014
:10AB900000BF70BD14270020FFFF000010B5044661
:10ABA00001210C2060430A4A80188172891E0C2002
:10ABB000604380180181FF210C2060438018C1721E
:10ABC0000C21614388180721FDF701FB10BD00002F
:10ABD0001427002010B514484068C105C90D00298C
:10ABE00020D00A46103A50B200280DDA0E4B1C3322
:10ABF0000407240F083CA408A4001B598407E40E92
:10AC0000E3401B069B0F0BE0084B032424021B1997
:10AC10008408A4001B598407E40EE3401B069B0F25
:10AC2000D8B210BD0420FCE700ED00E000E100E038
:10AC300010B514484068C105C90D002920D00A4646
:10AC4000103A50B200280DDA0E4B1C330407240FC3
:10AC5000083CA408A4001B598407E40EE3401B062B
:10AC60009B0F0BE0084B032424021B198408A4004B
:10AC70001B598407E40EE3401B069B0FD8B210BD9E
:10AC80000420FCE700ED00E000E100E010B51C4806
:10AC900000680821084000282FD11A480068401C8D
:10ACA0001849086018480068002803D0042003F001
:10ACB00027FF24E001F0A0FC002803D0022003F0CD
:10ACC0001FFF1CE011480068002813D00C480078D2
:10ACD000C007C00F002809D10948006801210843B6
:10ACE00007490860002003F00BFF08E0032003F091
:10ACF00007FF04E003F0D8FE01E003F0E5FE10BD1D
:10AD0000B8200020A8200020A0200020A42000209F
:10AD100010B50C4800680821084000280FD10948E8
:10AD2000006802210840002805D00648006801217B
:10AD3000084304490860022003F0E2FE01E003F04A
:10AD4000C3FE10BDB8200020FEB504460E46A17813
:10AD50006A46284802F0C6FC0546002D49D16078B5
:10AD60000C21484324494018807A4021084040285B
:10AD700001D0022E01D1214F04E0012E01D1204F3C
:10AD800000E0204FA0781C2250431F4A8118002366
:10AD90001C226846B8470546002D1AD1022E18D04D
:10ADA00060780C21484314494018807A4021884338
:10ADB00061780C225143104A8918887260781C22ED
:10ADC0005043124A81181C231A466846B847054664
:10ADD00000BF022E0DD020780C2148430C494018AA
:10ADE000807A80000B490A582146684690470546FC
:10ADF00000BFFEBD8020002014270020A5DC01003C
:10AE000079DB0100C5E9010010260020D4260020CE
:10AE100020270020D0F20100F8B505460E461B4F52
:10AE200000242EE01C20604319494018807EFF2832
:10AE300026D13078022814D01C2060434018807E30
:10AE4000022188431C216143114A891888761C21FC
:10AE5000614389180846103007223146FDF790F902
:10AE60000BE01C2060430A494018807E41084900DD
:10AE70001C206043064A801881762C70002702E06F
:10AE8000641C072CCED300BF3846F8BD43800000B9
:10AE900010260020F8B505460E46174605200090FE
:10AEA00000241BE0002D06D11C2060430E494018F1
:10AEB000008BB8420DD0002D0FD01C2161430A4AEF
:10AEC00089180846103007222946FDF78BF900281B
:10AED00003D134600020009002E0641C072CE1D311
:10AEE00000BF0098F8BD0000102600207CB5054684
:10AEF000A9B26A46084802F0F5FB0446002C09D1C5
:10AF00007421684602F040FC0446002C02D1284619
:10AF100002F060FB20467CBD80200020F8B506468C
:10AF20000F46144600BF2546002D06D000BF002264
:10AF300011462846FEF756F800BF00BF0020F8BDB6
:10AF40007FB50546039502F0C5FC044600BF2646C2
:10AF5000002E06D000BF002211463046FEF742F810
:10AF600000BF00BF03A800F075FB044600BF2646E3
:10AF7000002E06D000BF002211463046FEF732F800
:10AF800000BF00BF052101A80130FDF720F9684688
:10AF9000407941084900491C6846417140790221C5
:10AFA000884301466846417140791C218843014627
:10AFB0000C3168464171407920218843014668463A
:10AFC0004171072181711021C1710B48009001214D
:10AFD000684601716946094800F0E2FC044600BF7A
:10AFE0002646002E06D000BF002211463046FDF74F
:10AFF000F9FF00BF00BF7FBD1DAF01000020002092
:10B00000F0B58FB00446FF200D9000260020079079
:10B0100000BFFE480078002801D10FB0F0BD00BF8E
:10B0200000BFFB480068002800D1F6E700BF0CA86D
:10B0300000F002FB054600BF2F46002F06D000BFE0
:10B04000002211463846FDF7CDFF00BF00BF0020AB
:10B0500008900025201D0A902A2168468185FF213D
:10B0600008A881740021017400200E902088102807
:10B0700013D0A0880EAA0221FFF76CFD0546002D13
:10B080000BD10C210E984843E2494018C17A08A818
:10B0900081740E98C1B208A84174208817287BD00B
:10B0A00008DC10280DD011287CD0132876D0142865
:10B0B00075D1B5E0182873D01C2872D05228F7D16A
:10B0C00080E20EAF3A460121D348FFF743FD0090DE
:10B0D0000098002807D102210C2238685043CD4A3D
:10B0E0008018817201E00420009000980546002D30
:10B0F00051D10126112108A801710E98C1B208A8EA
:10B100004174A1880C220E985043C24A80180181D4
:10B1100002210C220E985043BE4A801881720C22E4
:10B120000E995143BB4A88180722A11DFDF728F844
:10B13000207D304000280AD0207D4008B749085CB7
:10B14000FF280AD0207D4008085C0D9005E0B24A37
:10B150000DA9A01DFFF79EFE0546002D1BD10D98E1
:10B16000C1B20C220E985043AA4A8018C1720C2119
:10B170000E98484311464018807A082108430C2253
:10B180000E995143A34A8918887208A90D988874AA
:10B190000CA8FFF70BF924E2FAE003E085E01FE2D8
:10B1A000ADE118E20C210E9848439A494018807A84
:10B1B000022188430C220E995143964A89188872BD
:10B1C0000C210E98484311464018807A0821084007
:10B1D00008280ED10C210E98484311464018807A59
:10B1E0008021084080280FD100210CA8FFF7ACFD7A
:10B1F0000AE008A8807CFF2806D008A9887C02F015
:10B20000E9F9FF2008A9887410210C220E985043F8
:10B21000804A801881720126122008A90871E0E195
:10B220000C210E9848437B494018C07AFF2823D14F
:10B23000E2890DA90020FFF72DFE0546002D1BD148
:10B240000D98C1B20C220E985043724A8018C172F8
:10B250000C210E98484311464018807A0821084373
:10B260000C220E9951436B4A8918887208A90D98CF
:10B2700088740CA8FFF79AF80C210E98484365498A
:10B280004018C07AFF2805D01C210E984843644915
:10B29000401807901C230E995943624BCA18A08886
:10B2A0000023079982DF05469BE1132008A9087156
:10B2B0000C210E98484357494018807A04210843CE
:10B2C0000C220E995143534A8918887201260C2189
:10B2D0000E98484311464018C07AFF2819D10C2215
:10B2E0000E9850430A4681180DA8FFF795FD0546B4
:10B2F000002D0BD108A90D9888740D98C1B20C22AD
:10B300000E985043434A8018C1721DE008950126EB
:10B310001AE0162008A9087124220E995143424AC6
:10B320008918084608301A21FCF751FF0C210E98A5
:10B33000484338494018807A402108430C220E992E
:10B340005143344A89188872002004900C210E98C9
:10B35000484330494018C07A1C21484331494118BC
:10B360000591002106911C210E9848432C49401854
:10B370000190002002900390A08801AB244A121D86
:10B3800000217FDF0546002D01D00895002628E129
:10B390001F48407A400840001D4948720C210E9811
:10B3A00048431C494018807A042188430C220E9996
:10B3B0005143184A89188872142008A90871012677
:10B3C000A07900280AD00C220E995143114A8918FD
:10B3D000C87AFFF78BFDA07908908FE0E0794007ED
:10B3E000C00F00287ED008A8807CFF287AD00C21CE
:10B3F0000E98484307494018807A082108430C22D8
:10B400000E995143034A891888720FE08C2000205E
:10B410002027002014270020FFFF00008D2000209F
:10B42000D426002010260020F0260020E07A800795
:10B43000C00F00280FD008A8807C1C214843774902
:10B440004018807E4108490008A8807C1C22504397
:10B45000724A801881760C210E9848437049401832
:10B46000C07AFF284AD00C210E9848436C49085CEA
:10B47000022820D00C230E9A5A430B46D11808AA52
:10B48000927C1C235A43654BD21810461030072279
:10B49000FCF776FE08A8807C1C2148435F494018D1
:10B4A000807E0221884308A9897C1C2251435B4A83
:10B4B000891888761EE01C210E9848435949401887
:10B4C000418A08A8807C1C225043544A801801837A
:10B4D00008A8807C1C21484311464018807E410802
:10B4E000490000E00AE008A8807C1C2250434B4A37
:10B4F0008018817601210CA8FFF726FC71E0A07965
:10B50000000901283DD1A0790007000F012838D19A
:10B510000C210E98484342494018807A082108407F
:10B5200008282ED124220E9951433F4A8918081821
:10B530001A21FCF74CFE162008A908710C210E9860
:10B54000484337494018807A202108430C220E993D
:10B550005143334A891888720C210E98484311468A
:10B560004018807A402108430C220E9951432C4AFE
:10B57000891888722D48407A022108432B49487265
:10B580001CE00C210E98484325494018807A802100
:10B5900008430C220E995143214A891888721520BC
:10B5A00008A908712148807A8000214A11580CA806
:10B5B00088470546002D01D01E48089000200890BD
:10B5C00001260EE01948807A8000194A11580CA80B
:10B5D0008847089005E0132008A90871012600E0BB
:10B5E00000BF00BF002E16D009A90CA8089AFDF7CD
:10B5F00015FD08A8007912280DD100BF0C210E9866
:10B60000484307494018807A012802D00E98FFF776
:10B61000C5FA00BF00BF00BFFFE4000010260020F5
:10B6200014270020D4260020F02600202027002008
:10B63000F0F20100418000000146002901D10448D8
:10B640007047FF20087048708870C8700020F7E7C6
:10B650000E8000007FB50646002E02D1374804B0A8
:10B6600070BD00240FE000BF00210C206043344A6D
:10B6700011500C206043801841720C2060438018E8
:10B68000817200BF641C002CEDD0002403E0204632
:10B69000FFF784FA641C002CF9D024212948FCF718
:10B6A00096FD002406E0204601F094FFFF20264985
:10B6B0000855641C072CF6D3742168468181072144
:10B6C000C18122480290224902A802F0C5F905462C
:10B6D000002D30D101201F4908703078002821D179
:10B6E00000241CE0A1B26A46194801F0FBFF0546A0
:10B6F000002D0FD11C216143174A881800231C22FA
:10B70000694602F02BF90546002D07D000201149AB
:10B71000087006E000200F49087002E0641C072C46
:10B72000E0D308E06A469089D289504381B2084844
:10B7300002F02AF80546284691E700000E80000036
:10B7400020270020F02600208D2000205DB701007A
:10B75000802000208C20002010260020FFB591B012
:10B760001D4600BF84480068002801D115B0F0BD17
:10B7700000BF1A98742800D9F8E7012007900DA897
:10B78000FFF75AFF064600BF3746002F06D000BF1E
:10B79000002211463846FDF725FC00BF00BF0021FE
:10B7A00008A8017501760C951A980B90002712E0F5
:10B7B000B9B208AA714801F095FF0646002E09D1DA
:10B7C000082208A91198FCF70DFD002802D108A94C
:10B7D0008F7502E07F1C072FEAD300BF08A8807D89
:10B7E000FF2877D0129803280AD11A98742803D119
:10B7F000202008A9087698E0402008A9087694E05F
:10B800005F49681A1C21FCF791FC0446072C1DD2E5
:10B810000AA80F901398002810D108A9887D01214B
:10B820008140584A12681140002901D0012100E0EE
:10B830000021002902D10020079076E008A9887D28
:10B8400003F018FC202008A908766EE04E49681A1B
:10B850001C21FCF76BFC0446002C1AD10AA80F909F
:10B86000202108A8017644750020049047490591DD
:10B870001C20604344494018019008A8807D1C2189
:10B8800048433F494018029001A80C9018200B90A3
:10B890004BE03F49681A2421FCF748FC0446002C81
:10B8A00019D1302108A8017644750121C1750C20F9
:10B8B000604338494018807A02210840022834D079
:10B8C00008A9497D24225143314A88182421FCF7D4
:10B8D0007EFC2AE04DE000200790402008A9087671
:10B8E0002D48854204D103201290012007901CE0CE
:10B8F00008A8807D800029490858A84215D1012058
:10B9000007900AA80F9000200CE008A98A7D0C215E
:10B910004143204BC918C97A8A4202D108AA5075FE
:10B9200002E0401C0028F0D000BF0798012820D179
:10B930001298032806D108A9087E0321084308A904
:10B9400008760FE01298022806D108A9087E012186
:10B95000084308A9087605E008A9087E02210843E3
:10B9600008A908760AA80F900EA90DA8139AFDF74A
:10B9700055FB00BFFAE600002027002080200020B1
:10B980001026002088200020D42600202C2700200C
:10B99000F02600201427002000F30100F4250020E9
:10B9A00070B505460C4600BF29480078002801D133
:10B9B000284870BD00BF002D02D12648801DF8E741
:10B9C000002C02D12348801DF3E72068002802D113
:10B9D0002048801DEDE720480068002834D11E492A
:10B9E000206808600522611D1B48001DFCF7C8FB8C
:10B9F0002079194988720846007A40084000087288
:10BA00000846007A02218843801C134908720846C0
:10BA1000007A04218843104908720846C07940081A
:10BA20004000401CC8710846C07902218843801C30
:10BA30000949C8710846C079042188430649C8717C
:10BA400000202870002601E0024E361F3046B0E785
:10BA50008C20002008800000202700200146144888
:10BA60000078144A127890421DD011480078401C8A
:10BA70000F4A107010460078022801D10020107083
:10BA80000B48007880000C4A105808600B4A086880
:10BA900012688018094A1060104600680002000A07
:10BAA0001060012070470020086000BFFAE7000026
:10BAB000E0200020E1200020D8200020D420002019
:10BAC00010B50D48006808210840002810D10B4827
:10BAD0000068401C0949086000F08EFD002802D172
:10BAE000FEF72CFE06E00648007802F021FD01E09A
:10BAF00000F0B6FF10BD0000B8200020A8200020F4
:10BB00009C20002000B587B00B2000900020029000
:10BB1000092001902A48059000200690012029491B
:10BB2000C86329490098C8600198486102980128B3
:10BB300012D1039888600498086123484030C06A95
:10BB40000299884320494031C8620846C06A029978
:10BB500008431D494031C8621B49059848621A488C
:10BB60004030C06A06994900884317494031C8628D
:10BB70000846C06A06994900084313494031C86223
:10BB800004201149086001201049886008600020E5
:10BB90000F498860401E0F498860042048600220D9
:10BBA000012181400C4A116000BF0321FCF7C2FC57
:10BBB000022001218140094A116000BF07B000BD89
:10BBC00000E0D701C02F00400025004000200040C9
:10BBD000002100400023004080E200E000E100E09E
:10BBE00010B5024600200BE0135C074CE36100BF78
:10BBF000064BDB69012BFBD10023044CE361401CA5
:10BC00008842F1DB10BD000000250040002100400B
:10BC1000F0B50346002420E0134E306806689E42CB
:10BC200003D90668F61A06601BE006689B1B0668C7
:10BC30003419002606600C4E35680B4FC6693E600D
:10BC4000C668002E08D00E193602360A4660C6684D
:10BC500086601668C661156000BF0348006800284A
:10BC6000DAD100BFF0BD0000D020002030B504467E
:10BC70001088C01C984201D90C2030BD02201588C4
:10BC800048551088401C10800120158848551088A0
:10BC9000401C108015884C551088401C10800020D6
:10BCA000EBE7000010B50446002C02D0112C08D19F
:10BCB00000E00AE0064800680821084304490860DB
:10BCC00003E02046FDF7D0F900BF00BF10BD000023
:10BCD000B820002010B50C480068401C0A490860D4
:10BCE00003280DD009480078022804D007480078BE
:10BCF00002F01EFC07E00648007802F001FF02E0B7
:10BD00000D20FDF7B1F910BDAC2000209C200020D3
:10BD10009D20002010B50A480078012804D0022890
:10BD200008D0032809D102E002F088FE06E0FFF700
:10BD3000C7FE03E002F0D8FE00E000BF00BF10BD68
:10BD40009C20002070B50446204628DF0546FFF7FA
:10BD5000A9FF70BDF8B504460D4616463246294681
:10BD6000204629DF0746FFF79DFFF8BD10B50028E4
:10BD700023D0124B0022001F196803E0814203D830
:10BD80000A4649680029F9D1002A0AD01368841AA2
:10BD90009C4204D1006818181060104602E0506000
:10BDA00000E01860002907D002680B1A934203D103
:10BDB0000B68D21802604968416010BDA0210020C4
:10BDC0003EB500BF6846007801090901491C009191
:10BDD00068460078F02188431030009000BF0922A7
:10BDE00016A168467CDF044600BF2546002D06D01C
:10BDF00000BF002211462846FDF7F4F800BF00BF3F
:10BE0000002001900290502168468180A021C180CD
:10BE100000210181FF219131418101A87ADF04468F
:10BE200000BF2546002D06D000BF0022114628463F
:10BE3000FDF7D8F800BF00BF3EBD00006572696322
:10BE40005F64656D6F000000014600207047024688
:10BE5000002070470246002070470000F8B50546F4
:10BE600000270020009000266878242148433349A9
:10BE700040184068002827D068780C214843304992
:10BE80004018807A8021084080281DD168780C21D4
:10BE900048432B494018807A40210840402813D05D
:10BEA00068782421484325494018074608376878B0
:10BEB0002421484321494018808880B20090687846
:10BEC000242148431D490E5869780C2251431C4ACD
:10BED0008918088933463946009AA9DF04460B2C95
:10BEE0000BD1012669780C225143154A891808891B
:10BEF00033463946009AA9DF0446002C00D0114C85
:10BF0000012E18D169780C2251430D4A89180889ED
:10BF10000D4A0C21A7DF0446002C0CD00B488442AC
:10BF200008D0082C06D0801C844203D0112C01D0EC
:10BF3000002400E0034C2046F8BD0000F02600205D
:10BF40001427002041800000FFFF000002300000A5
:10BF500070B505460C466178242251430D4A881875
:10BF600038232422294601F0F9FC0646002E0FD181
:10BF7000607824214843074940184068401C002845
:10BF800006D10021607824225043024A8018416083
:10BF9000304670BDF0260020F3B589B00C4603276B
:10BFA0001A20089061780C2251432E4A891808897A
:10BFB0003B4608AA01A9AADF0646002E4FD16178A8
:10BFC00024225143284A89180846083069460A8CB9
:10BFD00001A9FCF707F9002812D160780C21484329
:10BFE00020494018807A02210840022837D0617821
:10BFF000242251431C4A88182421FCF7E8F82EE03B
:10C00000607824214843184940184068002801D02E
:10C01000164D00E0164D60782421484312490F5018
:10C020006946098C6078242250430F4A8018416089
:10C030006178242251430C4A891808460830694621
:10C040000A8C01A9FCF79CF8607824225043064A28
:10C050008118382324220998A847064600BF0020EB
:10C060000BB0F0BD14270020F0260020A5DC010055
:10C0700079DB010070B505462846FFF7EFFE044660
:10C08000002C02D100BF00BF0446204670BD70B531
:10C0900005460E4631462846FFF75AFF0446002C57
:10C0A00002D100BF00BF0446204670BD70B50546F2
:10C0B0000E4631462846FFF76FFF0446002C02D19A
:10C0C00000BF00BF0446204670BDF8B504460720F7
:10C0D00000F0D6FC0090009871DF054600BF2F46A7
:10C0E000002F06D000BF002211463846FCF77AFF29
:10C0F00000BF00BF0098461C062005E0411EC8B2E4
:10C10000315C0522121AA1540028F7DC0098FFF7D1
:10C110002DFE00200090F8BDF8B50446072000F081
:10C12000AFFC0546284671DF07466E1C062005E079
:10C13000411EC8B2315C0522121AA1540028F7DC56
:10C140002846FFF713FE0025227802A10020FCF705
:10C15000E1FAF8BD6D61633D30782578000000009C
:10C1600010B51848006808210840002826D100F0C2
:10C170007DFA00280CD0002013490860114800689F
:10C18000012108430F490860002002F0B9FC17E0C4
:10C1900000F032FA002806D000200B490860022087
:10C1A00002F0AEFC0CE009480068002803D0032030
:10C1B00002F0A6FC04E002F077FC01E002F084FC4F
:10C1C00010BD0000B8200020A0200020A4200020E6
:10C1D00030B595B005460C4600200D9000BF08A86C
:10C1E000007D01090901491C08A80175007DF021A5
:10C1F0008843103008A9087500BF217B08A8417545
:10C20000807D06218843811C08A881751C210EA809
:10C21000FBF7DDFF08A8007E10218843103008A935
:10C22000087600200F90119012900DA81390002016
:10C23000149000BF0121684681772049818300BFA7
:10C2400000200690617B68460176A17B4176807E66
:10C2500006218843811C68468176807E08218843B8
:10C26000014668468176807E1021884301466846F3
:10C270008176807E41084900491C684681761421F8
:10C2800008A8FBF7A4FF07A8089006A8099001AA30
:10C290000021284600F014F8014668460185002177
:10C2A00041851421818501A80C90E8882B4608332C
:10C2B00008AA0EA9A2DF15B030BD0000372A000081
:10C2C000F7B582B004461746002001900125607939
:10C2D000002803D004210198084301902220005D2A
:10C2E000002803D002210198084301900398FF28F9
:10C2F0000ADD01210198084301907919039802F0A1
:10C30000ABFE4019C5B205E00398C2B22846691CCD
:10C31000CDB23A544C20005B002803DD1021019877
:10C3200008430190002618E0A81C14280BD94C20C3
:10C33000005B801B4200700023462433C11818465E
:10C34000FBF71EFF0DE07919720023462433985A3B
:10C3500002F082FE4019C5B2761C4C20005BB04250
:10C36000E2DC00BF4C20005B801B81B24C200153FB
:10C3700001983870284605B0F0BD0246002070478D
:10C38000F0B58FB006460C4617461D466420009057
:10C390001C2107A8FBF71BFF6846007F0821884384
:10C3A000411868460177007F20218843411868467C
:10C3B0000177007F02218843801C694608770020AE
:10C3C00008900A900B900C900D9000BF012108A8D6
:10C3D00081766846068700BF00200190297868466C
:10C3E000017169784171807906218843811C684612
:10C3F000817180790821884301466846817180797E
:10C4000010218843014668468171807941084900BE
:10C4100068468171142102A8FBF7D9FE0EA802908C
:10C4200001A8039068460482002141828482069715
:10C430001599888802AA07A9149BA2DF0FB0F0BD46
:10C44000F8B529480078002800D1F8BD27480068D1
:10C45000002801D1012000E00020054624480068A2
:10C46000002801D1012000E00020064600BF002D79
:10C4700014D1684651DF0446052C01D101250CE09A
:10C48000002C06D000BF002211462046FCF7AAFD72
:10C4900003E0164900980968884700BF002E1AD1AA
:10C4A00014480088009069461348006861DF04461C
:10C4B000052C01D101260DE0002C06D000BF002282
:10C4C00011462046FCF78EFD04E00B480068084941
:10C4D0000968884700BF002D02D0002E00D000E080
:10C4E000C5E700BF00BFB0E7F0200020002100201A
:10C4F000FC200020F8200020F420002010B5044685
:10C50000204600F02DFE044909680840002801D0AB
:10C51000012010BD0020FCE7C020002070B50446BB
:10C52000204600F01DFE0546FCF7CAFE70BD000067
:10C5300001464888064A1288904206DB4888044A29
:10C540005288904201DC012070470020FCE7000087
:10C55000682000200C48008CC0B2012812D10A4883
:10C56000808C0007000F00280CD10748806AF0215A
:10C570000840402806D10448C06A0840002801D17C
:10C58000012070470020FCE7C00F00F01948008C24
:10C59000C0B201282CD11748808C0007000F00285A
:10C5A00026D11448806AF0210840002806D111489D
:10C5B000C06A0840002801D1012070470D48806AF8
:10C5C000F0210840102806D10A48C06A0840002817
:10C5D00001D10120F1E70748806AF02108403028A6
:10C5E00006D10448C06A0840002801D10120E4E7D0
:10C5F0000020E2E7C00F00F0F8B5124800781421DF
:10C6000048431049091D4518EF6801F05DF9009095
:10C610006988C919AA888918481E0099FBF786FD00
:10C62000064609480068B04207D307480068B04290
:10C6300005D106480068002801D1012400E000244B
:10C640002046F8BD8C270020A8200020A420002030
:10C6500010B50446204600F083FD8004800C0028BD
:10C6600001D0012010BD0020FCE70000F8B5104803
:10C670000078142148430E49091D4518EE6801F061
:10C6800023F9009069888919AA888918481E009999
:10C69000FBF74CFD074607480068002805D0064810
:10C6A0000068B84201D1012400E000242046F8BD12
:10C6B0008C270020A4200020A82000200146880705
:10C6C000800F002801D1012070470020FCE730B521
:10C6D00004461088C01C984201D90C2030BD0220AD
:10C6E000158848551088401C10801C201588485516
:10C6F0001088401C1080012C06D0022C08D0032C7E
:10C700000AD0042C10D10BE00020158848550DE00C
:10C7100001201588485509E002201588485505E094
:10C7200003201588485501E00720D7E700BF10888F
:10C73000401C10800020D1E7F8B521480068009027
:10C74000204806782EE0F0001F4909684418257833
:10C7500024E01820684361680F18681CC5B2A078EF
:10C76000A84200D100253878022802D0032812D12F
:10C7700003E0786802F0A2FA0EE007E010490868CA
:10C78000002101740E4AC169116000BF0C480068A5
:10C790000028F3D100E000BF00BF00BF6078A842CE
:10C7A000D7D100BF3046711ECEB20028CBD104488D
:10C7B00001680098814201D00120F8BD0020FCE70B
:10C7C000D0200020C8200020CC200020FEB5064646
:10C7D0003C48006801903C480078009063E0009875
:10C7E000C0003A490968451856E0002E02D0344688
:10C7F000E66924E02978182359436A685018297893
:10C80000491C29702978AA78914201D10021297008
:10C8100044680178012902D1217C002900D03BE045
:10C8200081686160C168A1600169E1604169A161DD
:10C8300027490978002901D00021616000BF2549FE
:10C8400060680968401A0002000A2349884208D239
:10C8500020496068096802F0A3F9A16840182060C7
:10C860000FE01C486168006802F09AF90746A0686A
:10C87000B84203D9A068C01B206001E000202060FE
:10C8800000BF00206060A060012020740020E061F3
:10C89000204602F0DDF900BF002EA6D12878697885
:10C8A0008842A2D100BF0098411EC9B20091002861
:10C8B00095D1044801680198814201D00120FEBD54
:10C8C0000020FCE7D0200020C8200020CC20002041
:10C8D000E9200020D4200020FFFF7F001FB55B4827
:10C8E000006801905948001D0068009000F03CFC71
:10C8F000044600BF2546002D06D000BF0022114689
:10C900002846FCF76FFB00BF00BF00F09DFA04460D
:10C9100000BF2546002D06D000BF00221146284644
:10C92000FCF760FB00BF00BF01A9052000F0B4FACE
:10C93000044602A800F05EFB044600BF2546002D19
:10C9400006D000BF002211462846FCF74BFB00BF73
:10C9500000BF052000F01AFB074603206946487017
:10C960003B4A012000F0F6F9044600BF2546002DA1
:10C9700006D000BF002211462846FCF733FB00BF5B
:10C9800000BF012000F074F906463A463146684679
:10C99000007A00F099FB044600BF2546002D06D022
:10C9A00000BF002211462846FCF71CFB00BF00BF59
:10C9B0006846007A00F0B4FB044600BF2546002D0F
:10C9C00006D000BF002211462846FCF70BFB00BF33
:10C9D00000BF052000F0E8FA0021012000F056F920
:10C9E000FBF7F8FDFFF78EF802F03CFAFDF7F0FADE
:10C9F0001848FFF76AFB0398FEF7A2FAFFF7E0F981
:10CA000001F02CFCFCF79EFAFEF726F8FCF72AFC56
:10CA10000320FCF7F5FE044600BF2546002D06D096
:10CA200000BF002211462846FCF7DCFA00BF00BF19
:10CA300000BF09480078012805D1084801F0F6F93F
:10CA400000200549087000F025FEF2E7B4F201006D
:10CA50007BC3010004200020222100207A2800202E
:10CA600010B5054800680821884303490860034859
:10CA7000007801F05DFD10BDB82000209C20002052
:10CA8000F0B50B30C108C900144F0026144A0FE05E
:10CA900003688B420BD38B4205D95C1A4318456857
:10CAA00030C3083B00E04368136002C004E0021D8D
:10CAB00010680028ECD13046002803D138680028DF
:10CAC00001D00020F0BD064A06481060064A121A3E
:10CAD000D208D20044C001203860D7E7A42100204A
:10CAE000A0210020B42C0020B0340020FFB581B07C
:10CAF00005460E461446A888871C2088801CC1194C
:10CB00000498814202D90C2005B0F0BDFE2F01D956
:10CB10000C20F9E7781C218870542088401C208064
:10CB2000FF20218870542088401C20802288911981
:10CB3000288802F088FA218840182080A8880028D8
:10CB40000EDDA868002801D10720DDE7AA88238828
:10CB50009819A968FBF714FB2088A9884018208041
:10CB60000020D1E7FFB583B005460F46144628786C
:10CB7000012805D16878002802D1072007B0F0BD50
:10CB80002088801C0699884209D82878012808D175
:10CB90002088801C697841180698814201D90C20B0
:10CBA000ECE721880698401A801E86B201962188FB
:10CBB000891CC81901A97DDF02900298002801D0C4
:10CBC0000298DBE72878022806D168468088B042C0
:10CBD00002DC092000900BE0082000902878012852
:10CBE00005D16878B04202DC6878019000E00196D7
:10CBF00068468088FE2801D90C20BFE768468088F7
:10CC0000401C218878542088401C2080218800986E
:10CC100078542088401C2080218868468088081825
:10CC200020800020AAE7014600207047024600202D
:10CC3000704702460020704770B504460D462946ED
:10CC40002046FBF7FFFB00BFE106C90E012088402C
:10CC50000549086000BF00BFE106C90E01208840F9
:10CC60000249086000BF70BD80E200E000E100E022
:10CC700070B504462046FDF7C3FC8000FF3001304C
:10CC800085B2284600F0C4FA70BD0000FEB5054626
:10CC90000E46284600F0DAFC002820D02846FDF792
:10CCA000AFFC001F28490F5CBC11032C0CD100BF46
:10CCB000264800690121A9400840002801D003202E
:10CCC00000E00220019005E0012C01D1022000E0EB
:10CCD000032001902846019900F067FA32E02846C7
:10CCE00000F0C0FC00282DD02846FDF789FC044642
:10CCF000A000FF30013080B201902046144951223B
:10CD0000120189188200895801221143104A5123C7
:10CD10001B01D2188300D15000BF019800F07EFAA9
:10CD2000002E0ED02846FDF76BFC0090FDF724FC8A
:10CD30000746002F04D00121A140084600F082FAE6
:10CD400000BF00BFFEBD000084270020000500508A
:10CD500000600040F7B584B004460E460020039002
:10CD6000204600F065FC002802D00820039060E017
:10CD7000F27820460699FDF707FC0546681C002856
:10CD800054D0B078002810D000BFA1002A4A8918DA
:10CD90000968022291430846052109070722120269
:10CDA0008918A200885000BF0BE07778002000901F
:10CDB0003B46024601460190204600F0E3F900BFE1
:10CDC00000BFF078002826D037781C48512109018F
:10CDD0004018A90040581A49084018495122120128
:10CDE0008918AA0088501548512109014018A90046
:10CDF000415820021F22120210403A0403231B0450
:10CE00001A40104301430D48512212018018AA0014
:10CE1000815000BF0CE0281F0A49085C3178890165
:10CE2000084342B2281F07490A5401E00420039036
:10CE300000BF039807B0F0BD00070050006000403D
:10CE4000FFE0FCFF8427002010B51248007900287D
:10CE500001D0082010BD002404E0204600F012FCA0
:10CE6000601CC4B2202CF8DB002404E02046FDF74F
:10CE700073FB601CC4B2082CF8DB03210620FFF70B
:10CE8000DBFE0120C00700F0DDF90121014801713E
:10CE90000020DFE784270020FEB504460E46002070
:10CEA0000290204636490956491C002901D001212B
:10CEB00000E00021002902D0082002905DE0B07857
:10CEC00000283AD0012200212046FDF75DFB0546EF
:10CED000681C00282ED03778727801922948512199
:10CEE00009014018A9004058274908402549512206
:10CEF00012018918AA0088502248512109014018BE
:10CF0000A900415820021F22120210403A040323B4
:10CF10001B041A401043019A120501231B051A40F5
:10CF2000104301431748512212018018AA00815072
:10CF300000BF01E00420029006E000BF0121C943C8
:10CF40000F48015500BF00BF0298002815D1707826
:10CF5000012803D1204600F053F902E0204600F0FA
:10CF600047F900BF002000900346012211460190BE
:10CF7000204600F007F900BF00BF0298FEBD000088
:10CF80006427002000600040FFE0ECFF70B505461C
:10CF90002846FDF735FB8006040E2046014941185E
:10CFA000084670BD0060004030B501460E4A50563C
:10CFB00083000E4C1B191B69032423431A461F23AD
:10CFC0001B0213430A4C51252D016419850063513E
:10CFD00000BF00BF00BF064B512424011B19840071
:10CFE0001A5100BF30BD00006427002000650040DA
:10CFF00000600040F1B584B0002504200390304D5E
:10D00000002457E000200290FDF7E4FD0190019814
:10D01000012813D002A836DF0646022E01D172B6CF
:10D020000BE000BF3746002F06D000BF002211469C
:10D030003846FBF7D7FF00BF00BF00BF204600F017
:10D040008FF82840002812D02046FFF757FA002812
:10D050000DD100BF204600F083F81A490968084343
:10D060001849086000BF04980470002003900198DC
:10D07000012813D062B66846007A37DF0646022ED2
:10D080000BD000BF3746002F06D000BF002211464C
:10D090003846FBF7A7FF00BF00BF00BF039800287A
:10D0A00000D109E0204600F05BF8294681430D4697
:10D0B000601CC4B2002DA5D100BF039805B0F0BD1F
:10D0C000FF3F0000C020002070B506460C46154604
:10D0D000002C01D0002D01D10E2070BD3046FFF78D
:10D0E000B7FA002801D10720F7E73046FFF706FA24
:10D0F000002801D10820F0E700BF084851210901AC
:10D100004018F10044500548512109014018F10030
:10D110004018456000BF0020DFE7000000F001403C
:10D1200010B504462046FFF7F9F9002801D1072081
:10D1300010BD2046FFF78CFA002806D02046FFF7E6
:10D14000DDF9002801D10820F2E700BF0120A0404E
:10D150000249486000BF0020EAE7000000F50140F6
:10D16000014601208840704705490978002904D10B
:10D170000121034A1170002000E085207047000063
:10D18000BC200020F0B5059C55000D439E003543A2
:10D1900026023543069E3604354305263607072703
:10D1A0003F02F6198700F551F0BD10B505221207B0
:10D1B00007231B02D2188300D25803231B049A436F
:10D1C00005231B07072424021B1984001A5105227A
:10D1D000120707231B02D2188300D2580B041A43EC
:10D1E00005231B07072424021B1984001A5110BDB4
:10D1F00001218140014AD1607047000000050050C4
:10D2000001218140014A91607047000000050050F3
:10D2100001460148081870470060004010B50446F8
:10D220002046FFF7F5FF0021016010BD10B5044650
:10D230002046FFF7EDFF0068012800D110BD002057
:10D24000FCE70000014948607047000000630040AF
:10D2500070B506460C46154629462046FEF7C0FC2A
:10D2600070BD70B50546002D12D0032D13D10220DC
:10D27000FDF740F9044600BF2646002E06D000BF49
:10D28000002211463046FBF7ADFE00BF00BF03E0B1
:10D2900001F01EF900E000BF00BF70BD70B505468B
:10D2A0002888102802D0112819D113E00720FDF793
:10D2B00021F9044600BF2646002E06D000BF0022FA
:10D2C00011463046FBF78EFE00BF00BFA888054917
:10D2D000088005E00020C0430249088000E000BF4C
:10D2E00000BF70BD0220002070B5054628780028D8
:10D2F00010D13B210848008876DF044600BF26464F
:10D30000002E06D000BF002211463046FBF76AFE11
:10D3100000BF00BF70BD00000220002010B5044611
:10D320000822A11D0248FAF72BFFFDF7C9FB10BD2B
:10D330007420002010B50446A088094908800822FE
:10D34000214616310748FAF71BFF002006490870EE
:10D350000648C089002801D1FDF7B2FB10BD0000CE
:10D36000722000207420002070200020B8250020AA
:10D370008A88428270478A88028470478A888282BB
:10D3800070478A884282704770B505460020C043C6
:10D390000A49088000200A4908700A480068FBF71B
:10D3A0001DFF0446002C07D007488069002803D0E1
:10D3B000054881692046884770BD00007220002022
:10D3C00070200020CCF20100B82500200022D243BA
:10D3D000428270470022D243028470470022D24327
:10D3E000828270470022D2434282704738B5054698
:10D3F0000C46208B022817D12868002814D000BFC3
:10D4000000BFA17EE27E120211430846C107C90F88
:10D41000002902D00020009001E001200090694620
:10D4200028462A68904700BF38BD000070B5054601
:10D43000AC1D20881249C989884220D1208B02283E
:10D440001DD100BF00BFA17EE27E1202114308463B
:10D45000C107C90F002902D0FDF732FB0FE00948D0
:10D460000068FBF7BBFE0646002E07D00448806923
:10D47000002803D0024881693046884700BF70BD4C
:10D48000B8250020CCF20100F8B504460E46207DF8
:10D49000002820D0B51D2988608981421AD1288BA7
:10D4A000022817D12068002814D000BF00BFA97E31
:10D4B000EA7E120211430846C107C90F002902D0B3
:10D4C0000020009001E0012000906946204622687B
:10D4D000904700BF00BFF8BD70B504460D46AE1DB5
:10D4E0003188A089814203D131462046FFF77EFF73
:10D4F00070BD70B504460E46B51D2988208A81424C
:10D5000013D1288B022810D100BF00BFA97EEA7E6C
:10D51000120211430846C107C90F002902D0012099
:10D52000A0750FE00020A0750CE02888A188884233
:10D5300008D1A069002805D02A8B29461A31204637
:10D54000A369984770BD0000F8B504460E46207DDB
:10D55000002825D0B51D2A8B12A10020FBF7DAF890
:10D560002988608981421AD1288B022817D1206826
:10D57000002814D000BF00BFA97EEA7E120211432A
:10D580000846C107C90F002902D00020009001E021
:10D5900001200090694620462268904700BF00BFE6
:10D5A000F8BD00006F6E5F77726974653A6C656EE6
:10D5B0003D25640D0A0000000246002105E0505C94
:10D5C000002801D001207047491C0629F7D300200C
:10D5D000F9E7000010B504461C216143124A89187E
:10D5E000084611300621FAF7F2FD1C2161430E4A6C
:10D5F00088181021FAF7EBFDFF211C2060430A4A2E
:10D60000801801741C206043801881760021C94372
:10D610001C20604380180183204601F02BFD002070
:10D62000A100024A505010BD10260020F425002011
:10D63000014605484056C017401C002801D0012073
:10D6400070470020FCE700006427002001460448E2
:10D650004056042801DB012070470020FCE7000051
:10D6600064270020014606484056002805DB044890
:10D670004056042801DA012070470020FCE7000032
:10D68000642700200022D24301490A547047000059
:10D690006427002070B548DF044600BF2546002DF2
:10D6A00006D000BF002211462846FBF79BFC00BFB6
:10D6B00000BF70BD014600BF08480068042210404A
:10D6C000002801D10820704700BF002901D10E2099
:10D6D000F9E70348407808600020F4E7B82000200C
:10D6E0008C2700203CB5034600BF25480068042471
:10D6F0002040002801D108203CBD00BF002B01D1F3
:10D700000E20F9E7002A01D10E20F5E7186802285B
:10D7100006D20C24186860431A4C2058002801D106
:10D720000720E9E75C68186801940090019C0C25CB
:10D7300018686843134D4019008948432018019028
:10D740000C24009860432C46001940890C25009C4D
:10D750006C430C4D6419248960430C25009C6C4378
:10D76000084D641964680019019CA04201D8072083
:10D77000C2E7019C0098546010600020BCE70000E4
:10D78000B820002058280020FEB504460D4600BFF2
:10D790004148006804210840002801D10820FEBD4E
:10D7A00000BF002C01D10E20F9E72068022806D224
:10D7B0000C212068484339490858002801D1072026
:10D7C000EDE70C21206848433449401840890C2279
:10D7D00021685143314A8918098948430C2221683C
:10D7E00051432E4A8918496840186168884201D817
:10D7F0000720D4E76068FEF761FF002801D1102000
:10D80000CDE70C2320685843244BC0186268406859
:10D81000101A00900C22206850431A468018018983
:10D820000098FAF783FC002901D00720B7E70C2203
:10D8300020685043194A801801892846FAF78CFC61
:10D84000002901D1002D01D10720A8E70C21206873
:10D8500048431249401806890C22216851430F4A57
:10D86000891849894E43606847190C21206848434C
:10D87000114640184068801901900198874201D9EB
:10D8800007208CE700202B4602462146009003200B
:10D89000FCF7B4FF83E70000B820002058280020E0
:10D8A00070B508484469601C002807D000F00CF8E7
:10D8B000054629462046FAF739FC70BD01200007CD
:10D8C0004069FAE70010001001200007006980B2EB
:10D8D0007047000010B5FCF7D3FF002017490880FF
:10D8E000FFF7DEFFC41EFFF7EFFF44431448046058
:10D8F00000201449086000BF0DE000220C214143C4
:10D90000114B5A500C214143C9180A810C21414343
:10D91000C9184A81401C0228EFD300200B49087027
:10D920000B4908600B4908600B490860094800680A
:10D930000421084307490860002010BD94200020FE
:10D9400098200020A8200020582800209C2000209B
:10D95000AC200020B8200020B0200020FFB581B00E
:10D960000C4615461E4600BF394800680421084091
:10D97000002802D1082005B0F0BD00BF002C01D165
:10D980000E20F8E70198002801D10E20F3E7206867
:10D99000022806D20C21206848432E490858002846
:10D9A00001D10720E7E70C212068484329494018A6
:10D9B00040890C2221685143264A89180989484325
:10D9C0000C2221685143234A89184968401861682C
:10D9D000884201D80720CEE7002D07D00C2120680F
:10D9E00048431C4940180089A84201DA0720C2E7D1
:10D9F000A9190C2220685043164A801800898142D8
:10DA000001DD0720B7E70198FEF758FE002809D08E
:10DA10003046FEF753FE002804D06068FEF74EFE45
:10DA2000002801D11020A6E7606881192A460198D4
:10DA3000FAF7A6FB00950C212068484305490F58CA
:10DA4000002202212046019BB847002093E70000F6
:10DA5000B820002058280020F8B504460D4600BF25
:10DA60004148006804210840002801D10820F8BD81
:10DA700000BF002C01D10E20F9E7002D01D10E20AE
:10DA8000F5E72068002801D10E20F0E7FFF71CFF22
:10DA9000A188884202DBA088102801DA0720E6E787
:10DAA000E08800280DD0FFF7FBFE471EFFF70CFFB4
:10DAB0004743E088A18848432C49096840188742B9
:10DAC00001D20720D3E720798007800F002801D0FA
:10DAD0000720CCE726480088022801D10420C6E7A9
