:020000040800F2
:10800000A0460020658200086D8200086F8200088B
:108010007182000873820008758200080000000069
:10802000000000000000000000000000A98100081E
:108030007982000800000000FD81000829BC0008CA
:108040007F8200087F8200087F8200087F8200080C
:108050007F8200087F820008998400087F820008E0
:108060007F8200087F8200087F8200087F820008EC
:108070007F8200087F8200087F8200087F820008DC
:108080007F8200087F820008118300080000000042
:108090000000000000000000000000007F820008D7
:1080A0007F8200087F8200087F8200087F820008AC
:1080B0007F8200087F8200087F8200087F8200089C
:1080C0007F8200087F8200087F8200087F8200088C
:1080D0007F8200087F82000831C500080000000090
:1080E000A3840008D1B600087F82000800000000C9
:1080F0000000000000000000000000007F82000877
:10810000000000007F8200087F8200087F82000854
:10811000000000000000000000000000000000005F
:108120007F8200087F8200087F8200087F8200082B
:108130007F82000800000000000000000000000036
:108140000000000000000000000000007F82000826
:108150007F8200087F8200087F8200087F820008FB
:108160007F8200087F8200080000000000000000FD
:1081700000000000000000000000000000000000FF
:10818000000000007F8200080000000000000000E6
:108190007F820008DFF80CD000F0A8F80048004704
:1081A000C1CA0008A04600202B4B19680868B0E837
:1081B000F04F80F30988BFF36F8F4FF0000080F31A
:1081C000118870470000000006480068006880F3CE
:1081D000088862B661B6BFF34F8FBFF36F8F00DFC1
:1081E00000BF00BF08ED00E0DFF80C00016841F4BB
:1081F00070010160704700BF88ED00E0EFF3098077
:10820000BFF36F8F144B1A681EF0100F08BF20EDDC
:10821000108A20E9F04F106008B44FF0500080F34E
:108220001188BFF34F8FBFF36F8F05F021FE4FF022
:10823000000080F3118808BC19680868B0E8F04FA6
:108240001EF0100F08BFB0EC108A80F30988BFF34E
:108250006F8F704700BF00BFC0000020EFF30580A4
:10826000704700000648804706480047FEE7FEE7E3
:10827000FEE7FEE7FEE7FEE7FEE7FEE7FEE7FEE7D6
:10828000E9BC00089581000810B5431A934209D251
:108290008318881803E010F8011D03F8011D521E11
:1082A000F9D210BD40EA01039B0703D009E008C9D9
:1082B000121F08C0042AFAD203E011F8013B00F8AB
:1082C000013B521EF9D210BDD2B201E000F8012BE1
:1082D000491EFBD270470022F6E710B513460A4646
:1082E00004461946FFF7F0FF204610BD064C074D27
:1082F00006E0E06840F0010394E807009847103476
:10830000AC42F6D3FFF74AFF44F0000864F00008DF
:1083100010B5024800F0BBF910BD00005801002064
:108320005A49096821F44031594AC2F804131146E8
:10833000D1F8041342681143544A11600168496836
:1083400021F480710268516001684A68016942EA5B
:108350000121026851600168496821F0407102689A
:108360005160016849688268114302685160016880
:10837000896821F400610268916001688968C268B7
:10838000114302689160434A816A914218D00168A2
:10839000896821F070610268916001688968826A69
:1083A0001143026891600168896821F040510268B8
:1083B000916001688968C26A1143026891600BE0AC
:1083C0000168896821F070610268916001688968BC
:1083D00021F04051026891600168896821F0020132
:1083E0000268916001688A68816942EA4101026815
:1083F0009160016AD1B10168496841F40061026885
:1084000051600168496821F4604102685160016867
:108410004A68416A491E4FF4604393FAA3F3B3FAE2
:1084200083F399400A4301684A6005E0016849689E
:1084300021F40061026851600168C96A21F4700189
:108440000268D1620168CA6A818B491E42EA015101
:108450000268D1620168896821F400710268916044
:1084600001688A68016B42EA4121026891600168F3
:10847000896821F480610268916001688A684169B5
:1084800042EA8121026891607047000004230140A4
:10849000002001400100000F10B5012000F05AFA41
:1084A00010BD10B54FF4806000F054FA4FF4006036
:1084B00000F050FA4FF4805000F04CFA10BD00006C
:1084C00010B50446224602A1002003F02DFA10BD8B
:1084D0006572726F723A25730D0A000070470000D2
:1084E00018B502460020009000BF92F83C00012819
:1084F00001D1022018BD012082F83C0000BF0868AD
:10850000092816D91068C0680B780A3B03EB4304AE
:108510000723A34098431368D8600B780A3B03EB0A
:108520004303886898401368DB6818431368D86071
:1085300013E0106800690B7803EB43040723A340A2
:108540009843136818610B7803EB430388689840DD
:1085500013681B691843136818614868072817D205
:108560001068406B0B795B1E03EB83041F23A34051
:10857000984313685863088880B20B795B1E03EB3D
:108580008303984013685B6B18431368586331E0AA
:1085900048680D2817D21068006B0B79DB1F03EBBE
:1085A00083041F23A340984313681863088880B28C
:1085B0000B79DB1F03EB8303984013681B6B184395
:1085C0001368186316E01068C06A0B790D3B03EB63
:1085D00083041F23A34098431368D862088880B29D
:1085E0000B790D3B03EB830398401368DB6A184358
:1085F0001368D8621B4B1068984208D1086812288B
:1086000005D11948006840F48000C3F80403154BF5
:10861000106898421ED10868102802D008681128F6
:1086200018D11148006840F400000F4B186008682A
:1086300010280FD10D4800680D4BB0FBF3F000EB94
:1086400080004000009002E00098401E00900098DA
:108650000028F9D100BF002082F83C0000BF00BF15
:1086600048E700000020014004230140AC00002046
:1086700040420F0070B50446204600F004F805465D
:10868000002570BD704701460868C06C704770B522
:1086900004460025002620680068C0F340052068D5
:1086A0004068C0F3401695B38EB3206C00F0100004
:1086B00018B9206C40F4007020642068806800F0D5
:1086C0004050E8B9A069D8B92068C06A00F47000C9
:1086D00020B12068806800F4806088B92068406814
:1086E00020F0200021684860206C20F48070206415
:1086F000206C00F4805018B9206C40F00100206418
:108700002046FFF7B7FF6FF012002168086020686D
:108710000068C0F3800520684068C0F3C016E5B368
:10872000DEB3206C00F0100018B9206C40F400504B
:1087300020642068806800F4401038BB2068806B9B
:1087400000F4401020B12068806800F48060E8B92F
:108750002068406800F48060C0B92068806800F03C
:10876000405098B9A06988B92068406820F080001E
:1087700021684860206C20F480502064206C00F454
:10878000807018B9206C40F0010020642046FFF78B
:10879000A5FE6FF00C00216808602068006800F0FA
:1087A000010520684068C0F3801685B17EB120685D
:1087B000006800F0010050B1206C40F4803020646B
:1087C000204600F053F86FF001002168086020682F
:1087D0000068C0F3401520684068C0F380667DB132
:1087E00076B1606C40F0020060646FF02000216898
:1087F00008602046FFF746FF6FF020002168086000
:1088000070BD000070B5044600250CB9012070BD94
:108810001549A06A884200D000BF206C30B9002002
:10882000606484F83C00204600F022F8206C00F0E0
:10883000100088B9206C20F4885040F002002064B9
:108840002046FFF76DFD00206064206C20F00200E0
:1088500040F00100206400E0012500BF002084F802
:108860003C0000BF2846D2E70100000F704700001F
:1088700010B586B0044614492068884221D100BF53
:10888000002000901148006840F480700F49086093
:108890000846006800F48070009000BF00BF01200F
:1088A0000190032002900020039001A9084800F0E5
:1088B0005FF800220521122000F077FC122000F062
:1088C00067FC06B010BD00000020014044380240A3
:1088D0000000024010B504461148007800B910BDF0
:1088E000B4F5006F05D102F009FC0EA002F03EFBCA
:1088F00014E0B4F5805F05D102F046FB0FA002F052
:1089000035FB0BE0012C03D1012004F0B1FE05E0A2
:10891000B4F5806F02D1022004F0AAFE00BFDEE7AA
:1089200018000020672D73656E736F7220696E7476
:10893000657272757074203131210000672D736586
:108940006E736F7220696E74657272757074203107
:108950003221000010B5044604480068204020B1D0
:10896000024804602046FFF7B5FF10BD143C0140EB
:10897000F8B503460A460025002400200021CDE07A
:10898000012606FA01F5166806EA0504AC4273D121
:108990005668022E02D05668122E13D1CF0803F16A
:1089A000200656F827004E07F70E0F26BE40B043AC
:1089B0004F07FF0E1669BE403043CF0803F1200673
:1089C00046F8270018684F000326BE40B0431679CA
:1089D00006F003064F00BE40304318605668012E73
:1089E00008D05668022E05D05668112E02D056685F
:1089F000122E13D198684F000326BE40B0434F009B
:108A0000D668BE4030439860586801268E40B04317
:108A10001679C6F300168E4030435860D8684F0070
:108A20000326BE40B0434F009668BE403043D86036
:108A3000566806F08056B6F1805F6ED100BF002602
:108A40000096384E366846F48046364F3E603E46C5
:108A5000366806F48046009600BF00BF324E8F088D
:108A600056F827008E07370F0F26BE40B0432F4E13
:108A7000B34202D1002615E04FE02D4EB34201D1A2
:108A800001260FE02B4EB34201D102260AE02A4E06
:108A9000B34201D1032605E0284EB34201D104269A
:108AA00000E005268F073F0FBE4030431E4E8F0863
:108AB00046F82700224E3068A043566806F48036F8
:108AC000B6F5803F00D120431D4E3060361D306822
:108AD000A043566806F40036B6F5003F00D12043A7
:108AE000174E361D3060361D3068A043566806F4B8
:108AF0008016B6F5801F00D12043114E0836306035
:108B0000361D3068A043566806F40016B6F5001FFF
:108B100000D120430A4E0C363060491C1029FFF466
:108B20002FAFF8BD44380240083801400000024031
:108B30000004024000080240000C02400010024005
:108B4000003C01400AB1816101E00B048361704780
:108B50000148006870470000A80000200146086C2A
:108B60007047000070B50446002600250CB90120AE
:108B700070BD94F83D0028B9002084F83C002046E0
:108B800000F064FA242084F83D002068006820F09A
:108B900001002168086000F01FFD05463948B5FB5B
:108BA000F0F62068466038496068884201D8701C39
:108BB00007E04FF4967070434FF47A71B0FBF1F018
:108BC000401C216808623049606888420ED860689D
:108BD0004000B5FBF0F0C0F30B00042801D20420E4
:108BE0002DE060684000B5FBF0F028E0A06828B9EF
:108BF000606800EB4000B5FBF0F008E0606800EB57
:108C0000C00101EB0010B5FBF0F040F48040C0F370
:108C10000B0008B9012012E0A06828B9606800EBD9
:108C20004000B5FBF0F008E0606800EBC00101EB2C
:108C30000010B5FBF0F040F4804040F400402168A3
:108C4000C861D4E90701084321680860D4E903102A
:108C5000084321688860D4E9050108432168C86099
:108C60002068006840F0010021680860002020644E
:108C7000202084F83D000020206384F83E0000BFDF
:108C800076E7000040420F00A08601002DE9F8437E
:108C90000446884615461E46089F94F83D00202845
:108CA0007ED142F2107301229349204602F02BF844
:108CB00010B10220BDE8F88300BF94F83C00012801
:108CC00001D10220F6E7012084F83C0000BF2068B3
:108CD000006820F4006021680860222084F83D00CC
:108CE000102084F83E00002020648448E0623A4668
:108CF0004146204601F0E8FE80B1206C042806D1F0
:108D000000BF002084F83C0000BF0120D2E700BF74
:108D1000002084F83C0000BF0320CBE78EB900BFE1
:108D200000200090206840690090206880690090D1
:108D300000BF00BF2068006840F400702168086030
:108D400045E0012E17D12068006820F4806021687A
:108D5000086000BF002000902068406900902068F3
:108D60008069009000BF00BF2068006840F4007078
:108D7000216808602BE0022E18D12068006820F4DA
:108D80008060216808602068006840F40060216805
:108D9000086000BF0020009020684069009000E05B
:108DA000A7E020688069009000BF10E0206800689C
:108DB00040F480602168086000BF002000902068B7
:108DC0004069009020688069009000BF00BF82E089
:108DD000032E63D8012E12D13946204602F05FF8E7
:108DE00030B1206C202801D1032063E7012061E726
:108DF0002068006905F8010B701E86B26BE0022E38
:108E00001BD13B4600223E49204601F07CFF08B1C1
:108E100003204FE72068006840F400702168086074
:108E20002068006905F8010B701E86B22068006991
:108E300005F8010B701E86B24DE03B46002230491A
:108E4000204601F060FF08B1032033E72068006886
:108E500020F48060216808602068006905F8010B33
:108E6000701E86B23B4600222549204601F04BFF8A
:108E700008B103201EE72068006840F400702168F4
:108E800008602068006905F8010B701E86B2206832
:108E9000006905F8010B701E86B21CE039462046B9
:108EA00001F0FDFF30B1206C202801D1032001E743
:108EB0000120FFE62068006905F8010B701E86B2EC
:108EC00020684069C0F3800028B12068006905F877
:108ED000010B701E86B2002E7FF47AAF202084F83A
:108EE0003D00002084F83E0000BF84F83C0000BF35
:108EF000E0E60220DEE60000020010000000FFFFB6
:108F0000040001002DE9F8430446884615461E4634
:108F1000089F94F83D0020287CD142F21073012272
:108F20004849204601F0EFFE10B10220BDE8F88369
:108F300000BF94F83C00012801D10220F6E701208F
:108F400084F83C0000BF2068006820F400602168BD
:108F50000860212084F83D00102084F83E000020A5
:108F600020643948E0623A464146204601F044FE1A
:108F700080B1206C042806D100BF002084F83C009A
:108F800000BF0120D2E700BF002084F83C0000BFF2
:108F90000320CBE700BF00200090206840690090CC
:108FA00020688069009000BF00BF36E03946204647
:108FB00001F0AFFF60B1206C042807D12068006881
:108FC00040F40070216808600120AFE70320ADE79E
:108FD00015F8010B21680861701E86B2206840698F
:108FE000C0F3800030B12EB115F8010B2168086183
:108FF000701E86B23946204601F058FE68B1206CDA
:10900000042808D12068006840F4007021680860D6
:1090100001208BE714E0032088E7002EC6D12068EA
:10902000006840F4007021680860202084F83D004A
:10903000002084F83E0000BF84F83C0000BF75E7C4
:10904000022073E7020010000000FFFF10B586B099
:1090500004462A49206888421ED14FF4407001908E
:109060001220029001200390032004900420059018
:1090700001A92348FFF77CFC00BF00200090214895
:10908000006840F400101F4908600846006800F4BA
:109090000010009000BF2FE01B49206888422BD1B0
:1090A00000150190122002900120039003200490EB
:1090B0000420059001A91248FFF75AFC08200190EE
:1090C00012200290012003900320049009200590B3
:1090D00001A90B48FFF74CFC00BF00200090094895
:1090E000006840F48000074908600846006800F402
:1090F0008000009000BF00BF06B010BD00540040CB
:109100000004024040380240005800400248006815
:10911000401C014908607047A800002010B50D48A8
:10912000006840F400700B4908600846006840F48D
:10913000806008600846006840F480700860032082
:1091400000F072F80F2000F007F800F017F8002088
:1091500010BD0000003C024070B5044600F020FA4B
:109160004FF47A71B0FBF1F5284601F00BF90022BB
:109170002146501E00F019F8002070BD10B50320E4
:1091800000F052F800220F21501E00F00EF810BD22
:1091900000BF00F01F02012191404209920002F13C
:1091A000E022C2F8001100BF70472DE9F05F804651
:1091B0000D461646002702F047FA074639462A466A
:1091C000334601F00700C0F1070ABAF1040F02D9D3
:1091D0004FF0040A01E0C0F1070AD14600F1040A89
:1091E000BAF1070F02D24FF0000A01E0A0F1030A22
:1091F000D4464FF0010A0AFA09FAAAF1010A0AEA6A
:10920000020A0AFA0CFA4FF0010B0BFA0CFBABF155
:10921000010B0BEA030B4AEA0B042146404602F01D
:109220001BFABDE8F09F000000BF00F00702064BEC
:1092300019684FF6FF031940044B0B4343EA022120
:10924000014B196000BF70470CED00E00000FA050B
:10925000F8B5044600250026207800F0010070B320
:10926000002061498866FFF773FC054606E0FFF7BA
:109270006FFC401B022801D90320F8BD5B48006841
:10928000C0F3C0600028F2D147F6C07191FAA1F195
:10929000B1FA81F1606888404FF0E04292FAA2F2A0
:1092A000B2FA82F2A16891400843504984310860C3
:1092B00001204D498866FFF74BFC054607E00CE0AE
:1092C000FFF746FC401B022801D90320D5E7474899
:1092D0000068C0F3C0600028F2D0207800F00200DF
:1092E00002287FD100BF0020009040484030006835
:1092F00040F080503D49403108600846006800F069
:109300008050009000BF00BF3948006840F4807072
:1093100037490860FFF71CFC054606E0FFF718FC1C
:10932000401B022801D90320A7E73148006800F458
:1093300080700028F2D02D487030006800F4407032
:10934000A18901F4407188424CD0284870300068EF
:1093500020F4407601202749086000200860234857
:109360007030066006F0020098B1FFF7F1FB054689
:1093700008E0FFF7EDFB401B41F28831884201D93C
:1093800003207AE7194870300068C0F340000028D5
:10939000EFD000BFA08900F44070B0F5407F0CD141
:1093A00012480830006820F4F810134AE1681140B0
:1093B00008430E490831086007E00C48083000688F
:1093C00020F4F81009490831086008487030006836
:1093D000A189C1F30B01084304497031086000E022
:1093E00000E000BF002048E700004742003802408C
:1093F00000700040400E4742FFFCFF0F70B504466E
:109400000D4600266448006800F00F00A84209D20B
:1094100061490D700846006800F00F00A84201D0B5
:10942000012070BD207800F00200022807D15B48BF
:10943000006820F0F000A1680843584908602078CF
:1094400000F00100002877D06068012807D1534858
:1094500008380068C0F34040B8B90120E1E760680F
:10946000022802D06068032807D14C4808380068F9
:10947000C0F3406048B90120D3E748480838006885
:10948000C0F3400008B90120CBE74448006820F051
:1094900003006168084341490860FFF759FB06462D
:1094A0006068012810D108E0FFF752FB801B41F2F1
:1094B0008831884201D90320B3E73848006800F0BA
:1094C0000C000428F0D137E06068022810D108E0D1
:1094D000FFF73EFB801B41F28831884201D903200F
:1094E0009FE72E48006800F00C000828F0D123E028
:1094F0006068032810D108E0FFF72AFB801B41F2C7
:109500008831884201D903208BE72448006800F0A5
:109510000C000328F0D10FE008E0FFF719FB801BD7
:1095200041F28831884201D903207AE71B4800685C
:1095300000F00C000028F0D11748006800F00F0080
:10954000A84209D914490D700846006800F00F00C0
:10955000A84201D0012064E7207800F0040004282C
:1095600007D10E48006820F4E050E16808430B4939
:109570000860207800F00800082808D10748006833
:1095800020F46040216940EAC100044908600F20CE
:10959000FFF7E2FD002044E7003C024008380240AB
:1095A00010B500F045F80949096801F0F001F02212
:1095B00092FAA2F2B2FA82F2D140054A515CC84056
:1095C000044908600846006810BD000008380240E1
:1095D000E8EF0008AC00002010B5FFF7E1FF0749F5
:1095E000096801F4E0514FF4E05292FAA2F2B2FAA3
:1095F00082F2D140024A515CC84010BD0838024096
:10960000E8EF000810B5FFF7CBFF0749096801F440
:1096100060414FF4604292FAA2F2B2FA82F2D14073
:10962000024A515CC84010BD08380240E8EF00080B
:1096300070B50021002200230020274C246804F08C
:109640000C0424B1042C04D0082C41D103E023489D
:1096500040E023483EE0204C241F246804F03F01F2
:109660001D4C241F246804F4800484B11C4CB4FBFA
:10967000F1F5194C241F246847F6C076344096FA59
:10968000A6F6B6FA86F6F44005FB04F20FE0134C9A
:10969000B4FBF1F5104C241F246847F6C076344023
:1096A00096FAA6F6B6FA86F6F44005FB04F20A4CE2
:1096B000241F246804F440344FF4403595FAA5F58E
:1096C000B5FA85F5EC40641C6300B2FBF3F001E0F1
:1096D000024800BF00BF70BD083802400024F400FB
:1096E00040787D0138B504460025207800F001005F
:1096F000002848D0DE48006800F00C0004280DD097
:10970000DB48006800F00C00082811D1D848001F81
:10971000006800F48000B0F5800F09D1D448083803
:109720000068C0F3404070B3606860BB012038BD82
:109730002079CF49891F0870606890B1FFF708FA57
:10974000054606E0FFF704FA401B642801D9032010
:10975000EDE7C74808380068C0F340400028F1D062
:1097600011E0FFF7F5F9054606E0FFF7F1F9401BB8
:10977000642801D90320DAE7BD4808380068C0F33F
:1097800040400028F1D1207800F00200022869D181
:10979000B748006800F00C0058B1B548006800F008
:1097A0000C00082821D1B248001F006800F4800096
:1097B000D8B9AF4808380068C0F3400020B1E0686D
:1097C000012801D00120B2E7A9480838006820F03C
:1097D000F800F82292FAA2F2B2FA82F221699140DC
:1097E0000843A349083908603CE0E06828B3012039
:1097F000A0490860FFF7ACF9054606E0FFF7A8F9B5
:10980000401B022801D9032091E7994808380068D5
:10981000C0F340000028F1D095480838006820F0D7
:10982000F800F82292FAA2F2B2FA82F2216991408B
:1098300008438F490839086014E000208D4908600A
:10984000FFF786F9054606E0FFF782F9401B02287C
:1098500001D903206BE7864808380068C0F3400050
:109860000028F1D1207800F0080008282CD1606988
:10987000A8B1012080490860FFF76AF9054606E0B3
:10988000FFF766F9401B022801D903204FE778480B
:109890006C300068C0F340000028F1D014E00020D4
:1098A00075490860FFF754F9054606E0FFF750F9DF
:1098B000401B022801D9032039E76D486C3000684D
:1098C000C0F340000028F1D1207800F00400042803
:1098D00057D100BF0020009065483830006840F044
:1098E00080506349383108600846006800F08050B5
:1098F000009000BF00BF6148006840F480705F497D
:109900000860FFF725F9054606E0FFF721F9401B3F
:10991000022801D903200AE75848006800F4807043
:109920000028F2D0207A524968310870A068A0B1AE
:10993000FFF70EF9054608E0FFF70AF9401B41F270
:109940008831884201D90320F1E64948683000682F
:10995000C0F340000028EFD013E0FFF7F9F8054608
:1099600008E0FFF7F5F8401B41F28831884201D941
:109970000320DCE63E4868300068C0F34000002861
:10998000EFD1A069F0B33A48006800F00C00082855
:1099900069D0A069022850D1002036490866FFF737
:1099A000D7F8054606E0FFF7D3F8401B022801D997
:1099B0000320BCE62E4808380068C0F34060002849
:1099C000F1D1D4E90701084347F6C07292FAA2F236
:1099D000B2FA82F2616A914008430122A16AC2EBA5
:1099E00051014FF4403292FAA2F2B2FA82F291405F
:1099F00008434FF0706292FAA2F2B2FA82F2E16A80
:109A0000914000E031E008431949091F0860012036
:109A100018490866FFF79CF8054606E0FFF798F836
:109A2000401B022801D9032081E61148083800684C
:109A3000C0F340600028F1D017E000200D4908660F
:109A4000FFF786F8054606E0FFF782F8401B02287C
:109A500001D903206BE6064808380068C0F340606F
:109A60000028F1D101E0012061E600205FE600005E
:109A70000838024000004742800E47420070004014
:109A80007047000010B5044603A001F06FFA0220F1
:109A900003F0EEFD10BD0000616C61726D0000000E
:109AA00010B504462068C068C0F3002078B1206873
:109AB000806800F4805050B12046FFF7E3FF206833
:109AC000C06800F0800060F4C0702168C860206841
:109AD000C068C0F3402078B12068806800F400506E
:109AE00050B12046FFF7CCFF2068C06800F080002E
:109AF00060F420702168C8604FF4003002490860AB
:109B00000120607710BD0000143C014070B5044690
:109B10000D46002600BF207F012801D1022070BD24
:109B20000120207700BF0220607700BFCA20216893
:109B3000486253202168486200BFB5F5807F29D173
:109B40002068806820F480702168886020688068C0
:109B500020F4805021688860FEF7FAFF064612E084
:109B6000FEF7F6FF801BB0F57A7F0CD900BFFF200F
:109B70002168486200BF0320607700BF0020207783
:109B800000BF0320CBE72068C06800F00100002878
:109B9000E6D028E02068806820F4007021688860A2
:109BA0002068806820F4005021688860FEF7D0FFAC
:109BB000064612E0FEF7CCFF801BB0F57A7F0CD989
:109BC00000BFFF202168486200BF0320607700BF0C
:109BD0000020207700BF0320A1E72068C068C0F301
:109BE00040000028E6D000BFFF202168486200BF87
:109BF0000120607700BF0020207700BF00BF8EE704
:109C000070B505460B4616460024286840680E4984
:109C100000EA0104200CD870C4F30420587004F04A
:109C20003F009870C4F3423018705EB9D87801F0E4
:109C300057FDD870587801F053FD5870987801F0AE
:109C40004FFD9870002070BD3FFFFF000146487F28
:109C50007047000070B504460B4616460025206884
:109C6000806A586020680069C0F30E009860206820
:109C700000680F4900EA0105C5F305401870C5F3F7
:109C80000620587005F07F00987005F48000000CE5
:109C9000D8705EB9187801F023FD1870587801F07B
:109CA0001FFD5870987801F01BFD9870002070BD62
:109CB0007F7F7F0010B504460CB9012010BD607F86
:109CC00020B900202077204600F04EF8022060776F
:109CD00000BFCA202168486253202168486200BF43
:109CE000204601F015FD40B100BFFF202168486209
:109CF00000BF042060770120E0E7206880681949F0
:109D000008402168886021696068084361690843E8
:109D1000216889680843216888602168E0680861D3
:109D200020680169208941EA0040216808612068B3
:109D3000C06820F080002168C8602068006C20F4B2
:109D40008020216808642068006CA16908432168AC
:109D5000086400BFFF202168486200BF01206077CF
:109D60000020ABE7BFFF8FFF10B50446074920680E
:109D700088420AD1012006490860002205212920D5
:109D8000FFF713FA2920FFF703FA10BD002800405F
:109D90003C0E47422DE9F04704460D461646002783
:109DA000B846B94600BF207F012802D10220BDE895
:109DB000F0870120207700BF0220607746BB206833
:109DC000806800F0400000B102E00020E87000BFB1
:109DD000E86900B900E000BF287801F08CFC0304BA
:109DE000687801F088FC43EA0023A87801F083FC3E
:109DF0000343E87843EA004395F8200001F07BFC38
:109E000043EA0060E9690843696940EA01082DE016
:109E10002068806800F0400020B1287801F060FCE4
:109E2000804602E00020E87000BFE86928B995F894
:109E3000200001F055FC804605E095F8200001F077
:109E40004FFC804600BF28780004697840EA012072
:109E5000A9780843E97840EA014095F8201040EAE3
:109E60000160E9690843696940EA0108A96968680D
:109E700040EA010900BFCA202168486253202168D6
:109E8000486200BF686AB0F5807F3DD12068806875
:109E900020F48070216888602068C06800F080002D
:109EA00060F4C0702168C860FEF752FE074612E0F9
:109EB000FEF74EFEC01BB0F57A7F0CD900BFFF2025
:109EC0002168486200BF0320607700BF0020207730
:109ED00000BF03206BE72068C06800F00100002885
:109EE000E6D02068C0F81C802068C0F84490206844
:109EF000806840F48070216888602068806840F441
:109F00008050216888603CE02068806820F4007000
:109F1000216888602068C06800F0800060F42070CC
:109F20002168C860FEF714FE074612E0FEF710FE37
:109F3000C01BB0F57A7F0CD900BFFF2021684862B2
:109F400000BF0320607700BF0020207700BF032000
:109F50002DE72068C068C0F340000028E6D02068E4
:109F6000C0F820802068C0F848902068806840F4DD
:109F70000070216888602068806840F40050216883
:109F800088600D48006840F400300B4908600A48BA
:109F90000830006840F4003007490831086000BF0D
:109FA000FF202168486200BF0120607700BF0020C9
:109FB000207700BF00BFFAE6003C01402DE9F041E8
:109FC00004460D461646002700BF207F012802D117
:109FD0000220BDE8F0810120207700BF02206077D9
:109FE0004EB9687800F01000102804D1687800F0AD
:109FF000EF000A30687086B9E87801F07CFB030452
:10A00000687801F078FB43EA0023A87801F073FB3D
:10A010000343287843EA403711E0687801F060FB99
:10A020000746A87801F05CFB0746E87800046978E9
:10A0300040EA0120A9780843297840EA413700BF67
:10A04000CA202168486253202168486200BF204628
:10A0500001F05EFB60B100BFFF202168486200BFD5
:10A060000420607700BF0020207700BF0120B0E708
:10A0700016483840216848602068C06820F0800099
:10A080002168C8602068806800F0200080B9204600
:10A0900000F0B8F860B100BFFF202168486200BF3F
:10A0A0000420607700BF0020207700BF012090E7E8
:10A0B00000BFFF202168486200BF0120607700BF19
:10A0C0000020207700BF00BF83E700003FFFFF00B4
:10A0D0002DE9F04104460D461646002700BF207FBB
:10A0E000012802D10220BDE8F0810120207700BFC5
:10A0F00002206077CEB92068806800F0400000B18F
:10A1000002E00020E87000BF287801F0F4FA0304B0
:10A11000687801F0F0FA43EA0023A87801F0EBFA3E
:10A120000343E87843EA004716E02068806800F0BF
:10A13000400020B1287801F0D3FA074602E0002061
:10A14000E87000BF28780004697840EA0120A97807
:10A150000843E97840EA014700BFCA202168486205
:10A1600053202168486200BF204601F0D1FA60B157
:10A1700000BFFF202168486200BF0420607700BF55
:10A180000020207700BF0120ADE71D48384021683E
:10A1900008602068806820F4802021688860D5E904
:10A1A00003010843216889680843216888602068A2
:10A1B000C06820F080002168C8602068806800F0D6
:10A1C000200080B9204600F01DF860B100BFFF20DC
:10A1D0002168486200BF0420607700BF002020771C
:10A1E00000BF01207FE700BFFF202168486200BF59
:10A1F0000120607700BF0020207700BF00BF72E71A
:10A200007F7F7F0070B5044600252068C06820F07D
:10A21000A0002168C860FEF79BFC054607E0FEF73A
:10A2200097FC401BB0F57A7F01D9032070BD2068F0
:10A23000C06800F020000028F1D00020F6E710B53B
:10A2400004460CB9012010BD606A00B900BFA06AC5
:10A25000B0F5005F00D100BF94F8510028B900208C
:10A2600084F85000204600F03BF8022084F85100AA
:10A270002068006820F0400021680860D4E90101EE
:10A280000843E16808432169084361690843218B59
:10A2900001F400710843E1690843216A0843A16A97
:10A2A0000843216808600421A06901EA1040616A3E
:10A2B000084321684860A06AB0F5005F02D12168B8
:10A2C000E06A08612068C06920F400602168C86104
:10A2D00000206065012084F851000020B3E70000F1
:10A2E00010B586B004461949206888422BD100BFBA
:10A2F000002000901648006840F48050144908601F
:10A300000846006800F48050009000BF00BF202085
:10A310000190022002900020039003200490052069
:10A32000059001A90B48FEF723FB30200190022085
:10A33000029000200390032004900520059001A9BD
:10A340000548FEF715FB06B010BD000000300140C7
:10A35000443802400000024000040240042808D1B2
:10A360004FF0E021096941F004014FF0E022116152
:10A3700007E04FF0E021096921F004014FF0E022ED
:10A380001161704770B504462546681EB0F1807FA4
:10A3900001D301200FE0681E4FF0E02148610F213A
:10A3A0004FF0FF3001F058F900204FF0E0218861B4
:10A3B00007200861002070BD024600BF92F83800F7
:10A3C000012801D102207047012082F8380000BF27
:10A3D000022082F839001068406820F0700013688D
:10A3E0005860106840680B6818431368586010681C
:10A3F000806820F0800013689860106880684B685F
:10A40000184313689860012082F8390000BF0020CB
:10A4100082F8380000BF00BFD5E7000010B586B055
:10A4200004460949206888420CD14020019002204E
:10A4300002900020039004900220059001A9034897
:10A44000FEF796FA06B010BD00040040000002407E
:10A4500070B504460D46164600BF94F83800012832
:10A4600001D1022070BD012084F8380000BF022015
:10A4700084F8390036B1042E1BD0082E31D00C2EB2
:10A480005ED145E02946206801F0B8FC206880696B
:10A4900040F00800216888612068806920F004008D
:10A4A000216888612068806929690843216888617A
:10A4B00047E02946206801F0D3FC2068806940F419
:10A4C0000060216888612068806920F480602168CC
:10A4D000886120688069296940EA012021688861D3
:10A4E0002FE02946206801F0F3FC2068C06940F0A5
:10A4F00008002168C8612068C06920F00400216854
:10A50000C8612068C069296908432168C86118E0EA
:10A510002946206801F012FD2068C06940F40060FF
:10A520002168C8612068C06920F480602168C86122
:10A530002068C069296940EA01202168C86100E0FB
:10A5400000BF00BF012084F8390000BF002084F85C
:10A55000380000BF00BF85E710B504460CB90120E4
:10A5600010BD94F8390028B9002084F8380020463E
:10A5700000F00CF8022084F83900211D206801F059
:10A58000E5FB012084F839000020E9E708B50A4A14
:10A59000016891420FD100BF00210091074909686D
:10A5A00041F00201054A11601146096801F00201FB
:10A5B000009100BF00BF08BD0004004040380240C9
:10A5C0007047F8B50446002500262068006800F0B2
:10A5D00001052068C06800F480767DB176B100BFC7
:10A5E000002000902068006800902068406800907B
:10A5F00000BF00BFE06B40F00100E063206800682E
:10A60000C0F340052068406900F001067DB176B1D5
:10A6100000BF00200090206800680090206840681B
:10A62000009000BF00BFE06B40F00400E0632068D2
:10A630000068C0F380052068406900F001067DB124
:10A6400076B100BF0020009020680068009020686C
:10A650004068009000BF00BFE06B40F00200E06384
:10A6600020680068C0F3C0052068406900F001065A
:10A670007DB176B100BF0020009020680068009096
:10A6800020684068009000BF00BFE06B40F0080009
:10A69000E06320680068C0F340152068C06800F0DF
:10A6A00020061DB116B1204601F084FC2068006828
:10A6B000C0F3C0152068C06800F080061DB116B157
:10A6C000204601F07FFE20680068C0F380152068F6
:10A6D000C06800F040061DB116B1204601F05AFCDA
:10A6E000E06B38B1202084F8390084F83A00204625
:10A6F000FFF766FFF8BD10B504460CB9012010BD88
:10A70000A06900B100E000BF94F8390028B900202A
:10A7100084F83800204600F027F8242084F8390017
:10A720002068C06820F400502168C860204601F00D
:10A7300095FC2068006920F4904021680861206839
:10A74000406920F02A00216848612068C06840F410
:10A7500000502168C8600020E063202084F83900A0
:10A7600084F83A000020CAE710B586B004461649BE
:10A770002068884225D100BF00200090134800685F
:10A7800040F40030114908600846006800F40030C9
:10A79000009000BF00BF0C20019002200290012019
:10A7A0000390032004900720059001A90848FEF7B4
:10A7B000DFF8002205212620FEF7F7FC2620FEF711
:10A7C000E7FC06B010BD00000044004040380240E5
:10A7D0000000024010B5034693F83A0020282FD11C
:10A7E00001B10AB9012010BD00BF93F8380001285B
:10A7F00001D10220F7E7012083F8380000BF9962F9
:10A800009A85DA850020D863222083F83A001868F8
:10A81000C06840F480701C68E0601868406940F0CF
:10A8200001001C68606100BF002083F8380000BF91
:10A830001868C06840F020001C68E0600020D2E783
:10A840000220D0E710B504464748844277D14748F4
:10A850000078A8B946480078FE2811D10120434964
:10A860000870052043490870414800784249434A2E
:10A870001278885441480078401C404908706BE0C9
:10A880003A480078012825D13C48007802281AD19E
:10A8900037480078042816D1354800783649374AB9
:10A8A0001278885435480078401C344908700220DA
:10A8B0002E490870084603783048027830A10020FD
:10A8C00001F032F848E001202C49087000202749A7
:10A8D000087041E025480078022837D124480078E4
:10A8E0002549264A127888542448007804280CD137
:10A8F000204800781E49097808441E4908701F48FE
:10A900000078401C1D49087026E01C480078194951
:10A910000978884214D10120184908700020134991
:10A9200008701448007814490870032002F0A0FE53
:10A93000104802781CA1002000F0F6FF0CE011E0A6
:10A940000E480078401C0D49087005E001200B49B5
:10A9500008700020054908700548027817A10020FA
:10A9600000F0E2FF10BD00004802002003000020BC
:10A97000000000200200002028020020010000202A
:10A98000636F6D6D616E64206F6B2C696E646578AA
:10A990003D25643B636F6D6D616E645F73746172BE
:10A9A000743D25640D0A000064617461206F6B2C96
:10A9B0006C656E3D25640D0A00000000676574201B
:10A9C000646174613A2578210D0A00002DE9F04197
:10A9D00004460D461646984694F83900202855D16D
:10A9E00005B116B90120BDE8F08100BF94F8380028
:10A9F000012801D10220F6E7012084F8380000BFC9
:10AA00000020E063212084F83900A684E68428E051
:10AA1000E08C401EE084A068B0F5805F14D143460E
:10AA200000228021204601F001FD08B10320DAE771
:10AA30002F463888C0F3080021684860206908B9AB
:10AA4000AD1C0EE06D1C0CE0434600228021204628
:10AA500001F0ECFC08B10320C5E715F8010B2168F3
:10AA60004860E08C0028D3D1434600224021204694
:10AA700001F0DCFC08B10320B5E7202084F83900A0
:10AA800000BF002084F8380000BFACE70220AAE72E
:10AA90007047014608684069C0F3802088B16FF4B0
:10AAA00080600A6850610420086400200863202048
:10AAB00081F83D0000BF002081F83C0000BF01206C
:10AAC00070470020FCE70000F8B504460D46164626
:10AAD000E06A042806D0E06A012803D0E06A10F595
:10AAE000803F0CD12068006840F4806021680860D5
:10AAF0002068006840F48070216808600EE0206BD8
:10AB000011280BD12068006840F48060216808603B
:10AB10002068006840F48070216808603346002295
:10AB20004FF00111204600F0EEF808B10320F8BD07
:10AB30002069B0F5804F05D1E8B240F001002168EE
:10AB4000086146E005F44070F02141EAE010216818
:10AB5000086132462749204600F048F930B1206CA0
:10AB6000042801D10120E2E70320E0E7E8B22168F0
:10AB7000086132461F49891F204600F037F930B17D
:10AB8000206C042801D10120D1E70320CFE700BFCA
:10AB90000020009020684069009020688069009043
:10ABA00000BF00BF2068006840F480702168086022
:10ABB000334600224FF00111204600F0A4F808B1FE
:10ABC0000320B4E705F44070F12141EAE010216868
:10ABD000086132460749891F204600F007F930B165
:10ABE000206C042801D10120A1E703209FE7002069
:10ABF0009DE700000800010070B504460D461646AA
:10AC0000E06A042806D0E06A012803D0E06A10F563
:10AC1000803F06D12068006840F480702168086099
:10AC200008E0206B122805D12068006840F480708D
:10AC300021680860334600224FF00111204600F0E1
:10AC400062F808B1032070BD2069B0F5804F04D1CF
:10AC500005F0FE002168086116E005F44070F0215F
:10AC600041EAE0102168086132460F49204600F0B1
:10AC7000BDF830B1206C042801D10120E3E70320A6
:10AC8000E1E7E8B22168086132460749891F20469A
:10AC900000F0ACF830B1206C042801D10120D2E7DB
:10ACA0000320D0E70020CEE70800010070B504467D
:10ACB0000D46FDF74DFF06461DE02046FFF7E9FE75
:10ACC00008B1012070BD681CA8B125B1FDF740FF97
:10ACD000801BA8420FD9206C40F020002064002087
:10ACE0002063202084F83D0000BF002084F83C0051
:10ACF00000BF0320E6E720684069C0F38000002819
:10AD0000DBD00020DEE72DE9F04104460D46174672
:10AD10001E464FF00008FDF71BFF804677BB15E08D
:10AD2000701C98B12EB1FDF713FFA0EB0800B042E4
:10AD30000CD900202063202084F83D0000BF0020B3
:10AD400084F83C0000BF0320BDE8F081C5F3074054
:10AD500001280AD120684069A9B20840A9B28842F6
:10AD600001D101200CE000200AE020688069A9B22E
:10AD70000840A9B2884202D1012001E003E000208E
:10AD80000028CDD030E014E0701C90B12EB1FDF75A
:10AD9000DFFEA0EB0800B0420BD90020206320208A
:10ADA00084F83D0000BF002084F83C0000BF032071
:10ADB000CAE7C5F3074001280AD120684069A9B253
:10ADC0000840A9B2884201D101200BE0002009E02F
:10ADD00020688069A9B20840A9B2884201D1012047
:10ADE00000E000200028CFD10020ADE72DE9F041A0
:10ADF00004460D4616460027FDF7AAFE074631E039
:10AE000020684069C0F38020C0B12068006840F429
:10AE10000070216808606FF4806021684861042038
:10AE2000206400202063202084F83D0000BF002023
:10AE300084F83C0000BF0120BDE8F081701C88B19F
:10AE400026B1FDF785FEC01BB0420BD90020206360
:10AE5000202084F83D0000BF002084F83C0000BFA3
:10AE60000320E9E7C5F3074001280AD120684069BB
:10AE7000A9B20840A9B2884201D101200BE000200C
:10AE800009E020688069A9B20840A9B2884201D1CE
:10AE9000012000E000200028B2D00020CCE770B5EF
:10AEA00004460D460026FDF753FE064629E02068BD
:10AEB0004069C0F3001080B16FF010002168486154
:10AEC000002020642063202084F83D0000BF002083
:10AED00084F83C0000BF012070BD25B1FDF738FEAD
:10AEE000801BA8420DD9206C40F020002064202057
:10AEF00084F83D0000BF002084F83C0000BF032020
:10AF0000EAE720684069C0F380100028CFD0002015
:10AF1000E2E770B504460D46FDF71AFE06461DE051
:10AF20002046FFF7B6FD08B1012070BD681CA8B12E
:10AF300025B1FDF70DFE801BA8420FD9206C40F013
:10AF40002000206400202063202084F83D0000BF02
:10AF5000002084F83C0000BF0320E6E72068406939
:10AF6000C0F3C0100028DBD00020DEE710B5044697
:10AF7000224602A1002000F0D7FC10BD696E666F6A
:10AF80003A25730D0A00000008B5684600F03CF849
:10AF9000064800F019F80548028805A1002000F0D5
:10AFA000C3FC024800880749086008BD1C00002057
:10AFB0007374657020636F756E743D2564210D0A8E
:10AFC00000000000980000202DE9F04105464FF0F8
:10AFD00002080024002613E000270DE0291904F1DF
:10AFE0003B02D0B200F03EF810B90020BDE8F0817D
:10AFF000601CC4B2781CC7B24745EFDB701CC6B2F8
:10B00000012EE9DB0120F1E710B5044621463D2081
:10B0100000F028F808B9002010BD207800F00200E8
:10B0200020700120F8E710B504462146382000F0D2
:10B0300019F808B9002010BD207800F040002070F9
:10B040000120F8E710B5044621460F2000F00AF869
:10B0500008B9002010BD20782070207820700120D1
:10B06000F8E7000013B582B00C460AE01648FDF779
:10B0700075FD042805D015A0FDF722FA002004B0C4
:10B0800010BD4FF47A70012302AA3A2100900E48B5
:10B09000FDF738FF0028E9D109E00B48FDF75EFD18
:10B0A000042804D00FA0FDF70BFA0020E7E74FF4C7
:10B0B0007A70012322463A2100900348FDF7E6FD0D
:10B0C0000028EAD10120DAE7E4010020672D73654A
:10B0D0006E736F72207772697465206572726F7219
:10B0E00021000000672D73656E736F7220726561B9
:10B0F00064206572726F72210000000008B5684616
:10B10000FFF791FF9DF80000402801D1002000903A
:10B1100008BD38B5044669462220FFF7A3FF08B9E9
:10B12000002038BD9DF8000020F0040000909DF83C
:10B130000000204300909DF80010222000F076F8D7
:10B1400008B90020EDE70120EBE738B50446694671
:10B150002020FFF787FF08B9002038BD9DF80000C8
:10B1600020F0F00000909DF80000204300909DF832
:10B170000010202000F05AF808B90020EDE7012067
:10B18000EBE738B5044669463A20FFF76BFF08B98C
:10B19000002038BD9DF8000020F0800000909DF850
:10B1A0000000204300909DF800103A2000F03EF887
:10B1B00008B90020EDE70120EBE738B50446694601
:10B1C0002120FFF74FFF08B9002038BD9DF800008F
:10B1D00020F0400000909DF80000204300909DF872
:10B1E0000010212000F022F808B90020EDE701202E
:10B1F000EBE738B5044669463F20FFF733FF08B94F
:10B20000002038BD9DF8000020F0010000909DF85E
:10B210000000204300909DF800103F2000F006F849
:10B2200008B90020EDE70120EBE700007CB50446FB
:10B230000D468DF804408DF8055009E00B48FDF7E8
:10B240008DFC042804D00AA0FDF73AF900207CBD4B
:10B250004FF47A70022301AA3A2100900348FDF7C7
:10B2600051FE0028EAD10120F1E70000E4010020AE
:10B27000672D73656E736F722077726974652065D0
:10B2800072726F722100000010B501F0ABFB8020DC
:10B29000FFF777FF10BD00001FB510481049086088
:10B2A0000020486000210E488160016181610162D7
:10B2B000C162C1600121C1610021016301214161BD
:10B2C000FDF7A0FA002000900120019000200290DC
:10B2D00069460348FDF704F91FBD00000020014046
:10B2E0005801002000B585B0142206496846FCF7D5
:10B2F000CBFF0021684601F08FFC0349086005B0D0
:10B3000000BD000074EF00080400002000B587B005
:10B3100000BF002001904F48006840F004004D49F4
:10B3200008600846006800F00400019000BF00BFFC
:10B3300000BF002001900846006840F0010008604E
:10B340000846006800F00100019000BF00BF00BF88
:10B35000002001900846006840F00200086008469E
:10B36000006800F00200019000BF00BF40F2022020
:10B37000029000200390049002A93748FDF7F8FAE4
:10B3800048F2901002900120039000200490059054
:10B3900002A93148FDF7ECFA012002902F480390F2
:10B3A0000120049002A92E48FDF7E2FA43F20200C0
:10B3B00002900120039000200490059002A92848E3
:10B3C000FDF7D6FA4CF28000029000200390049022
:10B3D00002A92348FDF7CCFA4FF4A05002901F4871
:10B3E00003900120049002A91B48FDF7C1FA4FF415
:10B3F000006002901B4803900020049002A91648A8
:10B40000FDF7B6FA40200290174803900020049000
:10B4100002A91348FDF7ACFA002248F290110E4839
:10B42000FDF790FB002243F202010D48FDF78AFB75
:10B43000002205210620FDF7B8FE0620FDF7A8FE34
:10B44000002205212820FDF7B0FE2820FDF7A0FEF0
:10B4500007B000BD3038024000000240000021105B
:10B4600000040240000011100000311010B50A481D
:10B470000A4908600A484860002108488160C160A4
:10B480004FF480410161002141618161C16101622C
:10B49000FDF768FB10BD000000540040A001002033
:10B4A000801A060010B50A480A4908600A48486030
:10B4B000002108488160C1604FF480410161002192
:10B4C00041618161C1610162FDF74CFB10BD00006B
:10B4D00000580040E4010020A086010000B591B0B2
:10B4E000264827490860002048607F212448816061
:10B4F000FF21C1600021016141618161FEF7DAFB3A
:10B500000C208DF830000A208DF831008DF83200C3
:10B5100000200F90109000220CA91948FEF7D8FDCA
:10B5200001208DF82C008DF82D008DF82E001020B4
:10B530008DF82F0000220BA91148FEF73FFD0C20CB
:10B540008DF804000A208DF8050028208DF80600EB
:10B5500000200290049005904FF0004006900020DB
:10B560000790089001208DF8240000020A90002224
:10B5700001A90348FEF70EFC11B000BD00280040F1
:10B58000E002002010B50C480C4908604FF48270AE
:10B590004860002109488160C160016141614FF448
:10B5A000007181610021C1610162416281620A21F1
:10B5B000C162FEF744FE10BD003001408802002049
:10B5C00000B589B012481349086000204860002186
:10B5D00010488160C1600161FEF7BEFF0020079046
:10B5E000089007A90B48FEF7E7FE602000904FF493
:10B5F0007A7001900020029004900022694605486C
:10B60000FEF726FF0348FEF709FF09B000BD000062
:10B61000000400401C01002010B5094809490860D9
:10B620004FF4E1304860002106488160C16001614B
:10B630000C21416100218161C161FFF75CF810BDFF
:10B64000004400404802002002480068C0F3022085
:10B65000704700000CED00E010B5002807DA0A077B
:10B66000140E054A00F00F031B1FD45403E00A0711
:10B67000130E024A135410BD18ED00E000E400E080
:10B6800070B505460C464FF480710F48FEF73EFA40
:10B6900001F0E4FF0D480570447001200B498870EB
:10B6A00000204860C86008614FF0004048610020F9
:10B6B0008861C861012081F82000000248620022F0
:10B6C0000148FEF767FB70BDE00200200003002088
:10B6D00010B50248FEF7E4F910BD0000E0020020BA
:10B6E000014600BF080900EB8000420001F00F0096
:10B6F0001044C0B270470146002203E0521CA1F181
:10B700000A00C1B20A29F9D2100741EA1060704755
:10B7100070B5044600252068C06800F04000A0B95C
:10B72000681E2168C860FDF713FA054607E0FDF7BB
:10B730000FFA401BB0F57A7F01D9032070BD206855
:10B74000C06800F040000028F1D00020F6E70000BB
:10B7500030B587B004460D4634B30022694613481D
:10B76000FEF778FA9DF800008DF818009DF80100AA
:10B770008DF819009DF802008DF81A00002205A925
:10B780000A48FEF73DFA9DF8170020709DF8150055
:10B7900060709DF81600A070012D05D1BDF818004D
:10B7A00020809DF81A00A07007B030BDE002002094
:10B7B00010B500F0C5FE10BD2DE9F04704468946DE
:10B7C000164600F0BDFE04EB4401564800EBC100F4
:10B7D000007D00F00300022827D004EB440151480B
:10B7E00000EBC100D0F8108004EB44014D4800EBA1
:10B7F000C100C068A8EB0000451E002D06DA04EB6E
:10B800004401484800EBC10080680544AE420CDDAD
:10B8100004EB4401434800EBC100007D00F003004D
:10B8200010B90020BDE8F0872E460EB90020F9E7D8
:10B83000002700BF04EB44013A4800EBC100D0F8F8
:10B84000108004EB4401374800EBC100C068A8EB4E
:10B850000000451E002D06DA04EB4401314800EBE0
:10B86000C1008068054404EB44012E4800EBC10090
:10B8700004EB440281682B4800EBC200C068081A40
:10B88000A84201DD28460CE004EB4401254800EB0A
:10B89000C10004EB44028168224800EBC200C0688A
:10B8A000081A0546B54201DA284600E0304605464A
:10B8B00004EB44021B4901EBC20104EB44034A6858
:10B8C000184901EBC301C96850182A464946FCF7DC
:10B8D000DBFC2F44A944761B04EB4401114800EB28
:10B8E000C100C068411904EB44020E4800EBC200DD
:10B8F000C16004EB44010B4800EBC100C16804EBDC
:10B900004402084800EBC2008068814206D1002151
:10B9100004EB4402034800EBC200C160002E89D151
:10B9200038467FE7380000200FB438B5044606A833
:10B9300000906A462046059900F003F838BC5DF88F
:10B9400014FB2DE9F04F99B081460D46144603A82B
:10B9500014904020159000201690CDF8609017901C
:10B9600000BF15F8016B06B9D4E0252E73D100276E
:10B9700000BF2E78232E12D02B2E0CD02D2E02D0CD
:10B98000302E10D103E047F001076D1C0CE047F0AA
:10B9900002076D1C08E047F004076D1C04E047F047
:10B9A00008076D1C00E001E000BFE2E74FF000086F
:10B9B00000BF2E78302E01DB392E00DD07E06D1C34
:10B9C000A6F1300008EB880100EB4108F1E700BF69
:10B9D000002013902E782E2E12D16D1C00BF2E78D1
:10B9E000302E01DB392E00DD09E06D1CA6F13000A0
:10B9F000139901EB810100EB41001390EFE700BFC9
:10BA00002E7800BF6C2E01D0682E02D115F8016B84
:10BA100000E000E0F6E700BF702E5BD008DC252ECA
:10BA200068D0582E35D0632E09D0642E67D113E02C
:10BA3000732E3CD0752E1DD0782E60D128E0216861
:10BA4000081D2060D1F800A00AF0FF0B594614A889
:10BA500000F066FE53E055E02168081D2060D1F833
:10BA600000A0CDE900870A22514614A8139B00F0DC
:10BA700068FD44E02168081D2060D1F800A0CDE9F0
:10BA800000870A22514614A8139B00F0CFFD36E030
:10BA900000BF2168081D2060D1F800A0CDE9008713
:10BAA0001022514614A8139B00F0C0FD27E0216826
:10BAB000081D2060D1F800B000BF1BF8016B06B96B
:10BAC00006E0314614A800F02BFE17980028F4DA9F
:10BAD00000BF14E02168081D2060D1F800A00020FC
:10BAE00008210B461022CDE90010514614A800F0A1
:10BAF0009DFD04E0252114A800F012FE00BF00BF48
:10BB00006D1C03E0314614A800F00AFE17980028C7
:10BB1000BFF627AF00BF179800280ADD169820B19E
:10BB200003A94846169AFFF747FEDDE916100844B8
:10BB30001790179819B0BDE8F08F38B5044614B1C6
:10BB40000420FFF7E6FA0120FFF753FB6846FFF7F2
:10BB50005BFA38BD94B000F0A3FF18B922A0FCF73F
:10BB6000AFFC02E025A0FFF701FAFFF78DFB00F024
:10BB700008FE142225490FA8FCF786FB00210FA818
:10BB800001F04AF8224908601422204914310AA819
:10BB9000FCF77AFB00210AA801F03EF81D49086075
:10BBA00014221A49283105A8FCF76EFB002105A8CC
:10BBB00001F032F818490860142214493C316846F3
:10BBC000FCF762FB0021684601F026F81349086083
:10BBD0000120134908701348006801F03AF800BFCB
:10BBE000012000F0A1FFFBE7672D73656E736F7294
:10BBF000206973206572726F72210000672D736572
:10BC00006E736F72206973206F6B210088EF0008DC
:10BC1000080000200C00002010000020140000206C
:10BC2000180000200400002010B5FDF76FFA00F0A6
:10BC3000EBFF10BD10B596B000BF00200090284863
:10BC4000006840F08050264908600846006800F00F
:10BC50008050009000BF00BF00BF0020009021482E
:10BC6000006820F4404040F400401E490860084647
:10BC7000006800F44040009000BF00BF06200A901A
:10BC800001200C900D9010200E90002010900AA81A
:10BC9000FDF728FD0F2005900020069007900890E2
:10BCA0000990002105A8FDF7A9FB02200190C00121
:10BCB000049001A8FDF7CCFAFDF772FC4FF47A71FD
:10BCC000B0FBF1F42046FEF75DFB0420FEF746FBD7
:10BCD00000220F21501EFDF768FA16B010BD0000BB
:10BCE00040380240007000401448006840F4700082
:10BCF000124908601248006840F0010010490860CD
:10BD000000200F49083108600D4800680D490840BF
:10BD10000B4908600C48091D0860081F006820F4E2
:10BD20008020091F0860002005490C3108604FF091
:10BD300000600249803908607047000088ED00E02B
:10BD400000380240FFFFF6FE103000240022026897
:10BD5000234B98420BD0B0F1804F08D0214B984232
:10BD600005D0214B984202D0204B984201D10123AB
:10BD700000E000231BB122F070024B681A43184BFD
:10BD8000984214D0B0F1804F11D0164B98420ED08B
:10BD9000154B98420BD0154B984208D0144B984243
:10BDA00005D0144B984202D0134B984201D1012385
:10BDB00000E000231BB122F44072CB681A430260FA
:10BDC0008B68C3620B688362054B984201D10123E3
:10BDD00000E000230BB10B6903630123436170474B
:10BDE000000001400004004000080040000C00403A
:10BDF00000400140004401400048014030B50024AB
:10BE000000220023056A25F001050562026A4368E5
:10BE1000846924F0700424F003040D682C4322F09C
:10BE200002028D682A430D4DA84201D1012500E090
:10BE300000256DB122F00802CD682A4322F00402E9
:10BE400023F4807323F400734D692B438D692B43D6
:10BE5000436084614D684563026230BD000001406B
:10BE600030B5002400220023056A25F01005056284
:10BE7000026A4368846924F4E04424F440740D6841
:10BE800044EA052422F020028D6842EA05120F4D93
:10BE9000A84201D1012500E0002585B122F08002F1
:10BEA000CD6842EA051222F0400223F4806323F4B5
:10BEB00000634D6943EA85038D6943EA8503436066
:10BEC00084614D688563026230BD0000000001405E
:10BED00030B5002400220023056A25F48075056230
:10BEE000026A4368C46924F0700424F003040D68F6
:10BEF0002C4322F400728D6842EA05220E4DA842BE
:10BF000001D1012500E0002585B122F40062CD6851
:10BF100042EA052222F4806223F4805323F4005382
:10BF20004D6943EA05138D6943EA05134360C46113
:10BF30004D68C563026230BD0000014030B500228B
:10BF400000230024056A25F480550562036A4468CD
:10BF5000C26922F4E04222F440720D6842EA0522EE
:10BF600023F400538D6843EA0533094DA84201D1FB
:10BF7000012500E0002525B124F480444D6944EA00
:10BF800085144460C2614D680564036230BD0000E1
:10BF90000000014010B504462068C06820F0400051
:10BFA0002168C860202084F839002046FEF770FD23
:10BFB000002010BD70B5044694F83A0022284AD1FA
:10BFC000A068B0F5805F13D1A56A206940B92068E8
:10BFD0004068C0F308002880A06A801CA06219E0B5
:10BFE00020684068C0B22880A06A401CA06211E0AE
:10BFF000206938B920684068C1B2A26A501CA062AA
:10C00000117007E02068406800F07F01A26A501CB0
:10C01000A0621170E08D401E80B2E085C8B9206832
:10C02000C06820F020002168C8602068C06820F443
:10C0300080702168C8602068406920F00100216894
:10C040004861202084F83A002046FEF7FBFB0020E0
:10C0500070BD0020FCE70220FAE700002DE9F04166
:10C06000044600252068056925F44055E06805432D
:10C07000206805612068C56849F20C608543216924
:10C08000A068084361690843E169084305432068E3
:10C09000C5602068456925F44075A069054320689E
:10C0A0004561E069B0F5004F7ED1C44920688842FF
:10C0B00003D0C349206888425DD1FDF7A3FA00EBA5
:10C0C000C00101EB001061684900B0FBF1F0642190
:10C0D000B0FBF1F00601FDF795FA00EBC00101EBB2
:10C0E000001061684900B0FBF1F7FDF78BFA00EB37
:10C0F000C00101EB001061684900B0FBF1F0642160
:10C10000B0FBF1F000EBC00101EB0010A7EB8000E9
:10C11000322101EBC0006421B0FBF1F000F0F80027
:10C1200006EB4006FDF76EFA00EBC00101EB0010D4
:10C1300061684900B0FBF1F7FDF764FA00EBC0015C
:10C1400001EB001061684900B0FBF1F06421B0FB25
:10C15000F1F000EBC00101EB0010A7EB80003221F1
:10C1600001EBC0006421B0FBF1F000F007003044A7
:10C170002168886020E1FDF72FFA00EBC00101EB98
:10C18000001061684900B0FBF1F06421B0FBF1F0F0
:10C190000601FDF721FA00EBC00101EB0010616818
:10C1A0004900B0FBF1F700E045E0FDF715FA00EBC0
:10C1B000C00101EB001061684900B0FBF1F064219F
:10C1C000B0FBF1F000EBC00101EB0010A7EB800029
:10C1D000322101EBC0006421B0FBF1F000F0F80067
:10C1E00006EB4006FDF7F8F900EBC00101EB00108B
:10C1F00061684900B0FBF1F7FDF7EEF900EBC00113
:10C2000001EB001061684900B0FBF1F06421B0FB64
:10C21000F1F000EBC00101EB0010A7EB8000322130
:10C2200001EBC0006421B0FBF1F000F007003044E6
:10C2300021688860C0E061492068884203D0604975
:10C24000206888425CD1FDF7DDF900EBC00101EB0D
:10C25000001061688900B0FBF1F6FDF7D3F900EB3F
:10C26000C00101EB001061688900B0FBF1F06421AE
:10C27000B0FBF1F000EBC00101EB0010A6EB800079
:10C28000322101EB00106421B0FBF1F000F0F00668
:10C29000FDF7B8F900EBC00101EB001061688900FF
:10C2A000B0FBF1F06421B0FBF1F006EB0016FDF7F6
:10C2B000A9F900EBC00101EB001061688900B0FB37
:10C2C000F1F7FDF79FF900EBC00101EB0010616889
:10C2D0008900B0FBF1F06421B0FBF1F000EBC0018C
:10C2E00001EB0010A7EB8000322101EB001064216C
:10C2F000B0FBF1F000F00F003044216888605BE093
:10C30000FDF76AF900EBC00101EB001061688900DC
:10C31000B0FBF1F6FDF760F900EBC00101EB001096
:10C3200061688900B0FBF1F06421B0FBF1F000EB33
:10C33000C00101EB0010A6EB8000322101EB0010E0
:10C340006421B0FBF1F000F0F006FDF745F900EBD9
:10C35000C00101EB001061688900B0FBF1F06421BD
:10C36000B0FBF1F006EB0016FDF736F900EBC0016B
:10C3700001EB001061688900B0FBF1F7FDF72CF9C3
:10C3800000EBC00101EB001061688900B0FBF1F027
:10C390006421B0FBF1F000EBC00101EB0010A7EB52
:10C3A0008000322101EB00106421B0FBF1F000F0BD
:10C3B0000F00304421688860BDE8F0810010014022
:10C3C00000140140014691F8390021282CD18868D9
:10C3D000B0F5805F0FD10A6A1088C0F308000B68BF
:10C3E0005860086918B9086A801C086209E0086A80
:10C3F000401C086205E00B6A581C086218780B683C
:10C400005860C88C401E80B2C88458B90868C0689B
:10C4100020F080000B68D8600868C06840F04000D9
:10C420000B68D860002070470220FCE72DE9F0413E
:10C4300004460E4617461D464FF00008FCF788FBE1
:10C44000804677BB2FE0681C60B32DB1FCF780FB02
:10C45000A0EB0800A84226D92068C06820F0800020
:10C460002168C8602068C06820F020002168C8608A
:10C470002068C06820F480702168C8602068406926
:10C4800020F0010021684861202084F8390084F8F8
:10C490003A0000BF002084F8380000BF0320BDE848
:10C4A000F0810BE0FFE7206800683040B04201D126
:10C4B000012000E000200028C5D037E02CE0681CF7
:10C4C00050B32DB1FCF744FBA0EB0800A84223D9E0
:10C4D0002068C06820F080002168C8602068C068BB
:10C4E00020F020002168C8602068C06820F48070B7
:10C4F0002168C8602068406920F001002168486117
:10C50000202084F8390084F83A0000BF002084F825
:10C51000380000BF0320C2E7206800683040B04206
:10C5200001D1012000E000200028C8D10020B6E79A
:10C5300010B50248FEF745F810BD00004802002083
:10C5400070472DE9FC5F07460E4692469846DDE9A6
:10C550000C45002E01DA704200E0304683464FF071
:10C56000010903E0BBFBFAFB09F10109D345F9D24C
:10C57000C84500D9C14634B1002E03DB05F00400E4
:10C58000042800D1641E05F0020010B1B8F1000FBC
:10C5900012D005F0010078B974B108E020213846C6
:10C5A00000F0BEF8F868002801DABDE8FC9F1CB175
:10C5B0002046641E4845F1D8002E08DA76422D2127
:10C5C000384600F0ADF8F86800280CDAEDE705F021
:10C5D0000400042807D12B21384600F0A1F8F868A0
:10C5E000002800DAE1E705F00200022814D105F086
:10C5F000010088B9B8F1000F0ED16CB107E030210D
:10C60000384600F08DF8F868002800DACDE71CB154
:10C610002046641E4845F2D84346524631463846C5
:10C62000CDE9004500F002F800BFBEE72DE9FE4F5E
:10C6300081460F4614469846DDE90C5B01260197BA
:10C64000B24605E00198B0FBF4F001900AF1010A4E
:10C650000198A042F6D2D04500D9C2460BF00100A5
:10C66000E0B9DDB10BF00200022805D1B8F1000FEE
:10C6700002D13020009001E02020009009E04846DF
:10C68000009900F04DF8D9F80C00002801DABDE857
:10C69000FE8F1DB128466D1E5045F0D800E0664360
:10C6A000B7FBF6F0A04201D3012000E00020414694
:10C6B000A8F10108012901DD012100E00021084362
:10C6C0000028ECD100BFB7FBF6F00290029800FB07
:10C6D0001677124A0298115C484600F021F8D9F802
:10C6E0000C00002800DA03E0B6FBF4F6002EEAD1D5
:10C6F00000BF0BF0010078B175B108E02021484679
:10C7000000F00EF8D9F80C00002800DABFE71DB1E0
:10C7100028466D1E5045F1D800BFB8E7D8EF000895
:10C7200070B504460E46A568681C6168814206DB48
:10C7300020684655681CA060E068401CE060D4E9B1
:10C74000011088420DD1A26821682069FFF734F8F2
:10C75000A168884203D04FF0FF30E06001E0002084
:10C76000A06070BD02E008C8121F08C1002AFAD1FB
:10C7700070477047002001E001C1121F002AFBD161
:10C78000704710B5002000F003F8002010BD000035
:10C7900010B50446012C0AD1002201030948FCF718
:10C7A000D1F9002261030748FCF7CCF909E0012226
:10C7B00051030448FCF7C6F9012211030148FCF7B4
:10C7C000C1F910BD0004024010B50246002300204C
:10C7D00003E0145C1C44E3B2401C8842F9DB1846B9
:10C7E00010BD000010B50348447803A0FEF7BEFB5F
:10C7F00010BD000028030020666C69636B4C656601
:10C800007400000010B50348447803A0FEF7AEFBA7
:10C8100010BD000028030020666C69636B526967D5
:10C820006874000003E041F2883000F07DF9FAE717
:10C830001FB52BE04FF0FF320221684600F0B2F93D
:10C8400000F00CFF012103A8FEF782FF9DF80E0007
:10C8500000909DF80D309DF80C200DA10020FFF7F1
:10C8600063F89DF80C409DF80D00401CC5B23B2DAF
:10C8700008DDA5F13C00C5B2172C01D1002401E070
:10C88000601CC4B229462046FEF7FAFED2E700003B
:10C8900054494D45523A25643A25643A25640D0AB7
:10C8A000000000000EB50DE04FF0FF320121684698
:10C8B00000F078F90448007820B901200249087096
:10C8C00000F012F8F0E700001E0000200EB5012075
:10C8D00000F060FF07E04FF0FF320321684600F0F0
:10C8E00061F900F0E5FEF6E738B5012500240020E7
:10C8F000009001200090052000F016F90121684603
:10C9000000F0A8F8012801D1FF2038BD052000F073
:10C910000BF902212D4800F077F8052000F004F90A
:10C92000032000900121684600F094F8052000F0F3
:10C93000FBF801212548801C00F066F8052000F076
:10C94000F3F8022000900121684600F083F80520EA
:10C9500000F0EAF803211D48C01C00F055F81B4800
:10C96000007800F0800505B100BF1848447804F055
:10C97000010008B100F074F904F00200022801D1AE
:10C9800000F0F6FE04F00400042802D10CB100F01F
:10C99000BDFE04F01000102801D100F0BFF804F033
:10C9A0002000202801D100F0D3FE04F040004028F0
:10C9B00001D1FFF717FF04F08000802801D1FFF7B5
:10C9C00021FF00200249087020469EE7280300202E
:10C9D0001E00002000BFEFF3058008B10120704762
:10C9E0000020FCE710B54020FEF7AFFB05490870BA
:10C9F0000846007808B900BFFEE70120FFF79DF860
:10CA000010BD00001A00002038B504460D4609E0AC
:10CA10000A48FCF7A3F8042804D009A0FBF750FD4E
:10CA2000012038BD0A202B46224688210090034869
:10CA3000FCF72CF90028EBD100BFF2E7A0010020A1
:10CA40006932633120727820636F6D6D2065727278
:10CA50006F72210038B504460D4609E00A48FCF71C
:10CA60007DF8042804D009A0FBF72AFD012038BD79
:10CA70000A202B462246882100900348FCF742FA00
:10CA80000028EBD100BFF2E7A0010020693263313A
:10CA900020747820636F6D6D206572726F72210053
:10CAA00008B56846FEF7CEFA9DF80000432801D08D
:10CAB000002008BD4020FEF780FB0120F9E70000C0
:10CAC000104811490860FEF773FEFEF771FEFCF78F
:10CAD00025FBFFF7AFF8FEF719FCFEF7DDFBFEF7CD
:10CAE000C5FCFEF7DFFCFEF74DFDFEF769FDFEF726
:10CAF00093FDFEF7F3FCFEF7F5FB00F021F800BF15
:10CB0000FEE700000080000808ED00E0014600207C
:10CB1000842901D0CA1C104470470000014948789C
:10CB2000704700002803002070B5044625460DB16B
:10CB3000294600E00121084600F0B6FF002070BD44
:10CB400010B501F04FF9002010BD000038B50446C3
:10CB50000D4600200090FFF73DFFA0B16B4601227B
:10CB60002946204601F06CFF012801D0FF2038BD86
:10CB7000009890B14FF0805009490860BFF34F8F83
:10CB8000BFF36F8F09E0002301222946204601F000
:10CB900019FE012801D0FF20E9E70020E7E70000A7
:10CBA00004ED00E0FEB506460F4614460020019055
:10CBB0000025601C08B96D1E03E014B1254605B9B7
:10CBC0000125FFF707FF10B18220009017E02B46E8
:10CBD00001AA3946002001F0C7FF012806D015B987
:10CBE000002000900BE04020009008E00198B0F198
:10CBF000004F02D38620009001E0082000909DE8BD
:10CC0000070086E80700FEBD10B501F05DFE0128B3
:10CC100001D001F011FA10BD70B586B004460D4682
:10CC2000B4F90800FFF772FF0646002005AACDE917
:10CC3000012000960390238A9AB22B46D4E9001073
:10CC400001F008FD012802D0002006B070BD059853
:10CC5000FBE710B50446204600F06CFF002010BD35
:10CC600010B50348847803A0FEF780F910BD0000DA
:10CC70002803002070726F784576656E740000009E
:10CC800010B504460E48006844600E4800688442AF
:10CC900007D20B480168091D0B48006800F0CCFD65
:10CCA0000CE007480168091D0848006800F0C4FD51
:10CCB00007480068844201D20548046010BD0000A6
:10CCC000C0000020D4000020C8000020C4000020C4
:10CCD000F00000202DE9F04105460F461FB9A800DD
:10CCE00000F0FAFB00E03846064656B15C2000F042
:10CCF000F3FB04460CB1266304E0304600F00AFE64
:10CD000000E0002424B1A900A522206BFBF7DCFA87
:10CD10002046BDE8F081000010B500F0B3FD1748D3
:10CD2000006840BB164800F077FD164800F074FD1F
:10CD300013481549086013481449086000220C2163
:10CD40000A2001F093F90D4908600846006850B9BF
:10CD500000BF502080F31188BFF34F8FBFF36F8F58
:10CD600000BF00BFFEE70548006820B108A10348E6
:10CD7000006800F065FE00F0AFFD10BDB8000020B7
:10CD80004407002058070020B0000020B400002015
:10CD9000546D72510000000070B523E001F060F89E
:10CDA0001348006808B9012000E00020054601F0A2
:10CDB000FDFFBDB900F066FD0D48C068C468201DC8
:10CDC00000F016FD0B480068401E0A4908600A483A
:10CDD0000068401E0849086000F07EFD204600F013
:10CDE00062F800BF044800680028D7D170BD000079
:10CDF00034080020D0000020CC00002070B504468C
:10CE00000D46206C70B1216CE0680844E0606168F8
:10CE1000E068884201D32068E0602846226CE1681F
:10CE2000FBF732FA70BD2DE9F04104460E46154677
:10CE30000027206C40B9206878BB606801F006FFCD
:10CE400007460020606028E07DB93146226CA0686A
:10CE5000FBF71AFA216CA0680844A060D4E901101D
:10CE600088421AD32068A06017E03146226CE0683F
:10CE7000FBF70AFA216CE068401AE0602168E0687C
:10CE8000884203D2216C6068401AE060022D04D110
:10CE9000A06B10B1A06B401EA063A06B401CA063F0
:10CEA0003846BDE8F08110B50446206B00F032FD35
:10CEB000204600F02FFD10BD0146084A1268126896
:10CEC0000AB9012200E000220A600A6822B9034A76
:10CED0001268D268106800E000207047B00000209F
:10CEE00030B54FF47053174800F007042CB1C01D43
:10CEF00020F00700134C041B1B1B0246124C22603F
:10CF00000024114D6C60D018083820F007000F4C39
:10CF1000206000240D4D2D686C600C4D2D682C6038
:10CF20001146441A4C60094C24680C60084D4C684A
:10CF30002C60084D4C682C604FF00044064D2C606E
:10CF400030BD00009C080020040100200C010020DE
:10CF500014010020100100201801002000BFFFF77D
:10CF60001BFF064800680128F9D94FF0805004499A
:10CF70000860BFF34F8FBFF36F8FF0E76C0700209F
:10CF800004ED00E02DE9F04704460F4615469946AA
:10CF9000DDF82080002607E0B95D04F134008155FA
:10CFA000B85D00B902E0761C102EF5D300BF002159
:10CFB00043200155072D00D30625E562E5640020D6
:10CFC0002065201D00F035FC04F1180000F031FC54
:10CFD0002461C5F10700A06164620020606584F8E7
:10CFE0005800BDE8F087000010B5002407E004EB0E
:10CFF00084010F4A02EB810000F00EFC641C072C38
:10D00000F5D30C4800F008FC0B4800F005FC0B4879
:10D0100000F002FC0A4800F0FFFB0A4800F0FCFBAD
:10D0200004480949086004480849086010BD000028
:10D030006C070020F80700200C08002020080020C2
:10D040003408002048080020C4000020C800002048
:10D0500010B50146164800E0006803688B42FBD318
:10D060000246436813448B4204D143684C6823440E
:10D07000436001460A464B6813440468A34211D139
:10D080000C4C03682468A34208D04B6804686468A9
:10D0900023444B6003681B680B6005E0054B1B686D
:10D0A0000B6001E003680B60884200D0016010BD96
:10D0B000040100200C0100202DE9F04104460D463A
:10D0C00016461F464FF0000865602461B5420CD833
:10D0D000F01BA169884202D34FF0010811E0211D25
:10D0E0000948006800F0A8FB0BE0BE4204D2BD4234
:10D0F00002D34FF0010804E0211D0448006800F04D
:10D100009BFB4046BDE8F081B4000020B000002049
:10D1100070B5054600F0B6FBA86B08B9012400E025
:10D12000002400F0D9FB204670BD70B5054600F024
:10D13000A9FBA86BE96B884201D1012400E000241F
:10D1400000F0CAFB204670BDF8B505460F461648EC
:10D150000068C068C468201D00F04AFBE06901282F
:10D160001ED1A06941192B463A462046FFF7A4FF7D
:10D17000012815D1002003462A460146009020468A
:10D1800001F0C2FE064656B900BF502080F3118858
:10D19000BFF34F8FBFF36F8F00BF00BFFEE700BF2D
:10D1A0002046616A8847F8BDB000002070B586B09F
:10D1B0006BE00398002868DB059C606908B90120D2
:10D1C00000E0002010B9201D00F012FB02A800F0C2
:10D1D000B1F8054603980A2855D2DFE800F00905A2
:10D1E000073234500608333500BF00BF00BF00BF10
:10D1F0000498A269811803462A462046FFF75CFF7F
:10D2000001281DD12046616A8847E069012817D1AD
:10D21000002000900498A169421800231946204676
:10D2200001F072FE064656B900BF502080F3118807
:10D23000BFF34F8FBFF36F8F00BF00BFFEE700BF8C
:10D2400022E000BF20E000BF0498A061A06908B1FF
:10D25000012000E0002050B900BF502080F3118869
:10D26000BFF34F8FBFF36F8F00BF00BFFEE7A06912
:10D2700041192B462A462046FFF71EFF04E02046B0
:10D2800000F048FB00E000BF00BF00231A4603A9DE
:10D290000348006800F030FF00288AD106B070BD56
:10D2A000B8000020F8B504460E4600F0D9FD6846E7
:10D2B00000F040F805460098D0B946B9AC4206D80F
:10D2C00001F074FD29462046FFF73EFF12E0611B86
:10D2D0000948006800F0CAFB01F068FD50B94FF042
:10D2E000805006490860BFF34F8FBFF36F8F01E096
:10D2F00001F05CFDF8BD0000B800002004ED00E086
:10D300000A490968096809B9012100E0002121B131
:10D310004FF0FF31064A116006E004490968C96808
:10D32000C868034A4168116070470000C4000020CB
:10D33000F000002070B5044601F0D6FA0546074813
:10D340000068854204D200F00BF80120206001E063
:10D350000020206001480560284670BDBC00002008
:10D360002DE9F84332E024480068C0680568224887
:10D370000068C068C468201D00F03AFA2046616A5F
:10D380008847E069012821D1A0694619AE4207D932
:10D3900066602461211D1848006800F04DFA15E010
:10D3A000002003462A4601460090204601F0ACFDCD
:10D3B000074657B900BF502080F31188BFF34F8F45
:10D3C000BFF36F8F00BF00BFFEE700BF0A480068D1
:10D3D000006808B9012000E000200028C3D00648FA
:10D3E000D0F8008005480068034908600348C0F889
:10D3F0000080BDE8F8830000B0000020B4000020E9
:10D400000E480068401C08B9012000E0002050B917
:10D4100000BF502080F31188BFF34F8FBFF36F8F91
:10D4200000BF00BFFEE700BF502080F31188BFF3AC
:10D430004F8FBFF36F8F00BF00BFFEE7F8000020E3
:10D4400008B500BF6846FFF737FD0446204600993F
:10D45000FFF728FFFFF7AAFEF4E710B5044600F037
:10D4600011FA11E0606A08B9012000E0002038B923
:10D4700004F1240001F04EFC18B100F0CBFB00E0F9
:10D4800005E0A06C401EA064A06C0028EADC00BF90
:10D490004FF0FF30A06400F01FFA00F0F3F911E044
:10D4A000206908B9012000E0002050B904F1100003
:10D4B00001F030FC08B100F0ADFB606C401E606410
:10D4C00000E002E0606C0028EADC00BF4FF0FF30B3
:10D4D000606400F001FA10BD2DE9F04104464FF000
:10D4E000000800F0BDFC4648006808B9FFF7F8FCEA
:10D4F00044480068204000286BD1D4B1083404F0BF
:10D500000700B0B104F00700C0F10800044404F0C3
:10D51000070008B9012000E0002050B900BF5020EA
:10D5200080F31188BFF34F8FBFF36F8F00BF00BF31
:10D53000FEE7002C4DD034480068844249D8334E71
:10D540003046056801E02E462D686868A04202D288
:10D5500028680028F7D12A480068854239D0306809
:10D5600000F10808286830606868001B102819D985
:10D570002F1907F0070008B9012000E0002050B97A
:10D5800000BF502080F31188BFF34F8FBFF36F8F20
:10D5900000BF00BFFEE76868001B78606C6038461B
:10D5A000FFF756FD184968680968081A16490860A7
:10D5B0000846006816490968884203D21248006884
:10D5C000134908600F4968680968084368600020CB
:10D5D000286001F0EBFB08F0070008B9012000E02B
:10D5E000002050B900BF502080F31188BFF34F8F47
:10D5F000BFF36F8F00BF00BFFEE74046BDE8F0817C
:10D600000C0100201801002010010020040100205E
:10D61000140100200648006830B10549096801F18D
:10D620005000096D491C0160014800687047000006
:10D63000C0000020001F4FF080730360001F0160D6
:10D64000001F054B036014380260001F6FF00203D7
:10D65000036020387047000001D4000810B500BFF7
:10D660000248FCF7F3FA0128FAD110BDE0020020CD
:10D6700010B50446012C05D121460A480068FFF781
:10D6800065FA0EE0022C05D1214607480068FFF735
:10D690005DFA06E0032C04D1214604480068FFF738
:10D6A00055FA10BD0C0000201000002014000020CE
:10D6B00070B500240025FE2012490870052048702E
:10D6C000AA2088700520C8700F480068401C0E49C9
:10D6D00008600C460B4821888180A1788171204622
:10D6E00000790849C8712046407908720921054827
:10D6F000FFF76AF8034948720A21024800F06AF805
:10D7000070BD0000280200209800002070B50C4871
:10D71000C47885780BA0FDF729FC85B1002C05DDC8
:10D72000552C03DA05F00200022808D0002C05DD94
:10D73000AA2C03DA05F00400042800D000BF70BD55
:10D7400028030020736C6964654576656E7400007B
:10D7500010B50348447803A0FDF708FC10BD000095
:10D76000280300207461704576656E740000000027
:10D7700010B50448847804A0FDF7F8FB04B100BF9D
:10D7800010BD000028030020746F7563684576653E
:10D790006E74000010B50446224606490648FDF79F
:10D7A00019F820B105A0FAF78BFE002010BD01206A
:10D7B000FCE7000000000020480200207561727440
:10D7C0002072656365697665206572726F720D0AF5
:10D7D0000000000070B504460D464FF47A732A46E7
:10D7E00021460248FDF7F2F870BD00004802002013
:10D7F00001460A69D1E901309860D1E90103586016
:10D800005068884201D18868506000200861106823
:10D81000401E10601068704700F1080141604FF031
:10D82000FF31816000F10801C160016100210160E8
:10D83000704700210161704710B502460B685C1CFF
:10D840000CB9106907E002F1080000E04068446884
:10D8500024689C42FAD944684C604C68A160886096
:10D8600041600A611468641C146010BD42684A601B
:10D8700093688B60936859609160086103685B1CD2
:10D880000360704700BF502080F31188BFF34F8FB3
:10D89000BFF36F8F00BF0E480068401C0C49086042
:10D8A00008460068012812D10A480068C0B208B9C9
:10D8B000012000E0002050B900BF502080F3118803
:10D8C000BFF34F8FBFF36F8F00BF00BFFEE77047FE
:10D8D000F800002004ED00E00D48006850B900BFDA
:10D8E000502080F31188BFF34F8FBFF36F8F00BFBD
:10D8F00000BFFEE706480068401E0549086008466C
:10D90000006820B9002080F3118800BF00BF704775
:10D91000F800002070B506463546002E3FD0083D81
:10D920002C461F4960680968084008B1012000E0E2
:10D93000002050B900BF502080F31188BFF34F8FF3
:10D94000BFF36F8F00BF00BFFEE7206808B901205A
:10D9500000E0002050B900BF502080F31188BFF3D1
:10D960004F8FBFF36F8F00BF00BFFEE70C496068A9
:10D970000968084098B1206888B909496068096851
:10D980008843606000F06CFA0649606809680844E2
:10D99000044908602046FFF75BFB01F007FA70BD01
:10D9A0001801002010010020064800684FF47A7129
:10D9B000B0FBF1F0401E4FF0E02148610720086104
:10D9C00070470000AC00002070B5FAF747FC044631
:10D9D000102C16D304F1E02090F8F053154800788D
:10D9E000854201DB012000E0002050B900BF50203B
:10D9F00080F31188BFF34F8FBFF36F8F00BF00BF5D
:10DA0000FEE70D48006800F4E0600C4909688842B0
:10DA100001D8012000E0002050B900BF502080F361
:10DA20001188BFF34F8FBFF36F8F00BF00BFFEE7BA
:10DA300070BD0000FC0000200CED00E000010020A3
:10DA4000024600200BE0084B53F8303033B9064B48
:10DA500043F8301003EBC0035A6002E0401C082872
:10DA6000F1D300BF704700005C08002070B5054688
:10DA70000E462C46FFF706FF606C401C08B90020DC
:10DA80006064A06C401C08B90020A064FFF724FF6C
:10DA9000A06B20B9314604F1240000F0FFF82046C5
:10DAA000FFF7DBFC70BD000070B5044600266CB3C8
:10DAB0001B48006808B9012000E0002050B900BFF1
:10DAC000502080F31188BFF34F8FBFF36F8F00BFDB
:10DAD00000BFFEE700F0C4F91248006805191248BB
