:020000040800F2
:10800000B0FD0020658200086D8200086F820008C4
:108010007182000873820008758200080000000069
:10802000000000000000000000000000A98100081E
:108030007982000800000000FD81000801EC0008C2
:108040007F8200087F8200087F8200087F8200080C
:108050007F8200087F820008D59C00087F8200088C
:108060007F8200087F8200087F8200087F820008EC
:108070007F8200087F8200087F8200087F820008DC
:108080007F8200087F8200084D9B000800000000EE
:10809000000000000000000000000000FB9C000841
:1080A0007F8200087F8200087F8200087F820008AC
:1080B0007F8200087F8200087F8200087F8200089C
:1080C0007F8200087F8200087F8200087F8200088C
:1080D0007F8200087F82000839F500080000000058
:1080E000DF9C000821E500087F82000800000000F6
:1080F0000000000000000000000000007F82000877
:10810000000000007F8200087F8200087F82000854
:10811000000000000000000000000000000000005F
:108120007F8200087F8200087F8200087F8200082B
:108130007F82000800000000000000000000000036
:108140000000000000000000000000007F82000826
:108150007F8200087F8200087F8200087F820008FB
:108160007F8200087F8200080000000000000000FD
:1081700000000000000000000000000000000000FF
:10818000000000007F8200080000000000000000E6
:108190007F820008DFF80CD001F06AFC004800473D
:1081A000CD130108B0FD00202B4B19680868B0E81A
:1081B000F04F80F30988BFF36F8F4FF0000080F31A
:1081C000118870470000000006480068006880F3CE
:1081D000088862B661B6BFF34F8FBFF36F8F00DFC1
:1081E00000BF00BF08ED00E0DFF80C00016841F4BB
:1081F00070010160704700BF88ED00E0EFF3098077
:10820000BFF36F8F144B1A681EF0100F08BF20EDDC
:10821000108A20E9F04F106008B44FF0500080F34E
:108220001188BFF34F8FBFF36F8F0AF0CDFC4FF073
:10823000000080F3118808BC19680868B0E8F04FA6
:108240001EF0100F08BFB0EC108A80F30988BFF34E
:108250006F8F704700BF00BF741F0020EFF30580D1
:10826000704700000648804706480047FEE7FEE7E3
:10827000FEE7FEE7FEE7FEE7FEE7FEE7FEE7FEE7D6
:10828000D9EC000895810008002804BF4FF0FF30AA
:108290007047816A00291CBF016A002925D08169C5
:1082A00000291CBF016B00291FD0C16A00291CBF17
:1082B000416A002919D0C16900291CBF4169002900
:1082C00013D0816800291CBF416800290DD00169C5
:1082D00000291CBF0168002907D0C16800291FBF01
:1082E000816B0029C16B002902D16FF0010070473A
:1082F00010B5FC4C4FF494716180802121800421E1
:10830000A1800021E160C821E1803221206121812A
:1083100000F098FC002804BF6FF0020010BD208917
:1083200000F0CFFF002010BD0B4640B1012808D05F
:10833000022818BF70471146184600F028BE00F00A
:108340006ABD1146184600F080BD2DE9F05F044675
:1083500000F0EEFFDFF88CA3002C40F0CB80042867
:10836000C0F0C8800AF114024FF49441107800BFA5
:1083700000F0F300491EFBD1107000F069FF0021EE
:1083800001F049F8DAF80C10814218BFCAF80C0065
:10839000DAF80C50002D08BFBDE8F09FDFF848B3B5
:1083A00055F8040FB0F1AA3F0CD0B0F1FF3F08BF61
:1083B0004FF0FF080FD0B0F1553F08BF4FF0550800
:1083C00009D009E000F0BCFF00284FF0AA0814BF54
:1083D0005527FF2700E0AA27E8884FF0000900286A
:1083E0004FDDA8880026002820D900BFDAF8100049
:1083F000406B002818BF804740F2271442462021D6
:10840000584601F0ACF8B849204600F0B4FE641EAE
:10841000F4D500BFDAF81000C06B80470128F9D00E
:1084200000F0F9FCA888761CB042DFD800260004D2
:10843000000C1FD0DAF81000406B002818BF8047EE
:1084400040F227143A462021584601F088F8A64900
:10845000204600F090FE641EF4D500BFDAF810004C
:10846000C06B80470128F9D000F0D5FCA888761CA5
:10847000B042DFD809F101000FFA80F9E8884845D9
:10848000AFDCDAF81000406B002818BF804740F2DC
:1084900027142021584601F069F89349204600F03E
:1084A0006AFE641EF5D500BFDAF81000C06B804785
:1084B0000128F9D000F0AFFC00238C4C9C46E0185A
:1084C0004021401E491E10F8012F02F00F0242EA1F
:1084D000021200F8012B027802F00F0242EA0212A7
:1084E0000270EFD180330CF1010CBCF5947FE6DB18
:1084F000BDE8F09F7D484FF4944302785B1E02F084
:10850000F302FBD1027000F0A3FE214600F083FFCE
:10851000DAF80C10814214BFCAF80C000846002893
:1085200008BFBDE8F09F00F10409B0F900006E4EED
:108530004FF0000B002888BF6D4D57D9DAF81000B6
:10854000406B002818BF80475FF00002002005EB59
:10855000021110234FEA820C0CEBA004870719F8D4
:1085600004407F0FFC40401C5B1E04F003041B040E
:1085700001F8014B1B0CEFD1501C82B2102AE5D33D
:108580005A4F40F2271809F140093C463046202155
:1085900014F8012B491E14F8013BAA5CEB5C43EA7A
:1085A000820214F8023BEB5C43EA820214F8013CBD
:1085B000EB5C43EA820200F8012BE9D14A494046CC
:1085C000803700F0D8FDB8F10108DED5DAF81000E8
:1085D000C06B80470128F9D000F01DFCDAF80C00D0
:1085E0000BF1010BB0F900005845A7D800233F4C10
:1085F0009C46E0184021401E491E10F8012F02F051
:108600000F0242EA021200F8012B027802F00F0278
:1086100042EA02120270EFD180330CF1010CBCF57A
:10862000947FE6DBBDE8F09F10B5044600F041F80A
:108630002046BDE8104088E62C4870472D484FF48E
:10864000944100BF10F8012F491E42F0030200F8C8
:10865000012B027842F003020270F3D1002074E68D
:108660002048807900F046BB00F046BD00F06CBEAB
:1086700000280EDC4042B0F5AF5F0CDCC0F5AF5017
:10868000C0EB00204FF4AF5190FBF1F01549C880CA
:1086900070470020EEE74FF4AF50EFE71648704701
:1086A0001049088100F00DBE0E480089704700F0A7
:1086B000CFBD2DE9F0010D4890F88020017802F03F
:1086C000330C024601F033045378417892F880204D
:1086D00001F0330103F0030302F00302332C0DD049
:1086E000DCB12BE0EC65002000FA002000660020E1
:1086F00020FA0020FF65002088610208FE4CB3EBE1
:10870000111F247844F0400408BFB2EB1C1F14D1A1
:10871000032B08BF032A10D110E0F74CB3EB111F55
:10872000247844F0800408BFB2EB1C1F05D111F07F
:108730000F0F08BF1CF00F0F00D004700124401C65
:1087400090F800C010F8011C427890F880300CF0CE
:10875000330501F0330102F0330203F03303332D0C
:1087600001D0D5B134E001F00F05B5EB111F01BF09
:1087700002F00F01B1EB121F03F00F02B2EB131F57
:108780001CBF4CF04001017022D1032D06BF03290C
:10879000032A4CF040011AD11AE001F00F05B5EBA5
:1087A000111F04BF02F00F05B5EB121F0DD103F02E
:1087B0000F05B5EB131F08BF11F00F0F05D112F015
:1087C0000F0F08BF13F00F0F02D04CF080010170A3
:1087D000611C8CB2401C7F2CB2D310F8011C0378B2
:1087E00001F0330290F8801003F0330C01F03301F4
:1087F000BCF1330F03D0BCF1000F15D027E002F01D
:108800000F0CBCEB121F07BF01F00F02B2EB111FE0
:1088100043F0400101701AD1BCF1030F0CBF032AD1
:1088200043F0400112D112E002F00F0CBCEB121F1A
:1088300004BF01F00F0CBCEB111F05D112F00F0F9C
:1088400008BF11F00F0F02D043F080010170DFF874
:10885000A882012608EBC6100478417890F88020A1
:1088600010F8803C04F0330C01F0330102F03302C5
:1088700003F03303BCF1330F03D0BCF1000F1BD066
:1088800035E001F00F0CBCEB111F01BF02F00F012E
:10889000B1EB121F03F00F02B2EB131F1CBF44F029
:1088A0004001017023D1BCF1030F06BF0329032A45
:1088B00044F040011AD11AE001F00F0CBCEB111F7B
:1088C00004BF02F00F0CBCEB121F0DD103F00F0C14
:1088D000BCEB131F08BF11F00F0F05D112F00F0FE3
:1088E00008BF13F00F0F02D044F080010170012582
:1088F000401C047810F8011C427890F8803010F881
:1089000080CC04F0330701F0330102F0330203F0AE
:1089100033030CF0330C332F01D01FB345E001F0CB
:108920000F07B7EB111F04BF02F00F01B1EB121FCD
:1089300009D103F00F02B2EB131F04BF0CF00F03B9
:10894000B3EB1C1F03D044F0400101702DE0032F56
:1089500008BF032903D1032A08BF032B25D044F005
:10896000400121E001F00F07B7EB111F04BF02F037
:108970000F07B7EB121F15D103F00F07B7EB131F4B
:1089800004BF0CF00F07B7EB1C1F0BD111F00F0F3A
:1089900008BF12F00F0F05D113F00F0F08BF1CF026
:1089A0000F0F02D044F080010170691C8DB2401C91
:1089B0007F2D9ED3047810F8011C90F8802010F8C9
:1089C000803C04F0330C01F0330102F0330203F079
:1089D0003303BCF1330F03D0BCF1000F1BD035E0E3
:1089E00001F00F0CBCEB111F01BF02F00F01B1EB46
:1089F000121F03F00F02B2EB131F1CBF44F0400123
:108A0000017023D1BCF1030F06BF0329032A44F0F0
:108A100040011AD11AE001F00F0CBCEB111F04BF8A
:108A200002F00F0CBCEB121F0DD103F00F0CBCEBCE
:108A3000131F08BF11F00F0F05D112F00F0F08BF61
:108A400013F00F0F02D044F080010170701C86B249
:108A5000B6F5937F7FF6FEAE28480378417810F88C
:108A6000802C03F0330C01F0330102F03302BCF12F
:108A7000330F03D0BCF1000F15D027E001F00F0C2D
:108A8000BCEB111F07BF02F00F01B1EB121F43F047
:108A9000400101701AD1BCF1030F0CBF032943F050
:108AA000400112D112E001F00F0CBCEB111F04BF0A
:108AB00002F00F0CBCEB121F05D111F00F0F08BF15
:108AC00012F00F0F02D043F0800101700124401C0E
:108AD00010F8011C90F800C001F03302417810F842
:108AE000803C0CF0330501F0330103F03303332DE8
:108AF00006D0FDB139E000000066002080F90020BA
:108B000002F00F05B5EB121F01BF01F00F02B2EB2F
:108B1000111F03F00F01B1EB131F1CBF4CF04001FC
:108B2000017022D1032D06BF032A03294CF0400116
:108B30001AD11AE002F00F05B5EB121F04BF01F0C5
:108B40000F05B5EB111F0DD103F00F05B5EB131F8A
:108B500008BF12F00F0F05D111F00F0F08BF13F06F
:108B60000F0F02D04CF080010170611C8CB2401CD0
:108B70007F2CADD310F8011C037801F0330210F8FC
:108B8000801C03F0330C01F03301BCF1330F15D01E
:108B9000BCF1000F1CBFBDE8F001704702F00F0CE4
:108BA000BCEB121F06BF01F00F0CBCEB111F43F012
:108BB000800117D00170BDE8F001704702F00F0C82
:108BC000BCEB121F04BF01F00F02B2EB111F06D164
:108BD000BCF1030F02BF032ABDE8F001704743F068
:108BE0004001E7E712F00F0F0EBF11F00F0F43F037
:108BF00080010170BDE8F0017047000038B57120B8
:108C00008DF80000FE4C60680168002088476068AD
:108C10004068804760680121C26868469047606884
:108C2000006980478DF80000606880688047606850
:108C30000168012088479DF8000012280CBF012020
:108C4000002038BD70B5EE4C82B0EE49C4E900108A
:108C5000806980470026EC4D00960098401C0090EB
:108C6000A842FAD36068806A80476068C06980471C
:108C700000960098401C0090A842FAD360684069B2
:108C8000804700960098401C0090A842FAD3E04824
:108C9000DE497125C0E90016CDF800608DF804505A
:108CA00060680168002088476068406880476068A5
:108CB0000121C26801A890476068006980478DF86B
:108CC0000400606880688047606801680120884708
:108CD0009DF804001228009806D0401C00900A2835
:108CE000DCD302B0002070BD0A2838BF0120F8D2C2
:108CF00002B070BD2DE9F843C14C80466068406900
:108D000080476068C0698047D121072000F0EBFAF6
:108D10000321082000F0E7FA702608258DF800608E
:108D200001208DF801006068BA4F40688047606894
:108D30000221C2686846904760682946C268384682
:108D400090476068806880470221042000F0CBFAD9
:108D50004146092000F0C7FA0021052000F0C3FABF
:108D60006068016B1E2088470121052000F0BBFAD6
:108D70006068016B1E2088470321052000F0B3FACC
:108D80006068016B1E2088470721052000F0ABFAC0
:108D90006068016B3C2088470F274FF073086068BC
:108DA0000168002088478DF800608DF801706068C8
:108DB0004068804760680221C268684690476068E2
:108DC000806880478DF800806068406880476068F0
:108DD0000121C26868469047606800698047606802
:108DE0000069804705466068806880476068016860
:108DF0000120884715F0400FD1D00F21052000F049
:108E000072FA6068016B1E208847BDE8F8430E21A6
:108E1000022000F068BA70B5794C6068C06A80477B
:108E20000028FAD160687C4E312540688047606830
:108E30002946C26830469047606880688047BDE830
:108E400070400F21022000F04EBA2DE9F04F85B09E
:108E50004FF000096A4C8B46051ECDF810904FF07C
:108E6000020A4FF07006CDF80C9036DD6068DFF82E
:108E7000AC8131274068804760683946C268404607
:108E800090476068806880476068C06A804748B1E2
:108E90000498401C0490A0283ADC6068C06A8047AF
:108EA0000028F5D18DF800600F208DF801A08DF815
:108EB000020060684068804760680321C2686846B5
:108EC00090476068806880476068016B58468847B3
:108ED0000398401C0390A842C8DBCDF80C90002DED
:108EE0003BDD6068DFF83881312740688047606883
:108EF0003946C2684046904760688068804760682D
:108F0000C06A804770B10498401C0490A02804DD1A
:108F100005B04FF0FF30BDE8F08F6068C06A804751
:108F20000028F0D18DF800600F208DF801A08DF899
:108F3000020060684068804760680321C268684634
:108F400090476068806880476068016B5846884732
:108F50000398401C0390A842C3DB6068C06A804746
:108F60000028FAD160682C4E31254068804760683F
:108F70002946C268304690476068806880470F2164
:108F8000022000F0B0F905B00020BDE8F08F2DE917
:108F9000F04F85B04FF00009194C8B46051ECDF8F7
:108FA00010904FF0020A4FF07006CDF80C9049DD9A
:108FB0006068DFF86C803127406880476068394618
:108FC000C268404690476068806880476068C06AB1
:108FD000804748B10498401C0490A0284DDC60688C
:108FE000C06A80470028F5D18DF800600F208DF809
:108FF00001A08DF80200606840688047606811E059
:10900000DC1F0020AC070100A0860100700AC00030
:1090100020FB0020946102087C620208DE620208E4
:10902000AD620208C26803216846904760688068A4
:1090300080476068016B584688470398401C03903E
:10904000A842B5DBCDF80C90002D3BDD6068DFF861
:10905000C48231274068804760683946C26840460C
:1090600090476068806880476068C06A804770B1D8
:109070000498401C0490A02804DD05B04FF0FF3098
:10908000BDE8F08F6068C06A80470028F0D18DF895
:1090900000600F208DF801A08DF802006068406824
:1090A000804760680321C2686846904760688068AE
:1090B00080476068016B584688470398401C0390BE
:1090C000A842C3DB6068C06A80470028FAD16068A4
:1090D000914E31254068804760682946C268304615
:1090E00090476068806880470F21022000F0FBF8FD
:1090F00005B00020BDE8F08F10B50721052000F075
:10910000F2F8864C6068016B1E2088470321052019
:1091100000F0E9F86068016B1E20884701210520F6
:1091200000F0E1F86068016B1E20884700210B20E9
:1091300000F0D9F84021072000F0D5F88021042064
:1091400000F0D1F80021052000F0CDF86068016B37
:109150001E2088470021082000F0C5F86068016BD8
:109160001E20884702210B2000F0BDF86068006ACD
:10917000BDE8104000472DE9F047694E0746002042
:10918000B060664CF062306360680D46B14640687E
:109190004FF03108804760684146C26848469047B2
:1091A0006068806880476068C26B90470128FAD089
:1091B0006068816B206888476068C26A90470028B1
:1091C000FAD10F21022000F08EF8564907F00F0067
:1091D00051F82000B0603809403151F82010F16298
:1091E000514951F82000306306F10C00411B002961
:1091F00001DD082904DB2022294600F090F90FE068
:109200002968016069684160A9688160E968C16096
:109210002969016169694161A9698161E969C1617E
:1092200060683F4E31254068804760682946C268C3
:10923000304690476068806880476068C06A8047B1
:109240000028FAD1BDE8F0470F21022000F04BB80A
:1092500038B5324C606801680020884770208DF86E
:1092600000000F208DF8010060684068804760684A
:109270000221C26868469047606880688047732012
:109280008DF8000060684068804760680121C2680E
:109290006846904760680069804760680069804759
:1092A00005466068806880476068016801208847DB
:1092B00005F01F001E282EBF462000EB400013388B
:1092C00038BD002808BF012002D0642888BF642070
:1092D00016494FF49472B1FBF0F0B0FBF2F00F4975
:1092E00043380860704738B570228DF8002000F0D0
:1092F0000F000A4C8DF801008DF80210606840687C
:10930000804760680321C26868469047606880684B
:10931000804738BDDE6202087C620208DC1F002044
:1093200020FB00209C6102082C62020800CA9A3BC4
:1093300061480068008870475F480068406870476F
:109340005D480068407B70472DE9F0035A4E0021CC
:109350000446B1723060B0F80090B9F1030F9CBFC1
:1093600000F11001716007D9B9F1040F0CBF00F1D1
:10937000300100F1800171606189042202EB8102F9
:10938000328100291CBF2189002934D010F8011B2B
:10939000626810F8033B121F194424D0B2F1004F49
:1093A00032D2A2F1010CBCF1000F17DD431E12F006
:1093B000010F02D113F8015F29445D7800275FEAAD
:1093C0006C0C09D013F8028F29445D78474489B2A8
:1093D000BFB2BCF1010CF5D1394489B2521E02D49E
:1093E000805C084481B24842618880B2814202D1E7
:1093F000B9F1050F03D9BDE8F00300207047012043
:10940000B072BDE8F003704710F8013B521E1944DA
:1094100089B2F9D1E7E72DE9F001274A4FF48075C9
:109420000027937A23B313681E890EB3B3F80AC0DA
:109430008C459CBFACF10101C9B2D2F804C093F9CC
:10944000412004468242DCBF93F94280404504DC5F
:10945000821A43329A56101900B2BCF90020824297
:109460000ADB0CEB81004068BDE8F001184470474E
:10947000BDE8F001002070470F4A0024002EB2F82A
:1094800008800FD908FB04C21288821A12B2002A7F
:10949000BCBF524212B2AA42BCBF154627B2641CDE
:1094A000A642EFD808FB07C000EB81004068BDE88A
:1094B000F001184470470000A0FB00202DE9F041A6
:1094C0000024061B254671F1000605DA0124002759
:1094D000D0EB070067EB0101161E73F1000605DAF9
:1094E0000027D2EB0702012567EB030300F0EBF83E
:1094F00086460E4617469C46AC4204D00025D0EB6B
:10950000050E65EB010624B10020D2EB000760EBED
:10951000030C704631463A466346BDE8F08110B50B
:10952000431A934209D28318881803E010F8011DEA
:1095300003F8011D521EF9D210BD40EA01039B073A
:1095400003D009E008C9121F08C0042AFAD203E0B8
:1095500011F8013B00F8013B521EF9D210BDD2B206
:1095600001E000F8012B491EFBD270470022F6E70C
:1095700010B513460A4604461946FFF7F0FF204689
:1095800010BD421C10F8011B0029FBD1801A704746
:109590002DE9FE4F81EA030404F0004421F000416C
:1095A00000944FF0000B23F0004350EA01045ED01A
:1095B00052EA03045BD0C3F30A54C1F30A552C44A6
:1095C000A4F2F3340194A0FB0254C1F3130141F45B
:1095D0008011C3F3130343F4801301FB024400FB27
:1095E000034E840A970A44EA815447EA8357A4FB4E
:1095F000076802958D0A05FB07854FEA932C04FB4B
:109600000C542705029D4FEA065847EA1637B5EB7A
:1096100008056EEB070C870E920E47EA811742EAA7
:109620008312A7FB0201B6EB0B0164EB00042B0DC8
:1096300043EA0C335E1844EB1C50DA465146E7FB14
:109640000201C5F313044FEA0B3343EA14534FEA04
:109650000432019C43EA0603A4F10C040294009C2A
:10966000CDE900B400F06FF803B0BDE8F08F002042
:109670000146F9E700F0004230F000400AD0C10D89
:1096800001F56071C0F3160042EA0151C2084007BB
:109690001143704700200146704730B50B46014624
:1096A00000202022012409E021FA02F59D4205D381
:1096B00003FA02F5491B04FA02F52844151EA2F12B
:1096C0000102F1DC30BD2DE9F05F05460020924635
:1096D0009B4688460646814640241BE02846414674
:1096E0004746224600F0E5F953465A46C01A9141D2
:1096F00010D311461846224600F0CCF92D1A67EB1C
:1097000001084F4622460120002100F0C3F917EB63
:1097100000094E41201EA4F10104DFDC4846314619
:109720002A464346BDE8F09F10B5141E73F10004AD
:1097300008DA401C41F1000192185B411A4301D143
:1097400020F0010010BD2DE9F04D92469B4611B16D
:10975000B1FA81F202E0B0FA80F22032904600F0D5
:1097600099F904460F4640EA0A0041EA0B015346C4
:109770005A46084313D0114653EA010019D0C8F1E4
:109780004002504600F095F905460E4650465946AF
:10979000424600F07FF9084305D0012004E020464E
:1097A0003946BDE8F08D0020054346EAE0762C43BB
:1097B00037430A986305E40AA0EB08000022FD0A7B
:1097C00044EA47540A3002D500200146E9E7010582
:1097D00010196941DDE9084500196941BDE8F04DFE
:1097E000A2E72DE9FE4F804681EA0300C00F0C4638
:1097F000009021F0004123F00045B8EB0200A941A0
:1098000005D24046214690461C460B46024623F0B0
:109810000040104347D0270DC7F30A00C3F30A5195
:109820000290401A019040286BDAC3F3130040F411
:10983000801B0098924620B10023D2EB030A63EB11
:109840000B0B01985946C0F14002504600F022F936
:1098500006460D4650465946019A00F03AF910EB7B
:1098600008006141002487EA115284EAE7731A4331
:1098700040D0009A62B3019A012A4FEA075215DCE0
:10988000001B61EB02014FF0004202EA0752CDE9F2
:109890000042001C41F5801132462B46FFF753FF72
:1098A00003B0BDE8F08F40462146F9E7001B61EBAD
:1098B0000201001C41F5801300185B412018A2F53D
:1098C000001747EB030140EAD570B6196D4111E06E
:1098D0006D084FEA360645EAC0754FEA0752001B8D
:1098E00061EB0201001C41F5801149084FEA30008C
:1098F0000019514132462B4603B0BDE8F04FFFF747
:1099000013BF0098012240000023D0EB020263EB5A
:10991000E073009821464FEAE074B8EB000061EB79
:109920000401E9E783F000435BE781F0004158E779
:109930002DE9F04D81EA030404F0004B21F00045CD
:1099400014464FF0000A23F0004150EA050220D0EF
:1099500054EA01021DD0C5F30A570246C5F31303AA
:10996000C1F31300C1F30A5640F4801543F4801389
:10997000A7EB0608101BD64608F2FD3873EB05006E
:1099800002D308F1010801E092185B41B8F1000F21
:1099900003DA00200146BDE8F08D00204FF480116D
:1099A000064684460EE0171B73EB050705D3121B12
:1099B00063EB050306434CEA010C49084FEA30000B
:1099C00092185B4150EA0107EDD152EA030012D030
:1099D00082EA040083EA0501084305D0101BAB416D
:1099E00006D20122002306E000224FF0004302E0ED
:1099F0006FF0010253101AEB06004CEB085110EB0C
:109A00000A0041EB0B01BDE8F04DFFF78DBEC1F33D
:109A10000A52C1F3130140F2FF3341F480119A421C
:109A200002DA00200146704740F233439A42A2F224
:109A3000334202DC524200F03CB800F02BB8000088
:109A400030B5041E71F1000404DB4FF000444042C5
:109A500064EB0101141E73F1000405DB1C464FF09A
:109A60000043524263EB0403994208BF904230BD69
:109A7000064C074D06E0E06840F0010394E807005B
:109A800098471034AC42F6D3FEF788FBBC6302085B
:109A9000DC630208202A04DB203A00FA02F10020ED
:109AA00070479140C2F1200320FA03F3194390401C
:109AB0007047202A04DB203A21FA02F00021704787
:109AC00021FA02F3D040C2F1200291400843194626
:109AD0007047202A06DBCB17203A41FA02F043EA0E
:109AE000E07306E041FA02F3D040C2F12002914057
:109AF00008431946704770B58C1810F8015B15F0D3
:109B0000070301D110F8013B2A1106D110F8012BEF
:109B100003E010F8016B01F8016B5B1EF9D12B0714
:109B200005D40023521E0DD401F8013BFAE710F8CA
:109B3000013BCB1A921C03E013F8015B01F8015BB7
:109B4000521EF9D5A142D8D3002070BD10B50248ED
:109B500000F095FD10BD0000202000205A49096842
:109B600021F44031594AC2F804131146D1F80413C4
:109B700042681143544A11600168496821F48071B8
:109B80000268516001684A68016942EA012102687D
:109B900051600168496821F04071026851600168B4
:109BA000496882681143026851600168896821F43C
:109BB00000610268916001688968C26811430268A7
:109BC0009160434A816A914218D00168896821F006
:109BD00070610268916001688968826A1143026855
:109BE00091600168896821F04051026891600168C4
:109BF0008968C26A1143026891600BE00168896854
:109C000021F07061026891600168896821F040511B
:109C1000026891600168896821F002010268916020
:109C200001688A68816942EA410102689160016ABB
:109C3000D1B10168496841F400610268516001686E
:109C4000496821F460410268516001684A68416ACC
:109C5000491E4FF4604393FAA3F3B3FA83F3994098
:109C60000A4301684A6005E00168496821F400611F
:109C7000026851600168C96A21F470010268D1620A
:109C80000168CA6A818B491E42EA01510268D162A9
:109C90000168896821F400710268916001688A682E
:109CA000016B42EA4121026891600168896821F4F0
:109CB00080610268916001688A68416942EA812195
:109CC00002689160704700000423014000200140B9
:109CD0000100000F10B5012001F09AF810BD10B579
:109CE0004FF4806001F094F84FF4006001F090F8B8
:109CF0004FF4805001F08CF810BD10B5402001F0F9
:109D000087F84FF4007001F083F810BD10B50446D9
:109D1000224602A1002004F043FD10BD6572726F5F
:109D2000723A25730D0A000010B5002201B909E04E
:109D3000012901D10A0205E0022901D10A0201E04C
:109D40004FF44072114B1B6823F440730F4C236097
:109D500023461B681343236023461B6823F0F80344
:109D6000236023461B68F82494FAA4F4B4FA84F41C
:109D700000FA04F444F002042343044C2360234615
:109D80001B6843F48033236010BD0000103C024088
:109D90001C48006800F40070B0B11A48006820F454
:109DA00000701849086000BF0846006840F4006071
:109DB00008600846006820F40060086000BF08469C
:109DC000006840F4007008600E48006800F480608D
:109DD000B0B10C48006820F480600A49086000BFF8
:109DE0000846006840F4805008600846006820F487
:109DF0008050086000BF0846006840F4806008603A
:109E000070470000003C02400A4A126822F4407287
:109E1000084B1A601A46126842F004021A601A4689
:109E200012684FF4803343EA00231A43014B1A604F
:109E300070470000103C0240074A126822F440724A
:109E4000054B1A601A4612681A601A46126842F0E8
:109E500001021A6001707047103C024010B50949B8
:109E6000096821F44071074C21602146096841F4DA
:109E7000407121602146096841F0010121600260C2
:109E8000436010BD103C0240084A126822F4407240
:109E9000064B1A601A46126842F480721A601A461B
:109EA000126842F001021A6001807047103C0240C3
:109EB000084A126822F44072064B1A601A46126869
:109EC00042F400721A601A46126842F001021A60E7
:109ED00001607047103C02402A480068C0F300103F
:109EE00040B12948C06940F010002749C8611020DE
:109EF0002449086023480068C0F3401040B122485C
:109F0000C06940F008002049C86120201D49086050
:109F10001C480068C0F3801040B11B48C06940F085
:109F200004001949C86140201649086015480068B6
:109F3000C0F3C01040B11448C06940F0020012499B
:109F4000C86180200F4908600E480068C0F30020F7
:109F500048B10D48C06940F001000B49C8614FF499
:109F600080700849086007480068C0F3400040B1AD
:109F70000548C06940F020000349C861022001493A
:109F8000086070470C3C02407428002070B50446FD
:109F9000002500201749C86101F040F8054609E096
:109FA000601C38B124B101F039F8401BA04201D93E
:109FB000032070BD10480068C0F300400028EFD1B6
:109FC0000D48006800F0010010B101200A49086046
:109FD0000948006800F4F970B0F5F97F01D101205B
:109FE00000E0002018B1FFF777FF0120E1E7002033
:109FF000DFE70000742800200C3C02402DE9F0410E
:10A00000044615461E46A14202DA23460C4619466E
:10A01000DFF880C1BCF90CC0AC4508DCDFF874C1C6
:10A02000BCF90C80BCF910C0C444AC4501DCBDE8EF
:10A03000F081DFF860C1BCF90AC0A44503DDDFF898
:10A0400054C1BCF90A40DFF84CC1BCF90A80BCF924
:10A050000EC0C4448C450ADCDFF838C1BCF80A8065
:10A06000BCF80EC0C444ACF1010C0FFA8CF12346CD
:10A0700004EBC51C1FFA8CF7DFF818C1DCF800C030
:10A080000CEB070006EB064C0CEB0C2200F0010C6D
:10A09000BCF1000F15D0B1EB040C12D404F1010C8B
:10A0A0000FFA8CF490F800C00CF0F00C80F800C0AF
:10A0B00090F800C002F00F084CEA080C80F800C0CD
:10A0C000401C00F0020CBCF1000F1BD0A1EB040CF3
:10A0D000BCF1010F16DB04F1020C0FFA8CF4B0F89E
:10A0E00000C04FF2F0080CEA080CA0F800C0B0F86D
:10A0F00000C040F60F7802EA08084CEA080CA0F805
:10A1000000C0801C10E0D0F800C00CF0F03CC0F89B
:10A1100000C0D0F800C04CEA020CC0F800C0001D1E
:10A1200004F1040C0FFA8CF404F1030C8C45EADD05
:10A1300004F1010C8C4516DC04F1020C0FFA8CF4CE
:10A14000B0F800C04FF2F0080CEA080CA0F800C00C
:10A15000B0F800C040F60F7802EA08084CEA080C94
:10A16000A0F800C0801C8C4212DC04F1010C0FFA34
:10A170008CF490F800C00CF0F00C80F800C090F85F
:10A1800000C002F00F084CEA080C80F800C0401C28
:10A1900000BF4CE71826002030B50346174CB4F931
:10A1A0000A409C4214DC154CB4F90C408C420FDC84
:10A1B000124CB4F90A50B4F90E402C449C4207DD0D
:10A1C0000E4CB4F90C50B4F910402C448C4200DC15
:10A1D00030BD03EBC114A0B2084C2468245C04F029
:10A1E000F004064D2D682C54044C2468245C144360
:10A1F000024D2D682C5400BFEAE70000182600200D
:10A200002DE9F05F0746884614461D4604B10DB996
:10A21000BDE8F09F002C04DA3819401E07B26042F6
:10A2200004B2002D06DA08EB0500401E0FFA80F894
:10A23000684205B2B94646463819401E0FFA80FA00
:10A2400008EB0500401E0FFA80FB1A48B0F90A001F
:10A25000504514DC1748B0F90C0058450FDC154880
:10A26000B0F90A10B0F90E000844484507DD11485E
:10A27000B0F90C10B0F910000844B04200DCC7E798
:10A280003246514648460A9BFFF7B8FE5A465146A9
:10A2900048460A9BFFF7B2FE5A46314648460A9B9B
:10A2A00000F00AF85A46314650460A9B00F004F87E
:10A2B00000BFADE718260020F0B504461D468A42CF
:10A2C00002DA0B4611461A461D4FB7F90A70A7422B
:10A2D00007DC1B4FB7F90AC0B7F90E706744A742F5
:10A2E00000DCF0BD164FB7F90C708F4202DD144F41
:10A2F000B7F90C10124FB7F90CC0B7F910706744DA
:10A30000974206DC0E4FB7F80CC03F8A67447F1EA9
:10A310003AB20B4604EBC117BEB2094F3F68B819F9
:10A3200009E0077807F0F007077007782F430770F8
:10A3300080304F1C39B29142F3DD00BFD1E70000FD
:10A34000182600202DE9F05F0746884614461D4672
:10A3500004B10DB9BDE8F09F002C04DA3819401E95
:10A3600007B2604204B2002D06DA08EB0500401E79
:10A370000FFA80F8684205B2B94646463819401EC1
:10A380000FFA80FA08EB0500401E0FFA80FB144814
:10A39000B0F90A00504514DC1148B0F90C005845DA
:10A3A0000FDC0F48B0F90A10B0F90E000844484518
:10A3B00007DD0B48B0F90C10B0F910000844B042AA
:10A3C00000DCC7E707E03246514648460A9BFFF7E4
:10A3D00015FE701C06B25E45F5DD00BFBAE7000051
:10A3E0001826002010B50146134A1160002009E02C
:10A3F000002300EB4004104A143202EB04121370E5
:10A40000421C90B20828F3D300220B4B5A81002340
:10A41000094A93818023D3814FF4947313820022DD
:10A42000054B1A71FF225A7100229A710322DA71C8
:10A4300000221A7210BD00001826002001460020DC
:10A440001D4A914203D2B1F1006F00D333E01B4AA1
:10A45000914204D2184A914201D301202BE0184ABC
:10A46000914204D2154A914201D3022023E0154AB9
:10A47000914204D2124A914201D303201BE0124AB6
:10A48000914204D20F4A914201D3042013E00F4AB3
:10A49000914204D20C4A914201D305200BE00C4AB0
:10A4A000914204D2094A914201D3062003E0084AAE
:10A4B000914200D307207047004000080080000848
:10A4C00000C00008000001080000020800000408A5
:10A4D000000006087047000018B5024600200090F2
:10A4E00000BF92F83C00012801D1022018BD0120D4
:10A4F00082F83C0000BF0868092816D91068C068B7
:10A500000B780A3B03EB43040723A34098431368EB
:10A51000D8600B780A3B03EB4303886898401368C4
:10A52000DB6818431368D86013E0106800690B7883
:10A5300003EB43040723A3409843136818610B7887
:10A5400003EB43038868984013681B69184313683A
:10A5500018614868072817D21068406B0B795B1E9A
:10A5600003EB83041F23A3409843136858630888B0
:10A5700080B20B795B1E03EB8303984013685B6B1F
:10A5800018431368586331E048680D2817D21068E3
:10A59000006B0B79DB1F03EB83041F23A34098435D
:10A5A00013681863088880B20B79DB1F03EB830301
:10A5B000984013681B6B18431368186316E0106803
:10A5C000C06A0B790D3B03EB83041F23A340984320
:10A5D0001368D862088880B20B790D3B03EB8303C4
:10A5E00098401368DB6A18431368D8621B4B1068E5
:10A5F000984208D10868122805D11948006840F42B
:10A600008000C3F80403154B106898421ED10868F7
:10A61000102802D00868112818D11148006840F4A9
:10A6200000000F4B1860086810280FD10D48006813
:10A630000D4BB0FBF3F000EB80004000009002E017
:10A640000098401E009000980028F9D100BF00201B
:10A6500082F83C0000BF00BF48E700000020014036
:10A6600004230140601F002040420F0070477047E4
:10A670000146086C704701460868C06C704770B5A9
:10A6800004460025002620680068C0F340052068C5
:10A690004068C0F3401695B38EB3206C00F01000F4
:10A6A00018B9206C40F4007020642068806800F0C5
:10A6B0004050E8B9A069D8B92068C06A00F47000B9
:10A6C00020B12068806800F4806088B92068406804
:10A6D00020F0200021684860206C20F48070206405
:10A6E000206C00F4805018B9206C40F00100206408
:10A6F0002046FFF7BBFF6FF012002168086020685A
:10A700000068C0F3800520684068C0F3C016E5B358
:10A71000DEB3206C00F0100018B9206C40F400503B
:10A7200020642068806800F4401038BB2068806B8B
:10A7300000F4401020B12068806800F48060E8B91F
:10A740002068406800F48060C0B92068806800F02C
:10A75000405098B9A06988B92068406820F080000E
:10A7600021684860206C20F480502064206C00F444
:10A77000807018B9206C40F0010020642046FFF77B
:10A78000A9FE6FF00C00216808602068006800F0E6
:10A79000010520684068C0F3801685B17EB120684D
:10A7A000006800F0010050B1206C40F4803020645B
:10A7B000204600F053F86FF001002168086020681F
:10A7C0000068C0F3401520684068C0F380667DB122
:10A7D00076B1606C40F0020060646FF02000216888
:10A7E00008602046FFF743FF6FF0200021680860F3
:10A7F00070BD000070B5044600250CB9012070BD85
:10A800001549A06A884200D000BF206C30B90020F2
:10A81000606484F83C00204600F022F8206C00F0D0
:10A82000100088B9206C20F4885040F002002064A9
:10A830002046FFF793F900206064206C20F00200AE
:10A8400040F00100206400E0012500BF002084F8F2
:10A850003C0000BF2846D2E70100000F704700000F
:10A8600010B586B0044614492068884221D100BF43
:10A87000002000901148006840F480700F49086083
:10A880000846006800F48070009000BF00BF0120FF
:10A890000190032002900020039001A9084800F0D5
:10A8A000C5FA00220521122000F0E5FE122000F07A
:10A8B000D5FE06B010BD0000002001404438024023
:10A8C0000000024070B504460D46002620688068EE
:10A8D00000F4806078B12068806800F4807050B126
:10A8E000206C40F02000206400BF002084F83C0071
:10A8F00000BF012070BD00F091FB064612E0681C0D
:10A9000080B125B100F08AFB801BA8420AD9206CD7
:10A9100040F00400206400BF002084F83C0000BF29
:10A920000320E7E72068006800F002000228E6D173
:10A930006FF0120021680860206C40F40070206401
:10A940002068806800F04050B8B9A069A8B92068B4
:10A95000C06A00F4700020B12068806800F4806054
:10A9600058B9206C20F480702064206C00F4805072
:10A9700018B9206C40F0010020640020BAE7000004
:10A9800008B501460020009000BF91F83C00012866
:10A9900001D1022008BD012081F83C0000BF0868F9
:10A9A000806800F00100A0B90868806840F00100EC
:10A9B0000A6890602D4800682D4AB0FBF2F000EB69
:10A9C0004000009002E00098401E0090009800288F
:10A9D000F9D10868806800F00100002844D0086CB4
:10A9E00040F20162904340F4807008640868406857
:10A9F00000F4806028B1086C20F4005040F48050CE
:10AA00000864086C00F4805020B1486C20F0060007
:10AA1000486401E00020486400BF002081F83C0049
:10AA200000BFC01E0A6810601248006800F01F00D6
:10AA300058B90868806800F04050A8B90868806874
:10AA400040F080400A6890600EE00B4A086890422F
:10AA50000AD10868806800F0405028B9086880680A
:10AA600040F080400A689060002093E7601F00205B
:10AA700040420F000423014000200140014600BF76
:10AA800091F83C00012801D102207047012081F893
:10AA90003C0000BF0868806820F001000A689060F0
:10AAA0000868806800F0010028B9086C20F488501C
:10AAB00040F00100086400BF002081F83C0000BFA6
:10AAC00000BFE2E72DE9F04104460E4601270025CC
:10AAD00000BF2548007E012802D10220BDE8F08198
:10AAE00001202149087600BF4CF25030FFF74EFAA2
:10AAF0000746002F31D1401E3060206801280FD159
:10AB0000207C6168FFF780F94CF25030FFF73EFA85
:10AB100007461648006820F00400144908601AE04F
:10AB2000A56812E0217C2846FFF7FEF84CF2503071
:10AB3000FFF72CFA07460D48006820F0FA000B4991
:10AB400008600FB1356005E06D1CD4E902100844BF
:10AB5000A842E7D800BFFFF71BF900BF0020024959
:10AB6000087600BF3846B9E774280020103C024040
:10AB70000348006840F00040014908600020704729
:10AB8000103C02402DE9F04106460F4614461D4692
:10AB90004FF0010800BF1F48007E012802D10220AB
:10ABA000BDE8F08101201B49087600BF4CF250300F
:10ABB000FFF7ECF98046B8F1000F23D126B9E1B2D6
:10ABC0003846FFF739F912E0012E04D1A1B2384618
:10ABD000FFF75AF90BE0022E04D121463846FFF761
:10ABE00067F904E022462B463846FFF737F94CF266
:10ABF0005030FFF7CBF980460748006820F001008D
:10AC00000549086000BF00200249087600BF4046A1
:10AC1000C6E7000074280020103C02400748006886
:10AC200000F0004030B1064804490C39086005487E
:10AC3000086001E0012070470020FCE7103C024062
:10AC400023016745AB89EFCDF0B50C460025002206
:10AC50000023002181E0012606FA01F504EA05023D
:10AC6000AA4279D106684FEA410C032707FA0CF78C
:10AC7000BE430660CF0800F1200656F827604F0754
:10AC80004FEAD76C0F2707FA0CF7BE434FEAD10CF7
:10AC900000F1200747F82C6086684FEA410C032733
:10ACA00007FA0CF7BE438660476801268E40B7431B
:10ACB0004760C6684FEA410C032707FA0CF7BE430A
:10ACC000C660284E8F0856F827308E07370F0F269C
:10ACD000BE403340244EB04201D1002614E0234E42
:10ACE000B04201D101260FE0214EB04201D102262F
:10ACF0000AE0204EB04201D1032605E01E4EB042CC
:10AD000001D1042600E005268F073F0FBE409E427A
:10AD100022D18E07370F0F2606FA07F3114E8F0840
:10AD200056F827609E430F4F4FEA910C47F82C606E
:10AD3000124E36689643114F3E603E1D366896436C
:10AD40003F1D3E603E1D366896433F1D3E603E1DE2
:10AD5000366896433F1D3E60491C1029FFF47BAFC7
:10AD6000F0BD00000838014000000240000402402D
:10AD700000080240000C024000100240003C01406C
:10AD800010B504461448007800B910BDB4F5006F42
:10AD900005D103F07FF811A002F004FF1AE0B4F52A
:10ADA000805F05D102F00CFF12A002F0FBFE11E063
:10ADB000012C03D1012007F035FA0BE0B4F5806FC8
:10ADC00008D0B4F5007F05D11048007810B90520EF
:10ADD00007F028FA00BFD8E71C000020672D736534
:10ADE0006E736F7220696E74657272757074203143
:10ADF00031210000672D73656E736F7220696E7468
:10AE000065727275707420313221000024000020B8
:10AE100010B5044604480068204020B10248046090
:10AE20002046FFF7ADFF10BD143C0140F8B50346C6
:10AE30000A460025002400200021CDE0012606FA64
:10AE400001F5166806EA0504AC4273D15668022E75
:10AE500002D05668122E13D1CF0803F1200656F8FF
:10AE600027004E07F70E0F26BE40B0434F07FF0ED8
:10AE70001669BE403043CF0803F1200646F827008C
:10AE800018684F000326BE40B043167906F003064B
:10AE90004F00BE40304318605668012E08D05668F7
:10AEA000022E05D05668112E02D05668122E13D1EC
:10AEB00098684F000326BE40B0434F00D668BE409E
:10AEC00030439860586801268E40B0431679C6F327
:10AED00000168E4030435860D8684F000326BE40AD
:10AEE000B0434F009668BE403043D860566806F0C5
:10AEF0008056B6F1805F6ED100BF00260096384EB6
:10AF0000366846F48046364F3E603E46366806F464
:10AF10008046009600BF00BF324E8F0856F82700CB
:10AF20008E07370F0F26BE40B0432F4EB34202D1DB
:10AF3000002615E04FE02D4EB34201D101260FE06F
:10AF40002B4EB34201D102260AE02A4EB34201D170
:10AF5000032605E0284EB34201D1042600E0052671
:10AF60008F073F0FBE4030431E4E8F0846F8270024
:10AF7000224E3068A043566806F48036B6F5803F0E
:10AF800000D120431D4E3060361D3068A043566806
:10AF900006F40036B6F5003F00D12043174E361DAB
:10AFA0003060361D3068A043566806F48016B6F54A
:10AFB000801F00D12043114E08363060361D3068A6
:10AFC000A043566806F40016B6F5001F00D12043D2
:10AFD0000A4E0C363060491C1029FFF42FAFF8BD23
:10AFE000443802400838014000000240000402409A
:10AFF00000080240000C024000100240003C0140EA
:10B00000024613690B400BB1012000E0002070479D
:10B010000AB1816101E00B04836170470148006857
:10B02000704700005C1F00200146086C704700005C
:10B0300070B50446002600250CB9012070BD94F8B7
:10B040003D0028B9002084F83C00204600F064FA56
:10B05000242084F83D002068006820F00100216869
:10B06000086000F01FFD05463948B5FBF0F6206882
:10B07000466038496068884201D8701C07E04FF488
:10B08000967070434FF47A71B0FBF1F0401C216868
:10B0900008623049606888420ED860684000B5FB9D
:10B0A000F0F0C0F30B00042801D204202DE060680A
:10B0B0004000B5FBF0F028E0A06828B9606800EB1C
:10B0C0004000B5FBF0F008E0606800EBC00101EB68
:10B0D0000010B5FBF0F040F48040C0F30B0008B95D
:10B0E000012012E0A06828B9606800EB4000B5FBC1
:10B0F000F0F008E0606800EBC00101EB0010B5FB68
:10B10000F0F040F4804040F400402168C861D4E988
:10B110000701084321680860D4E903100843216847
:10B120008860D4E9050108432168C8602068006888
:10B1300040F001002168086000202064202084F88D
:10B140003D000020206384F83E0000BF76E7000049
:10B1500040420F00A08601002DE9F84304468846CE
:10B1600015461E46089F94F83D0020287ED142F2E5
:10B17000107301229349204602F065FB10B10220B2
:10B18000BDE8F88300BF94F83C00012801D10220FB
:10B19000F6E7012084F83C0000BF2068006820F436
:10B1A000006021680860222084F83D00102084F8A7
:10B1B0003E00002020648448E0623A464146204632
:10B1C00002F022FA80B1206C042806D100BF0020D2
:10B1D00084F83C0000BF0120D2E700BF002084F8C3
:10B1E0003C0000BF0320CBE78EB900BF00200090D9
:10B1F00020684069009020688069009000BF00BF0F
:10B200002068006840F400702168086045E0012E65
:10B2100017D12068006820F480602168086000BFB2
:10B2200000200090206840690090206880690090AC
:10B2300000BF00BF2068006840F40070216808600B
:10B240002BE0022E18D12068006820F4806021686D
:10B2500008602068006840F400602168086000BF52
:10B260000020009020684069009000E0A7E020687E
:10B270008069009000BF10E02068006840F48060A2
:10B280002168086000BF002000902068406900909D
:10B2900020688069009000BF00BF82E0032E63D861
:10B2A000012E12D13946204602F099FB30B1206CB4
:10B2B000202801D1032063E7012061E720680069AD
:10B2C00005F8010B701E86B26BE0022E1BD13B46C7
:10B2D00000223E49204602F0B6FA08B103204FE7AB
:10B2E0002068006840F400702168086020680069E8
:10B2F00005F8010B701E86B22068006905F8010B85
:10B30000701E86B24DE03B4600223049204602F0D6
:10B310009AFA08B1032033E72068006820F48060BF
:10B32000216808602068006905F8010B701E86B26C
:10B330003B4600222549204602F085FA08B1032049
:10B340001EE72068006840F40070216808602068EB
:10B35000006905F8010B701E86B22068006905F8C7
:10B36000010B701E86B21CE03946204602F037FB06
:10B3700030B1206C202801D1032001E70120FFE635
:10B380002068006905F8010B701E86B220684069CC
:10B39000C0F3800028B12068006905F8010B701E19
:10B3A00086B2002E7FF47AAF202084F83D00002082
:10B3B00084F83E0000BF84F83C0000BFE0E60220B5
:10B3C000DEE60000020010000000FFFF04000100A4
:10B3D0002DE9F8430446884615461E46089F94F812
:10B3E0003D0020287CD142F21073012248492046BA
:10B3F00002F029FA10B10220BDE8F88300BF94F8EA
:10B400003C00012801D10220F6E7012084F83C002D
:10B4100000BF2068006820F40060216808602120D7
:10B4200084F83D00102084F83E0000202064394854
:10B43000E0623A464146204602F07EF980B1206C37
:10B44000042806D100BF002084F83C0000BF012082
:10B45000D2E700BF002084F83C0000BF0320CBE708
:10B4600000BF00200090206840690090206880693B
:10B47000009000BF00BF36E03946204602F0E9FAEE
:10B4800060B1206C042807D12068006840F4007087
:10B49000216808600120AFE70320ADE715F8010B34
:10B4A00021680861701E86B220684069C0F3800080
:10B4B00030B12EB115F8010B21680861701E86B2FB
:10B4C0003946204602F092F968B1206C042808D170
:10B4D0002068006840F400702168086001208BE754
:10B4E00014E0032088E7002EC6D12068006840F4ED
:10B4F000007021680860202084F83D00002084F856
:10B500003E0000BF84F83C0000BF75E7022073E7EF
:10B51000020010000000FFFF10B586B004462A4963
:10B52000206888421ED14FF4407001901220029092
:10B5300001200390032004900420059001A92348D2
:10B54000FFF774FC00BF002000902148006840F421
:10B5500000101F4908600846006800F400100090C1
:10B5600000BF2FE01B49206888422BD100150190B5
:10B5700012200290012003900320049004200590E3
:10B5800001A91248FFF752FC0820019012200290F6
:10B5900001200390032004900920059001A90B4885
:10B5A000FFF744FC00BF002000900948006840F409
:10B5B0008000074908600846006800F48000009099
:10B5C00000BF00BF06B010BD0054004000040240A0
:10B5D000403802400058004002480068401C0149C1
:10B5E000086070475C1F002010B50D48006840F4EB
:10B5F00000700B4908600846006840F480600860ED
:10B600000846006840F480700860032000F072F87B
:10B610000F2000F007F800F017F8002010BD000020
:10B62000003C024070B5044600F020FA4FF47A71F5
:10B63000B0FBF1F5284601F046FC00222146501EE1
:10B6400000F019F8002070BD10B5032000F052F88A
:10B6500000220F21501E00F00EF810BD00BF00F0B8
:10B660001F02012191404209920002F1E022C2F83A
:10B67000001100BF70472DE9F05F80460D46164669
:10B68000002702F007FF074639462A46334601F0F5
:10B690000700C0F1070ABAF1040F02D94FF0040AFB
:10B6A00001E0C0F1070AD14600F1040ABAF1070F20
:10B6B00002D24FF0000A01E0A0F1030AD4464FF095
:10B6C000010A0AFA09FAAAF1010A0AEA020A0AFABE
:10B6D0000CFA4FF0010B0BFA0CFBABF1010B0BEA70
:10B6E000030B4AEA0B042146404602F0DBFEBDE8AC
:10B6F000F09F000000BF00F00702064B19684FF6EC
:10B70000FF031940044B0B4343EA0221014B19602C
:10B7100000BF70470CED00E00000FA05F8B50446E4
:10B7200000250026207800F0010070B30020614958
:10B730008866FFF773FC054606E0FFF76FFC401BC9
:10B74000022801D90320F8BD5B480068C0F3C0603F
:10B750000028F2D147F6C07191FAA1F1B1FA81F156
:10B76000606888404FF0E04292FAA2F2B2FA82F2A8
:10B77000A1689140084350498431086001204D4937
:10B780008866FFF74BFC054607E00CE0FFF746FC38
:10B79000401B022801D90320D5E747480068C0F3C1
:10B7A000C0600028F2D0207800F0020002287FD18B
:10B7B00000BF0020009040484030006840F08050BA
:10B7C0003D49403108600846006800F08050009014
:10B7D00000BF00BF3948006840F4807037490860F6
:10B7E000FFF71CFC054606E0FFF718FC401B02288B
:10B7F00001D90320A7E73148006800F480700028D1
:10B80000F2D02D487030006800F44070A18901F436
:10B81000407188424CD028487030006820F440764F
:10B820000120274908600020086023487030066026
:10B8300006F0020098B1FFF7F1FB054608E0FFF7BC
:10B84000EDFB401B41F28831884201D903207AE7A1
:10B85000194870300068C0F340000028EFD000BFE6
:10B86000A08900F44070B0F5407F0CD11248083038
:10B87000006820F4F810134AE168114008430E49AB
:10B880000831086007E00C480830006820F4F81020
:10B89000094908310860084870300068A189C1F37F
:10B8A0000B01084304497031086000E000E000BF6C
:10B8B000002048E700004742003802400070004086
:10B8C000400E4742FFFCFF0F70B504460D460026B0
:10B8D0006448006800F00F00A84209D261490D7069
:10B8E0000846006800F00F00A84201D0012070BD9A
:10B8F000207800F00200022807D15B48006820F0A1
:10B90000F000A168084358490860207800F0010061
:10B91000002877D06068012807D1534808380068AC
:10B92000C0F34040B8B90120E1E76068022802D0C6
:10B930006068032807D14C4808380068C0F34060AD
:10B9400048B90120D3E7484808380068C0F34000F0
:10B9500008B90120CBE74448006820F00300616883
:10B96000084341490860FFF759FB06466068012813
:10B9700010D108E0FFF752FB801B41F2883188426A
:10B9800001D90320B3E73848006800F00C00042810
:10B99000F0D137E06068022810D108E0FFF73EFBE5
:10B9A000801B41F28831884201D903209FE72E484D
:10B9B000006800F00C000828F0D123E0606803283C
:10B9C00010D108E0FFF72AFB801B41F28831884242
:10B9D00001D903208BE72448006800F00C000328FD
:10B9E000F0D10FE008E0FFF719FB801B41F288312E
:10B9F000884201D903207AE71B48006800F00C0058
:10BA00000028F0D11748006800F00F00A84209D9BB
:10BA100014490D700846006800F00F00A84201D0DC
:10BA2000012064E7207800F00400042807D10E48C4
:10BA3000006820F4E050E16808430B490860207872
:10BA400000F00800082808D10748006820F460408A
:10BA5000216940EAC100044908600F20FFF7E2FDB8
:10BA6000002044E7003C02400838024010B500F0D6
:10BA700045F80949096801F0F001F02292FAA2F2B2
:10BA8000B2FA82F2D140054A515CC84004490860CC
:10BA90000846006810BD00000838024078610208BE
:10BAA000601F002010B5FFF7E1FF0749096801F4A6
:10BAB000E0514FF4E05292FAA2F2B2FA82F2D1408F
:10BAC000024A515CC84010BD083802407861020843
:10BAD00010B5FFF7CBFF0749096801F460414FF447
:10BAE000604292FAA2F2B2FA82F2D140024A515C6A
:10BAF000C84010BD083802407861020870B50021C6
:10BB0000002200230020274C246804F00C0424B1F8
:10BB1000042C04D0082C41D103E0234840E0234802
:10BB20003EE0204C241F246804F03F011D4C241FDC
:10BB3000246804F4800484B11C4CB4FBF1F5194C66
:10BB4000241F246847F6C076344096FAA6F6B6FA63
:10BB500086F6F44005FB04F20FE0134CB4FBF1F55C
:10BB6000104C241F246847F6C076344096FAA6F697
:10BB7000B6FA86F6F44005FB04F20A4C241F24684A
:10BB800004F440344FF4403595FAA5F5B5FA85F53F
:10BB9000EC40641C6300B2FBF3F001E0024800BF1C
:10BBA00000BF70BD083802400024F40040787D01D9
:10BBB00038B504460025207800F00100002848D060
:10BBC000DE48006800F00C0004280DD0DB48006857
:10BBD00000F00C00082811D1D848001F006800F4BC
:10BBE0008000B0F5800F09D1D44808380068C0F350
:10BBF000404070B3606860BB012038BD2079CF49F8
:10BC0000891F0870606890B1FFF708FA054606E0E2
:10BC1000FFF704FA401B642801D90320EDE7C74869
:10BC200008380068C0F340400028F1D011E0FFF769
:10BC3000F5F9054606E0FFF7F1F9401B642801D944
:10BC40000320DAE7BD4808380068C0F34040002808
:10BC5000F1D1207800F00200022869D1B7480068CD
:10BC600000F00C0058B1B548006800F00C0008283E
:10BC700021D1B248001F006800F48000D8B9AF4855
:10BC800008380068C0F3400020B1E068012801D006
:10BC90000120B2E7A9480838006820F0F800F8222F
:10BCA00092FAA2F2B2FA82F2216991400843A349C2
:10BCB000083908603CE0E06828B30120A04908602A
:10BCC000FFF7ACF9054606E0FFF7A8F9401B02288C
:10BCD00001D9032091E7994808380068C0F3400073
:10BCE0000028F1D095480838006820F0F800F822C4
:10BCF00092FAA2F2B2FA82F22169914008438F4986
:10BD00000839086014E000208D490860FFF786F9C3
:10BD1000054606E0FFF782F9401B022801D90320FF
:10BD20006BE7864808380068C0F340000028F1D16E
:10BD3000207800F0080008282CD16069A8B1012003
:10BD400080490860FFF76AF9054606E0FFF766F9E3
:10BD5000401B022801D903204FE778486C30006867
:10BD6000C0F340000028F1D014E0002075490860BD
:10BD7000FFF754F9054606E0FFF750F9401B02288B
:10BD800001D9032039E76D486C300068C0F34000EA
:10BD90000028F1D1207800F00400042857D100BF1A
:10BDA0000020009065483830006840F080506349BA
:10BDB000383108600846006800F08050009000BFED
:10BDC00000BF6148006840F480705F490860FFF779
:10BDD00025F9054606E0FFF721F9401B022801D9A5
:10BDE00003200AE75848006800F480700028F2D069
:10BDF000207A524968310870A068A0B1FFF70EF9A7
:10BE0000054608E0FFF70AF9401B41F288318842F5
:10BE100001D90320F1E6494868300068C0F34000CA
:10BE20000028EFD013E0FFF7F9F8054608E0FFF728
:10BE3000F5F8401B41F28831884201D90320DCE645
:10BE40003E4868300068C0F340000028EFD1A06988
:10BE5000F0B33A48006800F00C00082869D0A069E7
:10BE6000022850D1002036490866FFF7D7F805466A
:10BE700006E0FFF7D3F8401B022801D90320BCE6F7
:10BE80002E4808380068C0F340600028F1D1D4E99A
:10BE90000701084347F6C07292FAA2F2B2FA82F2A0
:10BEA000616A914008430122A16AC2EB51014FF43B
:10BEB000403292FAA2F2B2FA82F2914008434FF075
:10BEC000706292FAA2F2B2FA82F2E16A914000E064
:10BED00031E008431949091F086001201849086624
:10BEE000FFF79CF8054606E0FFF798F8401B02288C
:10BEF00001D9032081E6114808380068C0F340608A
:10BF00000028F1D017E000200D490866FFF786F8F9
:10BF1000054606E0FFF782F8401B022801D90320FE
:10BF20006BE6064808380068C0F340600028F1D18D
:10BF300001E0012061E600205FE6000008380240D1
:10BF400000004742800E47420070004070470000EA
:10BF500010B5044604A001F025FE01200449087034
:10BF6000022006F05FF910BD616C61726D00000087
:10BF70002200002010B504462068C068C0F30020ED
:10BF800078B12068806800F4805050B12046FFF7F7
:10BF9000DFFF2068C06800F0800060F4C070216896
:10BFA000C8602068C068C0F3402078B1206880680D
:10BFB00000F4005050B12046FFF7C8FF2068C06869
:10BFC00000F0800060F420702168C8604FF40030F9
:10BFD000024908600120607710BD0000143C014058
:10BFE00070B504460D46002600BF207F012801D110
:10BFF000022070BD0120207700BF0220607700BFC3
:10C00000CA202168486253202168486200BFB5F504
:10C01000807F29D12068806820F480702168886042
:10C020002068806820F4805021688860FEF7F6FF61
:10C03000064612E0FEF7F2FF801BB0F57A7F0CD9BE
:10C0400000BFFF202168486200BF0320607700BF67
:10C050000020207700BF0320CBE72068C06800F0F5
:10C0600001000028E6D028E02068806820F40070F5
:10C07000216888602068806820F40050216888600A
:10C08000FEF7CCFF064612E0FEF7C8FF801BB0F5B6
:10C090007A7F0CD900BFFF202168486200BF0320CF
:10C0A000607700BF0020207700BF0320A1E7206851
:10C0B000C068C0F340000028E6D000BFFF20216820
:10C0C000486200BF0120607700BF0020207700BFDA
:10C0D00000BF8EE770B505460B461646002428685B
:10C0E00040680E4900EA0104200CD870C4F3042013
:10C0F000587004F03F009870C4F3423018705EB975
:10C10000D87802F015FAD870587802F011FA587001
:10C11000987802F00DFA9870002070BD3FFFFF0084
:10C120000146487F7047000070B504460B4616462E
:10C1300000252068806A586020680069C0F30E00FE
:10C140009860206800680F4900EA0105C5F30540C2
:10C150001870C5F30620587005F07F00987005F43C
:10C160008000000CD8705EB9187802F0E1F9187000
:10C17000587802F0DDF95870987802F0D9F9987083
:10C18000002070BD7F7F7F0010B504460CB90120F0
:10C1900010BD607F20B900202077204600F04EF8C7
:10C1A0000220607700BFCA202168486253202168BE
:10C1B000486200BF204602F0D3F940B100BFFF2023
:10C1C0002168486200BF042060770120E0E7206812
:10C1D00080681949084021688860216960680843BF
:10C1E000616908432168896808432168886021687B
:10C1F000E068086120680169208941EA00402168FF
:10C2000008612068C06820F080002168C86020684C
:10C21000006C20F48020216808642068006CA1690B
:10C2200008432168086400BFFF202168486200BFFE
:10C23000012060770020ABE7BFFF8FFF10B50446F9
:10C240000749206888420AD1012006490860002277
:10C2500005212920FFF70FFA2920FFF7FFF910BD6C
:10C26000002800403C0E47422DE9F04704460D46A9
:10C2700016460027B846B94600BF207F012802D1E4
:10C280000220BDE8F0870120207700BF0220607700
:10C2900046BB2068806800F0400000B102E000204A
:10C2A000E87000BFE86900B900E000BF287802F03C
:10C2B0004AF90304687802F046F943EA0023A878B3
:10C2C00002F041F90343E87843EA004395F820007F
:10C2D00002F039F943EA0060E9690843696940EA14
:10C2E00001082DE02068806800F0400020B1287827
:10C2F00002F01EF9804602E00020E87000BFE86905
:10C3000028B995F8200002F013F9804605E095F869
:10C31000200002F00DF9804600BF287800046978FB
:10C3200040EA0120A9780843E97840EA014095F8FD
:10C33000201040EA0160E9690843696940EA0108A0
:10C34000A969686840EA010900BFCA2021684862FB
:10C3500053202168486200BF686AB0F5807F3DD1F4
:10C360002068806820F48070216888602068C06838
:10C3700000F0800060F4C0702168C860FEF74EFED7
:10C38000074612E0FEF74AFEC01BB0F57A7F0CD9D3
:10C3900000BFFF202168486200BF0320607700BF14
:10C3A0000020207700BF03206BE72068C06800F002
:10C3B00001000028E6D02068C0F81C802068C0F882
:10C3C00044902068806840F480702168886020680C
:10C3D000806840F48050216888603CE02068806874
:10C3E00020F40070216888602068C06800F0800038
:10C3F00060F420702168C860FEF710FE074612E066
:10C40000FEF70CFEC01BB0F57A7F0CD900BFFF20F1
:10C410002168486200BF0320607700BF00202077BA
:10C4200000BF03202DE72068C068C0F3400000284B
:10C43000E6D02068C0F820802068C0F848902068C6
:10C44000806840F40070216888602068806840F44B
:10C450000050216888600D48006840F400300B49A6
:10C4600008600A480830006840F400300749083185
:10C47000086000BFFF202168486200BF012060778C
:10C4800000BF0020207700BF00BFFAE6003C01405B
:10C490002DE9F04104460D461646002700BF207FD7
:10C4A000012802D10220BDE8F0810120207700BFE1
:10C4B000022060774EB9687800F01000102804D18F
:10C4C000687800F0EF000A30687086B9E87802F00A
:10C4D0003AF80304687802F036F843EA0023A878B3
:10C4E00002F031F80343287843EA403711E06878D6
:10C4F00002F01EF80746A87802F01AF80746E87816
:10C500000004697840EA0120A9780843297840EAC4
:10C51000413700BFCA202168486253202168486221
:10C5200000BF204602F01CF860B100BFFF20216868
:10C53000486200BF0420607700BF0020207700BF62
:10C540000120B0E716483840216848602068C0687C
:10C5500020F080002168C8602068806800F020001A
:10C5600080B9204600F0B8F860B100BFFF20216814
:10C57000486200BF0420607700BF0020207700BF22
:10C58000012090E700BFFF202168486200BF012022
:10C59000607700BF0020207700BF00BF83E7000066
:10C5A0003FFFFF002DE9F04104460D4616460027E7
:10C5B00000BF207F012802D10220BDE8F0810120C8
:10C5C000207700BF02206077CEB92068806800F035
:10C5D000400000B102E00020E87000BF287801F0C0
:10C5E000B2FF0304687801F0AEFF43EA0023A878A5
:10C5F00001F0A9FF0343E87843EA004716E020680A
:10C60000806800F0400020B1287801F091FF0746D3
:10C6100002E00020E87000BF28780004697840EA52
:10C620000120A9780843E97840EA014700BFCA2001
:10C630002168486253202168486200BF204601F00B
:10C640008FFF60B100BFFF202168486200BF042057
:10C65000607700BF0020207700BF0120ADE71D48B4
:10C660003840216808602068806820F480202168B4
:10C670008860D5E903010843216889680843216877
:10C6800088602068C06820F080002168C860206849
:10C69000806800F0200080B9204600F01DF860B1ED
:10C6A00000BFFF202168486200BF0420607700BF00
:10C6B0000020207700BF01207FE700BFFF20216816
:10C6C000486200BF0120607700BF0020207700BFD4
:10C6D00000BF72E77F7F7F0070B5044600252068A9
:10C6E000C06820F0A0002168C860FEF797FC0546EE
:10C6F00007E0FEF793FC401BB0F57A7F01D90320D9
:10C7000070BD2068C06800F020000028F1D0002033
:10C71000F6E710B504460CB9012010BD022084F8DC
:10C7200051002068006820F0400021680860204621
:10C7300000F05AF80020606584F8510000BF84F8CA
:10C74000500000BF00BFE8E710B504460CB9012057
:10C7500010BD606A00B900BFA06AB0F5005F00D1EB
:10C7600000BF94F8510028B9002084F850002046FA
:10C7700000F058F8022084F851002068006820F08A
:10C78000400021680860D4E901010843E1680843DA
:10C790002169084361690843218B01F40071084352
:10C7A000E1690843216A0843A16A084321680860D7
:10C7B0000421A06901EA1040616A084321684860C9
:10C7C000A06AB0F5005F02D12168E06A08612068C4
:10C7D000C06920F400602168C86100206065012004
:10C7E00084F851000020B3E710B5044609492068D9
:10C7F00088420DD10848006820F48050064908603E
:10C8000020210648FEF720FA30210548FEF71CFAE1
:10C8100010BD0000003001404438024000000240DA
:10C820000004024010B586B00446194920688842C9
:10C830002BD100BF002000901648006840F48050C3
:10C84000144908600846006800F48050009000BF5A
:10C8500000BF2020019002200290002003900320BE
:10C8600004900520059001A90B48FEF7DFFA30205F
:10C8700001900220029000200390032004900520E4
:10C88000059001A90548FEF7D1FA06B010BD0000D9
:10C8900000300140443802400000024000040240E1
:10C8A0002DE9FC4704460D4617461E460020019020
:10C8B000804681466068B0F5827F0DD1A06858B986
:10C8C000042084F851003B462A462946204600961B
:10C8D00000F0C5F9BDE8FC8700BF94F850000128BE
:10C8E00001D10220F6E7012084F8500000BFFEF7D6
:10C8F00095FB804694F85100012802D04FF00209C0
:10C90000D8E005B117B94FF00109D3E0042084F84D
:10C91000510000206065A563A787E7872063A08694
:10C92000E08620646064A06AB0F5005F11D100BFAA
:10C93000206800684DF6FF71084021680860206893
:10C94000006840F400502168086000BFE08F401E7E
:10C95000E087A068B0F5004F05D12068006820F49A
:10C960008040216808602068006800F0400040288E
:10C9700005D02068006840F0400021680860E06849
:10C98000E8B918E02068806800F0010038B120683C
:10C99000007B28706D1CE08F401EE0870BE03EB1ED
:10C9A000701C40B1FEF73AFBA0EB0800B04202D386
:10C9B0004FF003097EE0E08F0028E3D11CE018E08F
:10C9C0002068806800F0010038B12068C0682880C5
:10C9D000AD1CE08F401EE0870BE03EB1701C40B103
:10C9E000FEF71CFBA0EB0800B04202D34FF0030996
:10C9F00060E0E08F0028E3D1A06AB0F5005F32D19B
:10CA00002068006840F480502168086033460122A5
:10CA100011462046CDF8008001F0F4FF10B14FF030
:10CA2000030947E0E068B0F5006F03D12068C068F3
:10CA3000288002E02068007B2870334601221146DE
:10CA40002046CDF8008001F0DDFF30B1606D40F090
:10CA5000020060654FF003092CE02068C06880B2D6
:10CA60000190BDF80400204601F0B7FF18B1606DD9
:10CA700040F02000606542463146204601F099FFB3
:10CA800028B1606D40F0200060654FF0010920681A
:10CA9000806800F01000102807D1606D40F002009F
:10CAA00060654FF6EF7021688860606D08B14FF0E7
:10CAB000010900BF012084F8510000BF002084F864
:10CAC000500000BF484605E72DE9F84304460E46EE
:10CAD00017461D464FF00008C14600BF94F85000AD
:10CAE000012802D10220BDE8F883012084F850001B
:10CAF00000BFFEF793FA804694F85100012802D057
:10CB00004FF00209A1E006B117B94FF001099CE00E
:10CB1000032084F85100002060652663A786E7861D
:10CB2000A063A087E08760642064A068B0F5004F30
:10CB300005D12068006840F4804021680860A06A40
:10CB4000B0F5005F0ED100BF206800684DF6FF71A0
:10CB50000840216808602068006840F4005021689F
:10CB6000086000BF2068006800F04000402805D041
:10CB70002068006840F0400021680860E068B0F577
:10CB8000006F1ED119E02068806800F002000228C2
:10CB900007D130882168C860B61CE08E401EE08650
:10CBA0000BE03DB1681C40B1FEF738FAA0EB08007D
:10CBB000A84202D34FF0030947E0E08E0028E2D1FB
:10CBC0001DE019E02068806800F00200022807D10B
:10CBD000307821680873761CE08E401EE0860BE0FA
:10CBE0003DB1681C40B1FEF719FAA0EB0800A8425D
:10CBF00002D34FF0030928E0E08E0028E2D1A06ABA
:10CC0000B0F5005F05D12068006840F480502168CD
:10CC1000086042462946204601F0CBFE18B1606DFF
:10CC200040F020006065A06850B900BF002000906F
:10CC30002068C068009020688068009000BF00BF36
:10CC4000606D08B14FF0010900BF012084F8510068
:10CC500000BF002084F8500000BF484643E72DE99C
:10CC6000FC4704460D4616461F46DDF82880002086
:10CC700001908146824600BF94F85000012802D1FD
:10CC80000220BDE8FC87012084F8500000BFFEF7B9
:10CC9000C5F9814694F8510001280CD06068B0F5C0
:10CCA000827F05D1A06818B994F85100042802D0F9
:10CCB0004FF0020AE9E00DB106B117B94FF0010AD1
:10CCC000E3E094F85100012802D1052084F85100D6
:10CCD00000206065A663E787A7872563E786A786A8
:10CCE00020646064A06AB0F5005F0ED100BF2068C8
:10CCF00000684DF6FF7108402168086020680068F0
:10CD000040F400502168086000BF2068006800F00F
:10CD10004000402805D02068006840F040002168AD
:10CD20000860E068B0F5006F3CD134E0E08EC0B13F
:10CD30002068806800F00200022812D1288821684B
:10CD4000C860AD1CE08E401EE086E08E48B9A06A47
:10CD5000B0F5005F05D12068006840F4805021687C
:10CD60000860E08F58B12068806800F0010030B1A1
:10CD70002068C0683080B61CE08F401EE08708F154
:10CD8000010040B1FEF74AF9A0EB0900404502D38B
:10CD90004FF0030A79E0E08E0028C7D1E08F002829
:10CDA000C4D13BE034E0E08EC0B12068806800F080
:10CDB0000200022812D115F8010B21680873E08ED9
:10CDC000401EE086E08E48B9A06AB0F5005F05D14C
:10CDD0002068006840F4805021680860E08F58B1F6
:10CDE0002068806800F0010030B12068C06806F853
:10CDF000010BE08F401EE08708F1010040B1FEF713
:10CE00000DF9A0EB0900404502D34FF0030A3CE0C6
:10CE1000E08E0028C7D1E08F0028C4D1A06AB0F509
:10CE2000005F15D14346012211462046CDF80090FF
:10CE300001F0E8FD30B1606D40F0020060654FF038
:10CE4000030A22E02068C06880B20190BDF80400A7
:10CE50002068806800F01000102809D1606D40F053
:10CE6000020060654FF6EF70216888604FF0010A9C
:10CE70004A464146204601F09CFD28B1606D40F0D5
:10CE8000200060654FF0010A00BF012084F85100C6
:10CE900000BF002084F8500000BF5046F1E604288F
:10CEA00008D14FF0E021096941F004014FF0E02280
:10CEB000116107E04FF0E021096921F004014FF012
:10CEC000E0221161704770B504462546681EB0F136
:10CED000807F01D301200FE0681E4FF0E021486100
:10CEE0000F214FF0FF3001F0DDFA00204FF0E0217C
:10CEF000886107200861002070BD024600BF92F8DB
:10CF00003800012801D102207047012082F8380042
:10CF100000BF022082F839001068406820F07000DD
:10CF200013685860106840680B68184313685860AD
:10CF30001068806820F0800013689860106880682E
:10CF40004B68184313689860012082F8390000BFCD
:10CF5000002082F8380000BF00BFD5E710B586B0CA
:10CF600004460949206888420CD1402001900220E3
:10CF700002900020039004900220059001A903482C
:10CF8000FDF754FF06B010BD000400400000024051
:10CF900070B504460D46164600BF94F838000128C7
:10CFA00001D1022070BD012084F8380000BF0220AA
:10CFB00084F8390036B1042E1BD0082E31D00C2E47
:10CFC0005ED145E02946206801F010FF20688069A5
:10CFD00040F00800216888612068806920F0040022
:10CFE000216888612068806929690843216888610F
:10CFF00047E02946206801F02BFF2068806940F453
:10D000000060216888612068806920F48060216860
:10D01000886120688069296940EA01202168886167
:10D020002FE02946206801F04BFF2068C06940F0DE
:10D0300008002168C8612068C06920F004002168E8
:10D04000C8612068C069296908432168C86118E07F
:10D050002946206801F06AFF2068C06940F400603A
:10D060002168C8612068C06920F480602168C861B7
:10D070002068C069296940EA01202168C86100E090
:10D0800000BF00BF012084F8390000BF002084F8F1
:10D09000380000BF00BF85E710B504460CB9012079
:10D0A00010BD94F8390028B9002084F838002046D3
:10D0B00000F00CF8022084F83900211D206801F0EE
:10D0C0003DFE012084F839000020E9E708B50A4A4E
:10D0D000016891420FD100BF002100910749096802
:10D0E00041F00201054A11601146096801F0020190
:10D0F000009100BF00BF08BD00040040403802405E
:10D100007047F8B50446002500262068006800F046
:10D1100001052068C06800F480767DB176B100BF5B
:10D12000002000902068006800902068406800900F
:10D1300000BF00BFE06B40F00100E06320680068C2
:10D14000C0F340052068406900F001067DB176B16A
:10D1500000BF0020009020680068009020684068B0
:10D16000009000BF00BFE06B40F00400E063206867
:10D170000068C0F380052068406900F001067DB1B9
:10D1800076B100BF00200090206800680090206801
:10D190004068009000BF00BFE06B40F00200E06319
:10D1A00020680068C0F3C0052068406900F00106EF
:10D1B0007DB176B100BF002000902068006800902B
:10D1C00020684068009000BF00BFE06B40F008009E
:10D1D000E06320680068C0F340152068C06800F074
:10D1E00020061DB116B1204601F0E8FE2068006857
:10D1F000C0F3C0152068C06800F080061DB116B1EC
:10D20000204602F0E3F820680068C0F3801520682B
:10D21000C06800F040061DB116B1204601F0BEFE08
:10D22000E06B38B1202084F8390084F83A002046B9
:10D23000FFF766FFF8BD10B504460CB9012010BD1C
:10D24000A06900B100E000BF94F8390028B90020BF
:10D2500084F83800204600F027F8242084F83900AC
:10D260002068C06820F400502168C860204601F0A2
:10D27000F9FE2068006920F4904021680861206868
:10D28000406920F02A00216848612068C06840F4A5
:10D2900000502168C8600020E063202084F8390035
:10D2A00084F83A000020CAE710B586B00446164953
:10D2B0002068884225D100BF0020009013480068F4
:10D2C00040F40030114908600846006800F400305E
:10D2D000009000BF00BF0C200190022002900120AE
:10D2E0000390032004900720059001A90848FDF74A
:10D2F0009DFD002205212620FEF7BDF92620FEF720
:10D30000ADF906B010BD00000044004040380240B6
:10D310000000024010B5034693F83A0020282FD1B0
:10D3200001B10AB9012010BD00BF93F838000128EF
:10D3300001D10220F7E7012083F8380000BF99628D
:10D340009A85DA850020D863222083F83A0018688D
:10D35000C06840F480701C68E0601868406940F064
:10D3600001001C68606100BF002083F8380000BF26
:10D370001868C06840F020001C68E0600020D2E718
:10D380000220D0E710B504464748844277D1474889
:10D390000078A8B946480078FE2811D101204349F9
:10D3A0000870052043490870414800784249434AC3
:10D3B0001278885441480078401C404908706BE05E
:10D3C0003A480078012825D13C48007802281AD133
:10D3D00037480078042816D1354800783649374A4E
:10D3E0001278885435480078401C3449087002206F
:10D3F0002E490870084603783048027830A1002092
:10D4000001F0CEF948E001202C490870002027499E
:10D41000087041E025480078022837D12448007878
:10D420002549264A127888542448007804280CD1CB
:10D43000204800781E49097808441E4908701F4892
:10D440000078401C1D49087026E01C4800781949E6
:10D450000978884214D10120184908700020134926
:10D4600008701448007814490870032004F0DAFEAC
:10D47000104802781CA1002001F092F90CE011E0A4
:10D480000E480078401C0D49087005E001200B494A
:10D4900008700020054908700548027817A100208F
:10D4A00001F07EF910BD00001021002003000020D3
:10D4B0000000002002000020F020002001000020D9
:10D4C000636F6D6D616E64206F6B2C696E6465783F
:10D4D0003D25643B636F6D6D616E645F7374617253
:10D4E000743D25640D0A000064617461206F6B2C2B
:10D4F0006C656E3D25640D0A0000000067657420B0
:10D50000646174613A2578210D0A00002DE9F0412B
:10D5100004460D461646984694F83900202855D101
:10D5200005B116B90120BDE8F08100BF94F83800BC
:10D53000012801D10220F6E7012084F8380000BF5D
:10D540000020E063212084F83900A684E68428E0E6
:10D55000E08C401EE084A068B0F5805F14D14346A3
:10D5600000228021204601F065FF08B10320DAE7A0
:10D570002F463888C0F3080021684860206908B940
:10D58000AD1C0EE06D1C0CE04346002280212046BD
:10D5900001F050FF08B10320C5E715F8010B216821
:10D5A0004860E08C0028D3D1434600224021204629
:10D5B00001F040FF08B10320B5E7202084F83900CE
:10D5C00000BF002084F8380000BFACE70220AAE7C3
:10D5D0007047014608684069C0F3802088B16FF445
:10D5E00080600A68506104200864002008632020DD
:10D5F00081F83D0000BF002081F83C0000BF012001
:10D6000070470020FCE70000F8B504460D461646BA
:10D61000E06A042806D0E06A012803D0E06A10F529
:10D62000803F0CD12068006840F480602168086069
:10D630002068006840F48070216808600EE0206B6C
:10D6400011280BD12068006840F4806021680860D0
:10D650002068006840F4807021680860334600222A
:10D660004FF00111204600F0EEF808B10320F8BD9C
:10D670002069B0F5804F05D1E8B240F00100216883
:10D68000086146E005F44070F02141EAE0102168AD
:10D69000086132462749204600F048F930B1206C35
:10D6A000042801D10120E2E70320E0E7E8B2216885
:10D6B000086132461F49891F204600F037F930B112
:10D6C000206C042801D10120D1E70320CFE700BF5F
:10D6D00000200090206840690090206880690090D8
:10D6E00000BF00BF2068006840F4807021680860B7
:10D6F000334600224FF00111204600F0A4F808B193
:10D700000320B4E705F44070F12141EAE0102168FC
:10D71000086132460749891F204600F007F930B1F9
:10D72000206C042801D10120A1E703209FE70020FD
:10D730009DE700000800010070B504460D4616463E
:10D74000E06A042806D0E06A012803D0E06A10F5F8
:10D75000803F06D12068006840F48070216808602E
:10D7600008E0206B122805D12068006840F4807022
:10D7700021680860334600224FF00111204600F076
:10D7800062F808B1032070BD2069B0F5804F04D164
:10D7900005F0FE002168086116E005F44070F021F4
:10D7A00041EAE0102168086132460F49204600F046
:10D7B000BDF830B1206C042801D10120E3E703203B
:10D7C000E1E7E8B22168086132460749891F20462F
:10D7D00000F0ACF830B1206C042801D10120D2E770
:10D7E0000320D0E70020CEE70800010070B5044612
:10D7F0000D46FDF713FC06461DE02046FFF7E9FE47
:10D8000008B1012070BD681CA8B125B1FDF706FC68
:10D81000801BA8420FD9206C40F02000206400201B
:10D820002063202084F83D0000BF002084F83C00E5
:10D8300000BF0320E6E720684069C0F380000028AD
:10D84000DBD00020DEE72DE9F04104460D46174607
:10D850001E464FF00008FDF7E1FB804677BB15E060
:10D86000701C98B12EB1FDF7D9FBA0EB0800B042B7
:10D870000CD900202063202084F83D0000BF002048
:10D8800084F83C0000BF0320BDE8F081C5F30740E9
:10D8900001280AD120684069A9B20840A9B288428B
:10D8A00001D101200CE000200AE020688069A9B2C3
:10D8B0000840A9B2884202D1012001E003E0002023
:10D8C0000028CDD030E014E0701C90B12EB1FDF7EF
:10D8D000A5FBA0EB0800B0420BD90020206320205C
:10D8E00084F83D0000BF002084F83C0000BF032006
:10D8F000CAE7C5F3074001280AD120684069A9B2E8
:10D900000840A9B2884201D101200BE0002009E0C3
:10D9100020688069A9B20840A9B2884201D10120DB
:10D9200000E000200028CFD10020ADE72DE9F04134
:10D9300004460D4616460027FDF770FB074631E00A
:10D9400020684069C0F38020C0B12068006840F4BE
:10D950000070216808606FF48060216848610420CD
:10D96000206400202063202084F83D0000BF0020B8
:10D9700084F83C0000BF0120BDE8F081701C88B134
:10D9800026B1FDF74BFBC01BB0420BD90020206332
:10D99000202084F83D0000BF002084F83C0000BF38
:10D9A0000320E9E7C5F3074001280AD12068406950
:10D9B000A9B20840A9B2884201D101200BE00020A1
:10D9C00009E020688069A9B20840A9B2884201D163
:10D9D000012000E000200028B2D00020CCE770B584
:10D9E00004460D460026FDF719FB064629E020688F
:10D9F0004069C0F3001080B16FF0100021684861E9
:10DA0000002020642063202084F83D0000BF002017
:10DA100084F83C0000BF012070BD25B1FDF7FEFA7F
:10DA2000801BA8420DD9206C40F0200020642020EB
:10DA300084F83D0000BF002084F83C0000BF0320B4
:10DA4000EAE720684069C0F380100028CFD00020AA
:10DA5000E2E770B504460D46FDF7E0FA06461DE024
:10DA60002046FFF7B6FD08B1012070BD681CA8B1C3
:10DA700025B1FDF7D3FA801BA8420FD9206C40F0E6
:10DA80002000206400202063202084F83D0000BF97
:10DA9000002084F83C0000BF0320E6E720684069CE
:10DAA000C0F3C0100028DBD00020DEE710B50D2049
:10DAB0003B4908700E2048700221394803F030F9C4
:10DAC0000A2003F0AEFC0A2035490870487009208E
:10DAD0008870C87008710A2048710020887114206D
